:020000040000FA
:040000000F010CD010
:04000800FBEF31F0E9
:08001800FBEF31F000EE00F0F7
:10002000EE6AEE6AEE6AEE6A800EE962F9D70F0EAA
:10003000EA62F6D7050E5E6F0B0E5F6FFB6A090E64
:10004000FA6EF86A10EE00F02FEE53F0820EF66EA4
:10005000480EF76E06D00900F5500900F5CFDDFF18
:10006000DD6EEA0EF662F7D7490EF762F4D706D0D6
:100070000900F5CFE6FF0900F5CFE6FFE60EF662D0
:10008000F7D74B0EF762F4D7010E606F586F566FBB
:10009000546F626F5B6F5C6FE00EF66E160EF76E5C
:1000A00093EF09F00900F5500900566312D0F5509E
:1000B00057630FD00900F5500900F66EF550F76E42
:1000C00012000900F55009005663F4D7F550576344
:1000D000F1D7020EF626D8B0F72A12000900F5CFA4
:1000E00068FF0900800EF5265751800FF55C02E18C
:1000F0005651685DEEE2DED75751800F686F0900F8
:10010000F5CF69FF0900F550800F685D02E1695184
:10011000565DD0E2DED75751800F686F0900F5CFEA
:1001200069FF0900F550800F685D02E16951565D75
:10013000D0E2C0D70900F5CF68FF0900800EF52690
:100140005751800FF55C02E15651685DB3E2C1D7AB
:100150000900F5500900686FF550575DBAE3AAE150
:1001600068515665B6D7A6D70900F5500900686FE3
:10017000F550575D9FE3ADE1685156659BD7A9D710
:1001800091E207EB56FF08EB57FF12009AE209EBEA
:1001900056FF0AEB57FF1200A1E20BEB56FF0CEBE8
:1001A00057FF1200A9E20DEB56FF0EEB57FF1200AE
:1001B000B2E20FEB56FF10EB57FF1200C9E257CF28
:1001C000DDFF56CFDDFF0B0EDA6492D303EB56FF53
:1001D00004EB57FF1200C8E257CFDDFF56CFDDFF1B
:1001E0000B0EDA6485D305EB56FF06EB57FF1200C2
:1001F00050E257CFDDFF56CFDDFF0B0EDA6478D328
:10020000120050E257CFDDFF56CFDDFF0B0EDA6450
:100210006FD312008FE2DACFEAFFD9CFE9FF0900EE
:10022000F5500900E926F550EA22ECCF56FFECCF55
:1002300057FF120057CFDDFF56CFDDFF0B0EDA64FC
:1002400057D3DACFEAFFD9CFE9FF0900F55009000B
:10025000E926F550EA22ECCF56FFECCF57FF12000B
:100260000900F5500900D926F550DA221200DACF3C
:10027000EAFFD9CFE9FF0900F5500900E926F5505A
:10028000EA2256CFECFF57CFECFF010E566F576BAB
:1002900012005751576B025C11E30DE15651016496
:1002A0000DD009D05751576B025C05E307E1565159
:1002B000016401D003D0030E566FC2E8010E566FE1
:1002C000C2E85651566B56815683DC62569357519D
:1002D000DC625693576B12005651566B5681DC62A6
:1002E00056835751DC625683576B12005751800F6B
:1002F000686F576B0250800F685D02E10150565DD8
:10030000DDE2D9D7800E02265751800F576B025C71
:1003100002E15651015CCFE2D1D7800E022657513F
:10032000800F576B025C02E15651015CC7E2C3D7F4
:100330005751800F686F576B0250800F685D02E164
:100340000150565DB8E2BAD70900F55009005627AA
:10035000F5505723120056CFE9FF57CFEAFF0900A7
:10036000F5500900EE26F550EF221200F4E201EB01
:1003700056FF02EB57FF12000150E96E0250EA6E81
:10038000EECF68FFEF50EA6E68CFE9FF5605E92629
:100390005751EA22EECF56FFEECF57FF1200ECE2A4
:1003A00005EB56FF06EB57FF120057CFDDFF56CF88
:1003B000DDFF0B0EDA649CD20900F5CF56FF090071
:1003C000F5CF57FF01EBE9FF02EBEAFFEECF6BFF42
:1003D000EF506C6FEA6E6BCFE9FF030E686FEFCFE3
:1003E00069FF685169651DD069256A6F6A336A8142
:1003F0006CCFEAFFD8906A35D8B0EA2A6B25E96E4F
:10040000D8B0EA2A01E8ED50575D07E303E1EF5069
:10041000565D03E36ACF68FFE4D7020E6A5D696F39
:10042000E0D76CCFEAFF6891D8906835D8B0EA2A57
:100430006B25E96ED8B0EA2AEECF56FFEFCF57FF13
:100440001200B3E257CFDDFF56CFDDFF0B0EDA64AB
:100450004FD207EB56FF08EB57FF1200B3E257CF1E
:10046000DDFF56CFDDFF0B0EDA6442D209EB56FFFB
:100470000AEB57FF120057CFDDFF56CFDDFF0B0E03
:10048000DA6436D254CFE9FF55CFEAFF02E8EECF67
:1004900056FFEFCF57FF120057CFDDFF56CFDDFFDE
:1004A0000B0EDA6425D254CFE9FF55CFEAFF04E8FA
:1004B000EECF56FFEFCF57FF120057CFDDFF56CFDD
:1004C000DDFF0B0EDA6414D254CFE9FF55CFEAFFFB
:1004D00006E8EECF56FFEFCF57FF120057CFDDFFF4
:1004E00056CFDDFF0B0EDA6403D254CFE9FF55CFB0
:1004F000EAFF08E8EECF56FFEFCF57FF120057CFC5
:10050000DDFF56CFDDFF0B0EDA64F2D154CFE9FFE9
:1005100055CFEAFF0900F550E926D8B0EA2AE926C6
:10052000D8B0EA2AEECF56FFEFCF57FF120056CFD2
:10053000E9FF57CFEAFFEECF56FFEFCF57FF12008C
:1005400056CFE9FF57CFEAFF02E8EECF56FFEFCFD5
:1005500057FF120056CFE9FF57CFEAFF04E8EECF6E
:1005600056FFEFCF57FF120056CFE9FF57CFEAFFF4
:1005700006E8EECF56FFEFCF57FF120057CFDDFF53
:1005800056CFDDFF0B0EDA64B3D10FEE53F0090046
:10059000F5500900E95EF550EA5AEDCF57FFEFCF6D
:1005A00056FF56CFE9FF57CFEAFF0900F550E9267D
:1005B000D8B0EA2AE926D8B0EA2AEECF56FFEFCF24
:1005C00057FF120056CFE9FF57CFEAFFDCCFEEFF0F
:1005D000DCCFEFFF010E566F576B120056CFE9FFCD
:1005E00057CFEAFF02E8DCCFEEFFDCCFEFFF010ED2
:1005F000566F576B120056CFE9FF57CFEAFF04E85A
:10060000DCCFEEFFDCCFEFFF010E566F576B120011
:1006100056CFE9FF57CFEAFF06E8DCCFEEFFDCCF8D
:10062000EFFF010E566F576B120056CFE9FF57CF01
:10063000EAFF0900F550E926D8B0EA2AE926D8B041
:10064000EA2ADCCFEEFFDCCFEFFF010E566F576BCF
:10065000120056CFE9FF57CFEAFF576B02E9EE5081
:10066000FE0A05E0D880EF34566F57371200EFCFFF
:1006700056FF56811200DC045625E96E5751DC20E6
:10068000EA6EEECF56FFEFCF57FF1200DC0456257F
:10069000E96E5751DC20EA6EDCCFEEFFDCCFEFFFD6
:1006A000010E566F576B1200D8900232DC3056257F
:1006B000E96E5751DC20EA6E576BD880EF3457371C
:1006C000566F1200D890023201305625E96E57510C
:1006D0000220EA6E04300330EF6E010E566F576B46
:1006E000C4E857CFDDFF56CFDDFF0B0EDA6400D133
:1006F000010E566F576B120057CFDDFF56CFDDFF4F
:100700000B0EDA64F5D0030E566F576B120057CFFD
:10071000DDFF56CFDDFF0B0EDA64EAD0050E566F13
:10072000576B120057CFDDFF56CFDDFF0B0EDA649B
:10073000DFD0070E566F576B120057CFDDFF56CF35
:10074000DDFF0B0EDA64D4D00900F5CF56FF0900A7
:10075000F5CF57FF1200DC505617DC505717120028
:10076000DC505613DC5057131200DC50561BDC5083
:10077000571B56811200D890013207E05691D8904D
:1007800056375737012EFBD75681C2E8D890013231
:1007900006E0D89057335633012EFBD75681C2E876
:1007A000D890013206E0573557335633012EFBD728
:1007B0005681C2E80B0EFA6E0900F534FA361400C1
:1007C000090EFA6E12000B0EFA6E0900F534FA36B5
:1007D0001400090EFA6EC2E80B0EFA6E0900F53429
:1007E000FA361400090EFA6EC4E80B0EFA6E090010
:1007F000F534FA361400090EFA6EC6E80B0EFA6EDE
:100800000900F534FA361400090EFA6EC8E80B0E2A
:10081000FA6E0900F534FA361400090EFA6E090072
:10082000F550D926D8B0DA2AD926D8B0DA2A12005B
:100830000900F5500900F66EF550F76E12005605E6
:100840005711F6E1020EF626D8B0F72A1200560527
:100850005711EEE0020EF626D8B0F72A120056B174
:100860001BD00900F550F626D8B0F72AF626D8B0E6
:10087000F72A56CFE9FF57CFEAFF02E9EF50F626F5
:10088000D8B0F72AF626D8B0F72A0900F5500900A3
:10089000F5CFF7FFF66E12005651F6265751F722A4
:1008A0000900F5500900F66EF5CFF7FF12000FEEC4
:1008B00053F00900F5500900E95EF550EA5A57CFA8
:1008C000EDFF56CFEDFF120057CFDDFF56CFDDFF16
:1008D0000B0EDA640DD00FEE53F00900F55009004D
:1008E000E95EF550EA5AEDCF57FFEFCF56FF120001
:0408F000CDEF09F04F
:1009000035D515D34CD53CD441D446D44BD450D452
:1009100081D46ED476D452D45ED493D59FD50DD3E2
:1009200019D324D387D49CD4A2D4ACD5BCD5CCD5F0
:10093000DCD5ECD5A0D5B0D5C0D5D0D5E0D56AD121
:100940007ED18BD1AED1D5D100D222D23AD258D2DB
:100950007AD298D2B4D28DD0B1D01BD129D134D192
:1009600042D110D11ED129D137D1B5D7ADD70DD6AF
:1009700005D69DD710D306D307D304D311D330D3D4
:100980004DD36ED393D3D3D5DBD5E4D5EDD509D6EE
:10099000B5D318D623D62FD63BD647D6DBD359D6D8
:1009A0006AD674D681D68ED643D749D750D757D773
:1009B000F8D326D042D046D0E5D2FCD604D70CD707
:1009C00014D71CD724D794D69ED6A8D6B2D6BCD6D8
:1009D00088D692D69CD6A6D6B0D6EED3F4D3F8D38A
:1009E000E8D3E9D3E7D3B7D6BBD6BFD6C4D6CED6E5
:1009F000D7D667D471D47AD485D48FD499D4A4D4DB
:100A00000C0EDA6204D0F80ED924D8A071D7DD6AB2
:100A100062CFDDFF55CFDDFF54CFDDFF61CFDDFFBE
:100A200060CFDDFF0900F5500900F5CFDDFFDD6E79
:100A3000D9CF60FFDACF61FF12000350606F04501E
:100A4000616FC8E860056111D8B49CD260CFD9FF4E
:100A500061CFDAFFDCCFF6FFDCCFF7FFDCCF60FF42
:100A6000DCCF61FFDCCF54FFDCCF55FFDCCF62FF72
:100A7000C1E8090003EC0AF0F70EE66EF550E66EE9
:100A8000686F56CF69FF57CF6AFFE1CF56FFE2CFBD
:100A900057FF0900F5CFE6FF0900F5CFE6FF684FE5
:100AA000120069CFE6FF6ACFE6FF684F1200DCCF85
:100AB000E6FFDCCFE6FF682FFAD712000900F50445
:100AC000686F0900F5CF69FF6829682569256A6F95
:100AD000F56E03EC0AF0F70EE66E6A51E66E56CF3D
:100AE0006AFF57CF6BFFE1CF56FFE2CF57FF0900F8
:100AF000F5CFE6FF0900F5CFE6FFE1CFE9FFE2CF52
:100B0000EAFF68516825E126D8B0E22AE126D8B08C
:100B1000E22A69530CE06ACFE6FF6BCFE6FF690774
:100B200006E0DCCFE6FFDCCFE6FF692FFAD757CF30
:100B3000DDFF56CFDDFF0B0EDA64DAD66853D8B48A
:100B400012006C6B6C2BF90EEE6E6C516C25EE6E18
:100B5000E9CF6DFFEACF6EFF0C0EDA6204D0FE0E15
:100B6000D924D8A0C5D66E51EA6EDD6E6D51E96EFE
:100B7000DD6E0900F5CFEEFF0900F5CFEEFF682F1F
:100B8000E1D7120057CFDDFF56CFDDFF0B0EDA6441
:100B9000AFD6FC0E5425566F5551D8A0FF0F576F96
:100BA000120057CFDDFF56CFDDFF0B0EDA64A0D663
:100BB00054CF56FF55CF57FF120057CFDDFF56CF0A
:100BC000DDFF0B0EDA6494D6040E5425566F555192
:100BD000D8B0010F576F120057CFDDFF56CFDDFFA2
:100BE0000B0EDA6485D655CF57FF54CF56FF090058
:100BF000D890F53407E25627D8B0572B5627D8B0EF
:100C0000572B12000008565FD8A05707565FD8A090
:100C1000570712000C0EDA6204D0FA0ED924D8A0BD
:100C200067D6DD6A62CFDDFF55CFDDFF54CFDDFF34
:100C30000900F5500900F5CFDDFFDD6E1200090057
:100C4000F5CF62FF5651E96E546F5751EA6E556FFA
:100C5000EECFF6FFEFCFF7FF12000C0EDA6204D0F2
:100C6000FA0ED924D8A044D686E987EB01F088EBA8
:100C700002F0086A6251076E5451056E5551066EB6
:100C8000F650036EF750046E5651E96E546F57518B
:100C9000EA6E556FEECFF6FFEFCFF7FF010E626FF2
:100CA00012000C0EDA6204D0FA0ED924D8A020D695
:100CB00086E987EB01F088EB02F089EB03F08AEB21
:100CC00004F00A6A6251096E5451076E5551086E5C
:100CD000F650056EF750066E5651E96E546F575137
:100CE000EA6E556FEECFF6FFEFCFF7FF030E626FA0
:100CF00012000C0EDA6204D0FA0ED924D8A0F8D56E
:100D000086E987EB01F088EB02F089EB03F08AEBD0
:100D100004F08BEB05F08CEB06F00C6A62510B6E65
:100D20005451096E55510A6EF650076EF750086E11
:100D30005651E96E546F5751EA6E556FEECFF6FF7C
:100D4000EFCFF7FF050E626F1200D9CFE9FFDACFC0
:100D5000EAFF0900F550D926D8B0DA2A0900D89060
:100D6000F534E926D8B0EA2AF50462276227EDCFE8
:100D7000DDFFEDCFDDFFF52EFAD75651E96E546F4A
:100D80005751EA6E556FEECFF6FFEFCFF7FF120027
:100D9000D9CFE9FFDACFEAFF0900F550D926D8B05C
:100DA000DA2A02E8EDCFDDFFEDCFDDFF5651E96E27
:100DB000546F5751EA6E556FEECFF6FFEFCFF7FF46
:100DC0001200D9CFE9FFDACFEAFF0900F550D926A2
:100DD000D8B0DA2A04E8EDCFDDFFEDCFDDFFEDCFAF
:100DE000DDFFEDCFDDFF5651E96E546F5751EA6ECE
:100DF000556FEECFF6FFEFCFF7FF020E622712001E
:100E0000D9CFE9FFDACFEAFF0900F550D926D8B0EB
:100E1000DA2A06E8EDCFDDFFEDCFDDFFEDCFDDFF18
:100E2000EDCFDDFFEDCFDDFFEDCFDDFF5651E96EFC
:100E3000546F5751EA6E556FEECFF6FFEFCFF7FFC5
:100E4000040E622712000900F550D926D8B0DA2A1C
:100E5000624D0DD0020E625F5651E96E546F5751CC
:100E6000EA6E556FEECFF6FFEFCFF7FF1200DCCF43
:100E7000F6FFDCCFF7FFDCCF54FFDCCF55FFDCCF34
:100E800062FFC1E854CFE9FF55CFEAFF02E8EECF99
:100E900054FFEFCF55FF04E9EE50FE0FD8B4120017
:100EA000686FD89068356227E926D8B0EA2A03E847
:100EB000EDCFDDFFEDCFDDFF682FFAD7120009007F
:100EC000D890F53462612BD06231030FF56E9BDA56
:100ED000F70EE66EF550E66EE1CF56FFE2CF57FF14
:100EE000F650FD0FE66EF750D8A0FF0FE66E54CF18
:100EF000E6FF55CFE6FF020EF55E06E0DCCFE6FF2B
:100F0000DCCFE6FFF52EFAD7DCCFF6FFDCCFF7FF1C
:100F1000DCCF54FFDCCF55FFDCCF62FFC1E8625F5E
:100F20001200010E56B1030E566F576B1200F9E214
:100F300003EB56FF04EB57FF120024E257CFDDFF0F
:100F400056CFDDFF0B0EDA64D3D40BEB56FF0CEB60
:100F500057FF120057CFDDFF56CFDDFF0B0EDA64CF
:100F6000C7D40DEB56FF0EEB57FF120057CFDDFF36
:100F700056CFDDFF0B0EDA64BBD40FEB56FF10EB40
:100F800057FF12000300FED757CFDDFF56CFDDFF1E
:100F90000B0EDA64ADD4880E566F0F0E576F120029
:100FA000090031DAF5500900F5CFE6FFE66EFD0FD6
:100FB000686FE15056CFE6FF566FE25057CFE6FF1D
:100FC000576FDCCFE6FFDCCFE6FFDCCFE6FFDCCF00
:100FD000E6FFDCCFE6FFDCCFE6FF682FFAD7120092
:100FE0005E51E2620DD0040EE1240AE36DEC0AF0DA
:100FF0005E51E26205D0040EE124D8B0ACEF09F0F6
:101000000900F5CFE6FF010EE66EE15056CFE6FF90
:10101000566FE25057CFE6FF576F12005E51E26203
:101020000DD0060EE1240AE36DEC0AF05E51E26297
:1010300005D0060EE124D8B0ACEF09F00900F5CFD9
:10104000E6FF020EE66EE15056CFE6FF566FE25025
:1010500057CFE6FF576FDCCFE6FFDCCFE6FF12008D
:101060005E51E2620DD0080EE1240AE36DEC0AF055
:101070005E51E26205D0080EE124D8B0ACEF09F071
:101080000900F5CFE6FF030EE66EE15056CFE6FF0E
:10109000566FE25057CFE6FF576FDCCFE6FFDCCF4D
:1010A000E6FFDCCFE6FFDCCFE6FF12000900ABD99C
:1010B000FE0EE66EF5CFE6FF56CFE9FF57CFEAFF0B
:1010C000E1CF56FFE2CF57FFEECFE6FFEECFE6FFD0
:1010D000EECFE6FFEFCFE6FFF542F54E1200DCCF94
:1010E000E9FFDCCFEAFFEECFE6FFEECFE6FFEECF83
:1010F000E6FFEFCFE6FFF52EF2D712005E51E26277
:101100000DD0060EE1240AE36DEC0AF05E51E262B6
:1011100005D0060EE124D8B0ACEF09F00900F55077
:101120005625E96E000E5721EA6EF550E926D8B033
:10113000EA2AFD0EE66E020EE66EE1CF56FFE2CF22
:1011400057FFEECFE6FFEECFE6FFEECFE6FFEFCFA5
:10115000E6FF1200DECFE9FFDECFEAFFEECF68FF49
:10116000EECF69FFEECF6AFFEFCF6BFF56CFE9FFFF
:1011700057CFEAFF0900F5505625E96E000E5721BA
:10118000EA6EF550E926D8B0EA2A68CFEEFF69CFBB
:10119000EEFF6ACFEEFF6BCFEFFF010E566F576B7E
:1011A000120056055711010ED8B4030E566F576B37
:1011B000120013D079D028D0561F571F030E562780
:1011C000D8B0572B1200DC045627DC5057231200EE
:1011D000DC04565FDC50575B1200D89002320132BB
:1011E000D8905731696F56310102F3CF56FFF4CFD3
:1011F00057FF0202F350572769510102F350572756
:10120000D88056375737C2E80234023201320150D3
:10121000021048E057355731696F5631686F6C914D
:1012200069AF05D0681F691F684B692B6C7102AEEE
:1012300005D0011E021E014A022A6C71566B576BC3
:1012400056816A6B6B6B6A83D89001360236025006
:10125000695D08E303E10150685D04E3D8906A37F3
:101260006B37F2D7D890023201320250695D0CE33D
:1012700003E10150685D08E30150685F0250695B5B
:101280006A5156136B515713D8906B336A336AA166
:10129000E9D76CA1C2E8561F571F030E5627D8B0D6
:1012A000572BC2E8B2EF09F002340232013201508A
:1012B0000210F8E05735573356336C9157AF05D0CD
:1012C000561F571F564B572B6C8102AE04D0011E80
:1012D000021E014A022A6A6BD890013602366A2B36
:1012E0000250575D04E3F8E10150565DF5E2D890F5
:1012F000023201320250575D08E303E10150565DAE
:1013000004E30150565F0250575B6A2FF0D7D88034
:10131000563757376CA1C2E8561F571F030E562782
:10132000D8B0572BC2E80900F53414000900F53491
:1013300014000900F53414000900F5341400090004
:10134000F53414000900F53414000900F5341400D4
:101350000900F5341400E7D75C0E566F0F0E576F77
:10136000E8EF09F05E51E2620DD0040EE1240AE3D9
:101370006DEC0AF05E51E26205D0040EE124D8B0B3
:10138000ACEF09F0E66A010EE66EE1CF56FFE2CF60
:1013900057FF0B0EE66EE66A1BD05E51E2620DD07F
:1013A000040EE1240AE36DEC0AF05E51E26205D01E
:1013B000040EE124D8B0ACEF09F0E66A010EE66E47
:1013C000E1CF56FFE2CF57FF110EE66EE66A00D07E
:1013D00060056111D8B4D6D560CFD9FF61CFDAFFEF
:1013E000DCCFF6FFDCCFF7FFDCCF60FFDCCF61FFA7
:1013F000DCCF54FFDCCF55FFDCCF62FF81E8090E64
:10140000FA6EFC6A90D75E51E26009D0FF0FE2628B
:101410001200E150F52406E2F52406E21200E15044
:10142000F52405E2F52403E2020F01E2120055D88B
:101430005E51E26009D0FF0FE2621200E150F52434
:1014400006E2F52406E21200E150F52405E2F52457
:1014500003E2020FD8A01200ACEF09F05651FE0BC8
:1014600019E0F56E03EC0AF0FE0EE66E07D0573178
:10147000563110E0F56E03EC0AF0E66AF550E66EC0
:10148000E1CF56FFE2CF57FF010EE66EE66AF52E7A
:10149000FCD71200880E566F0F0E576F1200E1CF67
:1014A00068FFE2CF69FF56CFE1FF57CFE2FF01EBC4
:1014B000E9FF02EBEAFF02E942E9EECFE6FFEE5078
:1014C00007E041E8EECFE6FFEECFE6FFE82EFAD7E1
:1014D00068CFE1FF69CFE2FF1200E16A5F51FB0FC5
:1014E000E26E5F515ECF5FFF5E6FD950636FE96E52
:1014F000DA50646FEA6E01E801D02BD8540EE9622D
:10150000FCD70F0EEA62F9D724D823D822D8E96A8B
:101510005E51FB0FEA6E10D0FB0EEE6408D0EE5069
:10152000E926D8B0EA2AE926D8B0EA2A05D0EECFD3
:1015300065FF0FD8652FFDD7E950E162EDD7EA507E
:10154000E262EAD763CFD9FF64CFDAFF764B772B1D
:101550001200EE50E8B040D0D96EED50DA6E5F5D0B
:101560003AE3FA0F38E282E9F90E006214D0015032
:10157000676FD95ED8A0DA06D95ED8A0DA060BD894
:10158000675102E9EE26D8B0EF2A01E9EE26D8B07D
:10159000EF2A01E81200015005E10250EE6E0350FF
:1015A000EE6E1200DECFE6FFDF50DE6AE66E666F9B
:1015B000E150DFCFE6FFEE6EDE6EE250DFCFE6FFFA
:1015C000EE6EDE6E660709E0DECFE6FFDECFE6FFF9
:0C15D000662FFAD71200EE52EE52120005
:1015E000F34E44EF31F0F34EFEEF2EF0C2EF07F072
:1015F000F34E70EF31F0F34EFEEF2EF0C2EF07F036
:101600006FEF26F00FEF2FF034EF33F00BEF2FF0EA
:1016100015EF2FF0D3EF32F019EF2FF02EEF33F05C
:1016200037EF33F01BEF33F04DEF26F099EF26F054
:10163000F9EF32F031EF33F013EF2FF0ADEF32F07E
:1016400019EF26F0F3EF25F031EF26F049EF26F001
:1016500011EF2FF0FEEF2EF023EF2AF067EF29F0C5
:1016600017EF2FF009EF2FF02FEF29F054EF29F0AB
:10167000FEEF2EF00DEF2DF0D6EF2BF076EF2BF0E6
:10168000B7EF2BF04EEF27F001EF27F057EF27F0E1
:1016900066EF28F00DEF2FF025EF2EF044EF2EF03F
:1016A00075EF2EF098EF2BF0C5EF2AF0D8EF2AF067
:1016B000F5EF2AF041EF29F043EF32F035EF32F049
:1016C00028EF32F048EF28F02AEF28F03DEF28F01D
:1016D00035EF28F060EF28F054EF28F0FEEF31F0FE
:1016E000545F1F292A0319220B7956F116631E1B1A
:1016F00021001E205E000A7F76FF0A8C4500CB1772
:10170000007F34000A8C1D00101713040054F117D9
:1017100000570F31173C1742174D173C17C517C517
:1017200017C517C517C517C517C517C517C517C5D9
:1017300017066910107F02003224160413040054A7
:10174000F117641010107F02003224160419220EC3
:101750007F020079565C17631E1B2510037F020071
:101760001E205E000A7F76FF0A8C45009417007FDA
:101770002A008C13007D1713020054C017081000B4
:101780001210000D7FA0FF1212001212007F040041
:1017900033241C05007FFAFF8C3900BD1719221075
:1017A0007F04007A56AB17631E1B21011212001230
:1017B00012006C0D001214003402241C05130200E8
:1017C000631E1B251213040054F617007FFAFF8CCA
:1017D0003900EE1719227FFEFF0D7A56E217631EBD
:1017E0001B210110106C0D00113402241605130288
:1017F00000631E1B250C040E0C6C150010706E7F10
:10180000A0FF0E7F020032241204292A0419200BA3
:1018100079561818631E1921001E1E5E000A87756E
:10182000003E18008791003518007F36FF8B0500B9
:101830008918548E1800868B008E185489180087DA
:101840005D005F18008761008918050F0C106C158A
:1018500000706E7FA0FF0F0F7F020032241605007C
:101860008757008918007FAAFF5703711889187DD0
:101870001805690F0F0F7F020032241605640F0F41
:101880000F0F7F020032241605631E19250E192042
:101890007FFEFF0C7A569C18631E19210010101051
:1018A0001033241605292A043500001E1D5E025639
:1018B000E018191D3602001E1D5E045E0656E01873
:1018C0003504001E1D5E0856DA180256D418350677
:1018D00000548719350800548719350A00548719B0
:1018E000191D1E1D5E0256EF18350C00548719197C
:1018F0001D5D0A0F8791002E19057F36FF0A8C05A2
:10190000000919130200545D1900570312191A191E
:101910002219630E0D3323542819030C3405225465
:101920002819630E0D340923130200546119058729
:101930008B005D19057F76FF57034019481954192C
:10194000640D0C3323546119021E1D3405221E1B25
:1019500021546119640D0C340923546119631E1755
:1019600021360E001E1D5E0C567D19045679190095
:101970003610001E1822548419005484190036129F
:10198000001E18221304000A0F0D340B2712292AF7
:1019900002016D3614001E18223616005E04361839
:1019A000000C5E0656B419675700680F0F681034B4
:1019B00003241406351A000C5E0C56C619630E0E6D
:1019C0000E0E33241205640E0E361C000F5E040E3C
:1019D0003402241205292A04000C5E0E361E000D66
:1019E0005E0856F619057F02000F0F362000105EC4
:1019F000100F32241605005D120A8615000C1A67B6
:101A000057001111110E103402241A06067F02002D
:101A10001010362200115E101032241805292A04F5
:101A2000000C5E0E0A5D120A870300391A675B001C
:101A30001111110E1033241A06067F020010103601
:101A40002400115E041032241805292A0502555578
:101A50001A6454591A027F04000A7F08005D140DAD
:101A6000860100691A6354761A03881300751A6791
:101A7000130054761A030A7F6000680D5F1605682C
:101A80007A568B1A675D00690D5F160656951A67C0
:101A90008B0054981A67CB000D0D5F160810000DCF
:101AA0007F02000D5F16671500121000717F600045
:101AB0000D7F04000D5F16671500121000727F6025
:101AC000000D7F06000D5F163526000B5D180F5EBA
:101AD0001A5E04100E6F0E7FFEFF090C7D55221B4F
:101AE000025D120A860100ED1A6354FA1A00881387
:101AF00000F91A67130054FA1A000A7F60000E12E8
:101B000010005F163528000B5D18105E1A5E041475
:101B1000080013040001097F0200140400017A5533
:101B2000E01A63130400022814292A01016D362AE1
:101B3000001E1022362C005E040B5E0E690B332251
:101B40000D0B7F02006E5D140B7FFEFF0B0E340247
:101B5000236C5D000D0D5F161F681B081000107FC1
:101B6000020010103403200701280C292A01352E09
:101B7000000B5E1C56821B005D12861500821B0145
:101B80002804017F02003630000C5E10322608293E
:101B90002A0202559A1B0054A71B027FFEFF0C3637
:101BA00032000D5E1032230A5D120A860100B41B5A
:101BB0006354C11B00881300C01B67130054C11B72
:101BC000000A7F600010105F163534000B5D180EA0
:101BD0005E1A5E04280C292A0303687B56191C0030
:101BE0005D120A860100EC1B6354F91B0088130088
:101BF000F81B67130054F91B000A7F60000F0F5F8A
:101C000016057FFEFF0F7F02000F3636000E5D18AF
:101C1000115E1A5E04322414042808292A02353879
:101C2000000B5E0855621C353A005D1E0B5E1C55AC
:101C3000621C353C000B5E0856491C353E003640A0
:101C4000005E100B5E1C55621C3542000B5E1C567C
:101C5000811C3544003646005E105D1E0B5E085642
:101C6000811C020C0C34F8230A5D206C09000B7FE8
:101C7000F8FF0D1E07230B7FF6FF0D33221E0626ED
:101C80000E010B34FC220A5D200A7FFEFF0C332676
:101C90000E292A01010B5E000A876300AE1C008634
:101CA0007500BB1C027F0200680D1E05270C008416
:101CB0005D00BB1C02680D1E05270C027FFEFF0C99
:101CC00032260A292A02025D200A0C7C56D21C0305
:101CD0002808015D140D56EF1C01680C68121000F5
:101CE00061226741000C0E6F0D0D602454041D67C6
:101CF00041000C0E6F680D6024010C0E6F0C681211
:101D00001000612200280A292A01005D200A0D0D19
:101D1000364800364A00364C00364E003650002C0D
:101D20000E08E4160B18A6188F19D6191E1A4B1A8E
:101D30002A1B6C1B901BD71B1C1C921CC41C081C50
:101D400000687955501D631220005E006C4B007ACC
:101D500056581D63365000216368686912220024BA
:101D60002A04170B7E566F1D3552001B1A260600DB
:101D70001B5E000A875900911D00876100881D00C5
:101D8000877500A01D16280400835B00A01D16287F
:101D90000400834100A01D00865700A01D162804E2
:101DA000017F0200322506005D200A0C364E002C11
:101DB0000103621D630B2508292A010155C41D3545
:101DC0005400280401840300CD1D002804640C7312
:101DD00055DF1D640C770B32220A0B5E0428066463
:101DE0000C770B32220A0B0D5E045E042806292AAA
:101DF000012C0100B91D3556000D7956031E3558CA
:101E000000280602860100151E026D0C0C22365AAF
:101E1000005E102806020C0C260A292A01018715EB
:101E200000271E0055311E6761000C6E0B1A5328E7
:101E3000046761006C15000D726E0B1A5367150074
:101E40000C710B7FFEFF32260800870100591E002F
:101E5000861500591E64549A1E0088EDFF691E0005
:101E600086C900691E65549A1E008839FF791E00D4
:101E700086D107791E66549A1E008831F88B1E00A1
:101E800086214E8B1E670900549A1E0088E1B19787
:101E90001E670B00549A1E670D000A5D140A2C0180
:101EA000011B1E03870100B31E030D7FFEFF0C22E2
:101EB00054F41E3556000E7956E61E675B00680D19
:101EC00053676300690D53676D006A0D53676700C0
:101ED0006B0D536771006C09000D536769006C0B43
:101EE000000D5354F41E675B00680D53036D0D7FA6
:101EF000FEFF0C220128080056001F355C00280256
:101F0000355E00280200870100111F0088FF0119BB
:101F10001F3560003662002504002802292A0202CB
:101F20005D140D680C0F0F6122002808292A01009A
:101F30005D200C5D200A0C6E5D140C680C6811614C
:101F400022010D0C68121000612200280A3564007D
:101F50003666002504006B40005B006A40005B2B86
:101F6000015A1F3966002B01551F3962002B014DA4
:101F70001F3950006701803956002B012D1F394E43
:101F8000002B011D1F394C002B01051F3912012B9D
:101F900001F71E39DC002B01491E3902012B01EF2C
:101FA0001D394A002B01A71D3948002B01081D3996
:101FB000DA0054D01F292A010056C61F010B4340E6
:101FC000000B44322608012804630B3668002606FD
:101FD0002C0100B61F003968002B01C91F3906010A
:101FE00054792000834F002D200083B90028200061
:101FF000861D00322000570E32203220322032203F
:102000003220322032203220142019201E2032208B
:1020100032202320356A002802356C002802356EF4
:10202000002802357000280235720028023574003D
:102030002802005D26564220645D140B680C530094
:102040002804006C09005D146CB900680C5367C962
:10205000000C716C61006E690C536715006C150003
:102060000D71726C61006E6A0C536715000C726C16
:1020700061006E6B0C530028062B01E31F39D6005C
:1020800054AF2263680C5D207FFEFF090C7D55E490
:1020900020010E520A871D00A92000834500CE2092
:1020A0000084B900BE2054CE2000871700B820005D
:1020B000861B00CE2054BE2000861100CE20005D7D
:1020C0002656C8206454CF2067090054CF206513DA
:1020D00002000D6E14040001097F020014040001C7
:1020E0007A55912063130400015D200B7956F3208B
:1020F000012804005D1468140200630D5D207FFE5A
:10210000FF090C7D553122010F520A7FBCFF0A8B5B
:1021100075003721007FFEFF8C7100312167B90007
:10212000101053057F0200140A000110105354C010
:102130002113020054C6210087D9FF432113020056
:1021400054C621007F4400570E6521652165216535
:102150002165216521652165216B218121972165FB
:10216000216521AD2113020054C62167B90010106A
:1021700053057F0200140A0067C50010105354C0B5
:102180002167B900101053057F0200140A0067E9A7
:102190000010105354C02167B900101053057F027E
:1021A00000140A0067DD0010105354C02167B90005
:1021B000101053057F0200140A0067E50010105349
:1021C000130200541A22005D2656D321000F0F532C
:1021D000541A22006CB900101053057F0200140A33
:1021E0000067C9000B716C61006E101053057F020F
:1021F00000140A006715006C15000C71726C610008
:102200006E101053057F0200140A006715000B7250
:102210006C61006E101053130200130200037F0262
:102220000014060001097F0200140400017A55071A
:102230002163130400002806292A04048701006191
:1022400022018701006122040B5D206F0C7D556126
:1022500022038701006122040D5D206F0E7D566907
:1022600022357600366200250C040E0E0E0E612219
:10227000280A292A02018701008B22028701008B8C
:1022800022020B5D206F0C7D56932235780036625A
:10229000002508025D140D680C0F0F61220028084C
:1022A000292A01005D140C0C680D60240028062BFF
:1022B00001A12239D2002B0173223982002B01396E
:1022C00022397C002B01832039CE0067FB03397E45
:1022D0000054AF23292A01015D200A0C446E0C45ED
:1022E0000B7D56EB22010D367A00221FFC220410D2
:1022F00044114368121400367C002009000D4A285E
:1023000008292A0100440B450B7E561323640C3622
:102310007A0022020B0D435F16007F02000C4A2850
:1023200006292A0100450A09543123006A70140065
:1023300000000E0E446E7D552B23357E000B7D561E
:102340005D23357E000E0E446E7C565623357E008E
:10235000140000545D2335800036660021005D14B2
:10236000091F72230644680F6812140043367C006C
:102370002009000E49010E4B280A630B4A2802006F
:1023800044680C43368200270800860300932364C8
:1023900054942300367E000B7D56A223357E0054D4
:1023A000A323000A5D140A0C680D3E040028082BC4
:1023B00001892339BE002B017F2339BA002B017A12
:1023C0002339BC002B012223397A002B0102233947
:1023D000B2002B01D52239B000548024292A0115DE
:1023E0000C5E2856F4236761000C5D2A6E0B1B5FA0
:1023F000160028046761001A0D5E2C5D2A6E0B1B07
:102400005F16150C5E2E0B7FFEFF32260867170045
:102410005D140A3684002C0102DD233586000D5E32
:1024200030563624026C15000C220A6C17006F0B14
:102430000E368200270E3588000D5E32565A24353E
:102440008A006C15000C226C71006C15000E5F1672
:10245000675B00680E5F16022808025D346C150089
:102460000C227FFEFF6C5B000B0E5F16006C1700EA
:102470006F0B0E368200270E358C000B5E3628025D
:10248000358E00398600359000398C003592003940
:1024900084002B017824391C0135940039880035DB
:1024A0009600398A002B010D24391E015453252929
:1024B0002A01150C5E2856C7246761000C5D386E32
:1024C0000B1B5F160028046761001A0D5E3A5D3829
:1024D0006E0B1B5F16150C5E3C0B7FFEFF32260851
:1024E0006729005D140A3698002C0102B024359A41
:1024F000000D5E30560925026C27000C220A6C295B
:10250000006F0B0E368200270E359C000D5E325692
:102510002D25359E006C27000C226C71006C270065
:102520000E5F16675B00680E5F16022808025D3EAC
:102530006C27000C227FFEFF6C5B000B0E5F160009
:102540006C29006F0B0E368200270E35A0000B5E43
:1025500040280235A200399A0035A40039A0003580
:10256000A6003998002B014B2539140135A80039F4
:102570009C0035AA00399E002B01E0243916015435
:10258000C23E00280200092B01822536AC00260637
:10259000006328020036AE0021092B01902536B0D9
:1025A0000036B20036B4006936B600240E06292A79
:1025B000010136B800210B25060036BA00210B3682
:1025C000BC0021002804005D206A700A36BE002588
:1025D00006292A0119170C7E56E12519121E142509
:1025E00006011E15520A834B00F925001E121E0F0C
:1025F00022027F02000C32260A30053404340334F0
:10260000023311111E161E151E0D241809292A0247
:10261000011E101E0E22020B31260A292A03190A56
:10262000562F2602680D221E0E1E0C22543426023E
:102630001E0E0D22030B34FE260C292A0219085601
:102640004D26630C211E0C1E0A22545126190C0C17
:1026500021020B34FD260A292A01190A1E0921012B
:102660000B34FC2608161C1A2606292A02000C1B0D
:10267000211A44221E0C0D0D0D1134FB2B0465266E
:102680001E09241004292A03025D200A0F0F0E32AE
:102690001E081E071E061E051D1C1B1A2C060DD229
:1026A000250E261C263B2658266B26631212001187
:1026B000261A292A06060C210A1010100F36C0000F
:1026C00036C20036C4002C010886266336C4004397
:1026D000211210000C221212000B36C600261829F7
:1026E0002A01011C1B0D1A240C04292A02010B3398
:1026F0002B04E0260D0C0C1E121E0F241004292A98
:102700000119050B1B220C1E060C40001E050E1A9B
:10271000221D1C240E04292A03031E10520A7FC006
:10272000FF0A8C33002D2713020054892700571A03
:1027300064276A276A2764276A276A276A276A271D
:102740006A276A27702764276A27642764276A270D
:102750006427642764276427642764276427642721
:102760006427642713020054912713020054892719
:10277000040E0E321E171E0E2B07FF26107F0200BE
:102780000F0C1E101E0D241604040E0E0E33241200
:1027900004047F02000E0E0E32241204292A0303C1
:1027A0001E0E520A86F900FC2800577CFC28FC28E3
:1027B000FC28FC28FC28FC28FC28FC28FC28FC28F9
:1027C000FC28FC28FC28FC28FC28FC28FC28FC28E9
:1027D000FC28FC28FC28FC28FC28FC28FC28FC28D9
:1027E000FC28FC28FC28FC28FC28FC28FC28A42821
:1027F000FC28FC28FC28AD28FC28FC28FE2AB92847
:10280000FC28FC28B928FC28FC28FC28FC28FC28EB
:10281000FC28FC28FC28FC28FC28FC28FC28FC2898
:10282000FC28FC28FC28FC28FC28FC28FC28FC2888
:10283000E2295829FC28B829B829B829FC28FC28FD
:10284000FC28FC28F929FC288D29FC28FC28FC28D8
:10285000FC280429FC28FC28FC28FC288D29FC28BD
:10286000FC28FC28FC28FC28FC28FC28FC28C5287F
:10287000E22958298D29B829B829B829FC288D2999
:10288000FC28FC28F929FC28F9298D29FC28FC289A
:10289000FC280429E9288D29FC28FC288D29FC28FE
:1028A000FC28FE2A047F02000D1E13260E047F0260
:1028B0000036C8000E1E102710047F020036CA0022
:1028C0000E1E102710020C1E15220D0D1E0D221DAE
:1028D00045210A681E1522117F02000B0E0E1210F0
:1028E000001E0C221E11241804020C1E15220F7F3C
:1028F00002000B0F0F1E0C221E122712000F1E0EBD
:102900001E052710020C1E15220B84E70013290058
:1029100054262935CC000B36CE0021364E00223607
:10292000D000364E00221E0F7F0200117956342946
:1029300000544A2900091F47290812001216001ED8
:102940000F1E0E1E0720071E0622117F02000B110C
:10295000111E0C221E102716020C1E15220B84C7F6
:10296000006C29006936D20022547F2935D4000B2F
:1029700036D60021364E002236D800364E002210C0
:102980007F02000B10101E0C221E102714020C1EBA
:1029900015220A091FA8290810001214001E0F1E74
:1029A0000E1212001E0820091A22107F02000B10BE
:1029B000101E0C221E102714020C1E15220A091FBD
:1029C000D0290810001214001E0F1E0E1E0720072B
:1029D00036DA0022107F02000B10101E0C221E108F
:1029E0002714020C1E15220F7F02000B36DC00217B
:1029F0000F0F1E0C221E102712047F02001E0E5203
:102A00000A7F50FF0A8C4100102A130200545E2AEC
:102A1000005721552A5B2A5B2A5B2A5B2A5B2A5BCB
:102A20002A5B2A5B2A5B2A5B2A5B2A552A5B2A5B84
:102A30002A5B2A5B2A552A5B2A5B2A5B2A5B2A5B74
:102A40002A552A5B2A5B2A5B2A5B2A5B2A552A5B6A
:102A50002A5B2A552A13020054892A130200030D07
:102A60001E15220A091F792A0812001216001E0FCD
:102A70001E0E6CDD001E0820091A22117F02000BB9
:102A800011111E0C221E102716057F02000C7F2834
:102A9000FF0A8C05009D2A13020054D52A00570313
:102AA000A62AC42ACA2A050F1E15220A091FBC2AF3
:102AB000081600111E0F1E0E1E0720071B221302F0
:102AC0000054CF2A13020054D52A63365000211334
:102AD000020054F02A040E1E15220A091FEB2A08D0
:102AE0001400101E0F1E0E1E0720071C22130200CA
:102AF0000B7F02000B11111E0C221E102716020C58
:102B00001E15220F7F02000A1E0E0E1E09230D84C1
:102B1000F700222B000D1E0A2111111E0C221E107F
:102B20002716000D11111E0C221E142716292A012A
:102B3000010B1A221B5E422804292A080136DE00F6
:102B40002B032E2B0A12140012140012140012145C
:102B50000012140012140012100036DE0036E000DD
:102B600036E20036E40036E60036E80036EA0036A3
:102B7000EC0036EE0036C40036F00036F20036F4D3
:102B8000002C0315EB2617279D27077F02006812EC
:102B900010000F2720292A010056A02B00432804EB
:102BA000012804292A010056AD2B0128040136C44E
:102BB00000452506292A01011B520A876100D72BEF
:102BC00000867500F42B027F02000B7FA0FF0D6CC6
:102BD0001500706E32260A00844900F42B0155E777
:102BE0002B633650002508027F02000C1A46213F55
:102BF000001C260A18681C260A292A03030B520AFD
:102C00007FA0FF8C13000D2C04680E260E040D0D02
:102C100036C4002C0104B52B057F02000C7FA0FFF9
:102C20000C2610292A05636C0D005E440B680C5FAE
:102C30004602690C5F46036A0C5F46046B0C5F46F4
:102C4000056C09000C5F46066C0B000C5F46001B10
:102C50001A2612292A04636C0B005E440B680C5F71
:102C60004602690C5F46036A0C5F46046B0C5F46C4
:102C7000056C09000C5F46001B1A2610292A036305
:102C80006C09005E440B680C5F4602690C5F4603EA
:102C90006A0C5F46046B0C5F46001B1A260E292A3D
:102CA00002636B5E440B680C5F4602690C5F46036F
:102CB0006A0C5F46001B1A260C292A01636A5E44CF
:102CC0000B680C5F4602690C5F46001B1A260A63FC
:102CD000695E440B680C5F46001B1A2608170B4000
:102CE000001B7F02001A2606292A01010B1A6F7F9A
:102CF000FEFF1B5F462804292A01180B7E56122D61
:102D0000631D5E440C0B1D2B03E92C1A22001C1BB7
:102D1000260A010B322B04DD2C2804292A01013656
:102D2000C200210A8C0D00392D000D0D36F6002C45
:102D30000104F82C63680C260C0057074A2D4F2D10
:102D4000572D5F2D672D6F2D772D3A0D0D260A0219
:102D50000C2B03CF2C2806020C2B03BA2C280602BE
:102D60000C2B039F2C2806020C2B037D2C2806021B
:102D70000C2B03542C2806020C2B03242C28062988
:102D80002A0101569F2D01440C430B569A2D000D2C
:102D90001A22010D7F020032260C000D1A260C2883
:102DA00004292A01002C0101802D02680C260A004A
:102DB00036F800210A432804292A01007F0200284E
:102DC00004292A02026C53007A56D12D026CFB00B2
:102DD0007A56D82D020B1A22017F02002806292AD2
:102DE000010184C300EB2D6554EC2D640C6CE500EF
:102DF0007956FB2D15457F02001A4B0156072E0010
:102E00001A446E1A4A2806001A436E1A49280663A5
:102E1000686841000A2B02DF2D0A2B02C22D092B04
:102E200001B92D0A0C1036FA002303280A292A02B8
:102E300000563F2E35FC001A36B0002254472E674C
:102E40004B001A36B20022020C1B260A292A010165
:102E50001A36B20022007F02002804005D200A36E4
:102E6000BE00210A2B024D2E0A0C2B032E2E0B0B1B
:102E70001036FA00230236BA00250C292A01190B54
:102E80000C7D568B2E19081E062506011E08520AB7
:102E9000877500A32E0084BF00EF2E027F02006919
:102EA00032260A00874100EF2E007FC0FF571AF438
:102EB0002EEF2EEF2EF42EEF2EEF2EEF2EEF2EEF25
:102EC0002EEF2EE32EF42EEF2EF42EFC2EEF2EFC02
:102ED0002EFC2EFC2EFC2EFC2EFC2EFC2EFC2EFCA2
:102EE0002EFC2E67D3000D0D1E09230C32260A027C
:102EF0000C33260A027F02000C32260A027F0200EF
:102F00000C32260A177FFCFF0B7B56172F001A5E28
:102F1000000B1B223225042802292A0119090C7DE5
:102F200056282F19061D2506011E06520A86FD0089
:102F30005C3000577E5C305C305C305C305C305C18
:102F4000305C305C305C305C305C305C305C305C21
:102F5000305C305C305C305C305C305C305C305C11
:102F6000305C305C305C305C305C305C305C305C01
:102F7000305C305C305C3063305C305C305C3063E3
:102F8000305C305C3031302A315C305C3063305C36
:102F9000305C305C305C305C305C305C305C305CD1
:102FA000305C305C305C305C305C305C305C305CC1
:102FB000305C305C305C305C308D3072305C308442
:102FC00030843084305C305C305C305C309D305C10
:102FD000307B305C305C305C305C3069305C305C65
:102FE000305C305C307B305C305C3069305C305C55
:102FF000305C305C305C3096308D3072307B3084A9
:1030000030843084305C307B305C305C309D305CB0
:10301000309D307B305C305C309630693096307B50
:10302000305C305C307B305C305C303A305C302A75
:1030300031000D0D1E0723332508000D0D1E07233B
:103040000A1E060D1E05230A1E081E062C01030477
:103050002F020B21017FFEFF0F322610000D1E06EE
:103060001C270C027F0200280667E7000D0D1E07D3
:10307000270C67C7000D0D1E07270C67D3000D0D29
:103080001E07270C67CD000D0D1E07270C67850056
:103090000D0D1E07270C000D0D1E07270C027F02C9
:1030A000001E090B7D56B13067D3000E0E1E072798
:1030B0000E001E065E000A7F50FF0A8C4100C630DB
:1030C0001302005414310057210B31113111311109
:1030D00031113111311131113111311131113111E0
:1030E000310B3111311131113111310B31113111DC
:1030F000311131113111310B3111311131113111C6
:103100003111310B31113111310B31130200541DCA
:103110003113020067D3000F0F1E07271067D3007B
:103120000D10101E07231E08260E000D0D1E07276A
:103130000C19070B7B565331001D5E00844B004C6D
:1031400031007F02006834FE22322504007F020035
:10315000322504002802292A02005D207FFEFF0A92
:103160000E0E0E36E60036FE0036EE002C03077C0F
:103170002E1A2F3131630B2163280E0036EE0036F4
:10318000FE00360001270819060B7E5693311905FB
:103190001C2504001E055E000A834B00A531017F3B
:1031A0000200322506017F0200332506180B7E56E9
:1031B000B631171A2504001C5E000A7FB0FF0A8C86
:1031C0000300EF31007F5AFF0A8C0500D43113044D
:1031D0000054FF31005703DD31E331E931130400BE
:1031E00054063213040054FF311304005415320006
:1031F00056F93113020054153213020054063201FD
:103200007F0200312506017F02000B1E05220A7F86
:10321000020031250819070B79562232017F02007E
:103220002804001E061C1B270A292A0100845100BD
:103230003832675300543B3267FB000A0D321D1CC5
:103240001B1A2C02078731AC31040C250C292A04E7
:10325000035D200A0F0E0E2C01042A32060F0C26E5
:1032600012292A041F70320711111136EA002007B3
:103270000B839D007F320183DD007F3200280C67C5
:10328000EB000B5D207FFEFF0C5F1600280C292A47
:1032900001160B7C56D232001A520A835500AE3208
:1032A000001D36B20022020C7F020032260A0256AE
:1032B000C9320243360201211D36B00022017F02CD
:1032C000001C210D440B32260C3504016C15004006
:1032D000005B2804001A520A876100ED32008775EE
:1032E00000E632162804017F0200322506008349D9
:1032F00000F632162804017F02002804001A520A40
:103300007FA0FF8C13000B33012804011A2C01024B
:10331000D432027F02000B2508292A03002B02FC6D
:10332000320C7F02000B210A0F6F7F140036BE00A3
:10333000216C4B000B36B20022000D11102C010441
:103340008F3207360601210D0C220136BA002512F4
:10335000292A0100360801210C5D20680E0D440E5B
:10336000436C4100360A01241206292A05050C790E
:10337000567A3304557A3303280C050C7C5688336F
:10338000050F0F3682002712000C36D200220D5690
:10339000A8331FBF33081200680F12160012160060
:1033A000367C00200954BF331FBF330812001214AB
:1033B00000116F0F121600121600367C0020090053
:1033C000280E292A01155D200C7E56D33300684053
:1033D000002804011A520A876300F733008675003B
:1033E0000534010D1A5D206F7FFEFF0E1A36820034
:1033F000235D484000280600845B000534027F02FC
:10340000006932260A027F02000C32260A002C01D3
:1034100001C333591D34646810225A28046A0B43CF
:1034200079562E3467E700680E360C01270C005BD6
:1034300000633650002504292A02020C0C36C40011
:10344000470521360C01270C292A020001026336A8
:1034500050002508005D20680C360E012708292A37
:1034600002020C0C368200270C007FFEFF36100192
:103470002504292A01010B6E36100125060087015B
:10348000008634002802633650002504292A0300F0
:103490001A5E000A7FC0FF0A8C3300A334130200B7
:1034A000540D3500571ADA34E034E034DA34E034BD
:1034B000E034E034E034E034E034E034E634E03466
:1034C000F134E034E034FC3407350735073507358F
:1034D0000735073507350735073513020054113511
:1034E000130200540D3505690F0F7F0200322414BA
:1034F00004050F690F7F020032241404640F0F0FBC
:103500007F020032241404130200541C35031C25CE
:103510000C040E0E0E7F020032241204031C210C38
:103520001B6F7FFCFF0D1A368200235D480B5D2068
:103530000B0B7B56B83507569235055592356761AA
:10354000000C36D20022680E5E000A8357007035E8
:1035500000835B006C351F693505101210006F1079
:1035600068121600367C00200901281400547135B9
:10357000000A680E5F161F8F35067FFEFF111212BC
:10358000006F7F02001169121800367C00200902CA
:1035900028166741000C36D200221056A23563541B
:1035A000A535010D6F091FB535050E1068121600FF
:1035B000367C002009012814022810292A01359A96
:1035C000000C5E4A56DA35011B43210B1A5F1601C7
:1035D0001B44210B7FFEFF322608006C27006F0B77
:1035E0007F02001A368200270A150B5E4C5D380AEE
:1035F000861500FF35006C61006E3612012506004D
:103600006C83006E7FECFF36120125066709000B04
:103610005E4E2802150B5E4C5D380A8615002A3670
:10362000006C61006E3612012506006CC3006E7FCF
:10363000ECFF36120125066709000B5E4E280235A5
:103640009C000B5E32564D366771002802359A0099
:103650000B5E285671366715003698000C5D3E5E8D
:103660003A5D386C21006F726C61006E3612012574
:10367000043598000B5E3A5D386C61006E361201BD
:103680002504359C000B5E32569536359800369EE3
:10369000005E3C2802359A000B5E2856B636670B52
:1036A000005D50369E005E3C3698000C36140121B9
:1036B0005E3C5E5228023598000B5E3C2802150BDA
:1036C0005E4C5D386C61006E3612012504660B5E3F
:1036D0004E280219057FFEFF1C5E000A7F68FF0A64
:1036E0008C05001A37007FD0FF0A8C1500F53613C1
:1036F000040054293700570B0E371437143714378A
:1037000014370E37143714370E3714370E371304A7
:103710000054CC37130400542937008303002637A4
:1037200013020054CC37130200359A001D5E325646
:1037300035371628040087DF0097370086F300B47A
:1037400037007F22FF570A5B37B437B437B437B43A
:1037500037B4377237B437B4378037670F005D50EE
:10376000092B01CD360B2B02BE364000130200544C
:10377000B9372B018236092B013F36400054B93747
:10378000671F005D50092B0137360B2B02143640A2
:103790000013020054B9370084B100B437671F002A
:1037A0005D50092B010C360B2B02E935400013024A
:1037B0000054B93763365000216C29005D140B0B9F
:1037C0002C0102BC35186C27000C260E0156E4377C
:1037D000359A001D5E3056E43718361601211A3628
:1037E0004E002608183616012506292A01005D20FC
:1037F0000A0D0D361801361A012B06D3360A0C0EA7
:103800002C01038D34636868690E241204292A038D
:10381000001A5E000A7FC0FF0A8C330024381302AE
:1038200000548E3800571A5B38613861385B386154
:1038300038613861386138613861386138673861BA
:10384000387238613861387D3888388838883888E7
:103850003888388838883888388838130200549275
:1038600038130200548E3805690F0F7F020032248E
:103870001404050F690F7F020032241404640F0F33
:103880000F7F020032241404130200549D38031CDD
:10389000250C040E0E0E7F020032241204031C219C
:1038A0000C1B6F7FFCFF0D1A368200235D480B5DF9
:1038B000200B0B7B563939075613390555133967D9
:1038C00061000C36D20022680E5E000A835700F1B8
:1038D0003800835B00ED381FEA3805101210006FC6
:1038E0001068121600367C0020090128140054F2DA
:1038F00038000A680E5F161F1039067FFEFF11128E
:1039000012006F7F02001169121800367C00200936
:103910000228166741000C36D20022105623396364
:10392000542639010D6F091F3639050E106812161D
:1039300000367C002009012814022810292A0135AC
:1039400086000C5E4A565B39011B43210B1A5F1639
:10395000011B44210B7FFEFF322608006C15006F0F
:103960000B7F02001A368200270A150B5E545D2A6F
:103970000A8615008039006C61006E36120125063A
:10398000006C83006E7FECFF36120125066709008C
:103990000B5E562802150B5E545D2A0A861500AB95
:1039A00039006C61006E3612012506006CC3006E92
:1039B0007FECFF36120125066709000B5E562802D0
:1039C0003588000B5E3256CE396771002802358685
:1039D000000B5E2856F2396715003684000C5D3402
:1039E0005E2C5D2A6C21006F726C61006E361201D4
:1039F00025043584000B5E2C5D2A6C61006E361246
:103A00000125043588000B5E3256163A358400369F
:103A10008A005E2E28023586000B5E2856373A67EC
:103A20000B005D58368A005E2E3684000C361C0171
:103A3000215E2E5E5A28023584000B5E2E28021568
:103A40000B5E545D2A6C61006E3612012504660B14
:103A50005E56280219057FFEFF1C5E000A7F68FF84
:103A60000A8C05009B3A007FD0FF0A8C1500763A3D
:103A700013040054AA3A00570B8F3A953A953A9599
:103A80003A953A8F3A953A953A8F3A953A8F3A1352
:103A90000400544D3B13040054AA3A00830300A7CA
:103AA0003A130200544D3B1302003586001D5E326E
:103AB00056B63A1628040087DF00183B0086F3004C
:103AC000353B007F22FF570ADC3A353B353B353B1F
:103AD000353B353BF33A353B353B013B670F005DEA
:103AE00058092B014E3A0B2B023F3A4000130200BB
:103AF000543A3B2B01033A092B01C0394000543A98
:103B00003B671F005D58092B01B8390B2B02953913
:103B10004000130200543A3B0084B100353B671F5C
:103B2000005D58092B018D390B2B026A39400013B7
:103B30000200543A3B63365000216C17005D140BB1
:103B40000B2C01023D39186C15000C260E01566530
:103B50003B3586001D5E3056653B18361E01211A26
:103B6000364E00260818361E012506292A01005D5A
:103B7000200A0D0D361801361A012B06543A0A0C8C
:103B80000E2C01030E38636868690E241204292A7A
:103B900003001A5E000A7FC0FF0A8C3300A53B13A6
:103BA0000200540F3C00571ADC3BE23BE23BDC3B9B
:103BB000E23BE23BE23BE23BE23BE23BE23BE83B17
:103BC000E23BF33BE23BE23BFE3B093C093C093C68
:103BD000093C093C093C093C093C093C13020054DE
:103BE000133C130200540F3C05690F0F7F02003293
:103BF000241404050F690F7F020032241404640F9B
:103C00000F0F7F020032241404130200541E3C03E1
:103C10001C250C040E0E0E7F020032241204031C1D
:103C2000210C1B6F7FFEFF0D1A368200235D480BAF
:103C30005D200B0B7B56BA3C0756943C0555943CD3
:103C40006761000C36D20022680E5E000A835700BE
:103C5000723C00835B006E3C1F6B3C051012100031
:103C60006F1068121600367C0020090128140054D9
:103C7000733C000A680E5F161F913C067FFEFF1121
:103C80001212006F7F02001169121800367C0020AA
:103C9000090228166741000C36D200221056A43CB7
:103CA0006354A73C010D6F091FB73C050E10681245
:103CB0001600367C002009012814022810292A0148
:103CC0000156D73C011B43210B1A5F16011B4421EF
:103CD0000B7FFEFF322608006C15006F0B7F020081
:103CE0001A368200270A671F000B730A861500FB2D
:103CF0003C006C61006E3612012506006C83006E7C
:103D00007FECFF36120125066709000B7728026752
:103D10001F000B730A861500243D006C61006E368F
:103D200012012506006CC3006E7FECFF36120125E0
:103D3000066709000B7728023556000B7956453D7A
:103D4000676900280200860100623D6715006C1556
:103D5000000C6D726C25006F726C61006E36120182
:103D600025046715000B726C61006E361201250484
:103D70003556000B79567D3D67CD0C280200860133
:103D800000913D6715000B7FFEFF716C99196E283D
:103D9000026715000B712802670F000B736C61003E
:103DA0006E3612012504660B77280219057FFEFF87
:103DB0001C5E000A7F68FF0A8C0500F23D007FD080
:103DC000FF0A8C1500CD3D13040054013E00570B33
:103DD000E63DEC3DEC3DEC3DEC3DE63DEC3DEC3DA7
:103DE000E63DEC3DE63D13040054843E13040054CC
:103DF000013E00830300FE3D13020054843E130283
:103E0000001855083E1628040087DF00583E00863B
:103E1000F3006C3E007F22FF570A2E3E6C3E6C3E44
:103E20006C3E6C3E6C3E3C3E6C3E6C3E4A3E2B0112
:103E3000A63D092B01983D400054713E2B01703D79
:103E4000092B01383D400054713E2B01313D092BB7
:103E5000010F3D400054713E0084B1006C3E2B01C7
:103E6000083D092B01E63C400054713E633650008A
:103E7000216C17005D140B0B2C0102BE3C186C1555
:103E8000000C260E0156993E18870100993E1836FF
:103E90000201211A364E002608183602012506298D
:103EA0002A01005D200A0D0D361801361A012B0675
:103EB000AB3D0A0C0E2C01038F3B636868690E242E
:103EC0001204352001391A013522013918012B015C
:103ED000A03E39F4002B016C3B39F2002B01EB378B
:103EE00039F0002B017D340939100100130200095B
:103EF0002B017334690B21092B016934092B015FF4
:103F00003409390E0100130200092B0154340A0C44
:103F10000E101210001214003E060039C400130CDB
:103F2000002B014934390C012B01383439EE002BB8
:103F300001303439FE002B010D343908012B016B9F
:103F400033390A012B01513339EC002B011A333973
:103F5000EA002B01623239E8002B014E32390001B0
:103F60002B017B3139E6002B01573139FA002B0147
:103F70005B2E39E4002B010F2E39F8002B01AF2DF9
:103F800039C2002B01A22D39F6002B011C2D39C698
:103F9000002B01FA2B39E2002B01A42B39E0002B76
:103FA00001962B39DE002B013A2B39C0002B01B3CF
:103FB0002639B6002B01C62539B4002B01B92539A5
:103FC000B8002B01AF2539AE002B01942539AC0088
:103FD0002B018525395E01541240292A0100687D94
:103FE00055E83F3524010B7E56F23F3526013662F7
:103FF0000021010B5E5C280400687D5503403524D8
:10400000010B7E560D4035280136620021005D5EB1
:104010002802635D603924012B01F83F3950012BE0
:1040200001DB3F39600154B944292A04040E0E0E05
:104030000E3E0500362A01210A47120B47110C4794
:10404000100D470F0E470E0F470D10470C11470B71
:10405000121000470A1212004709121400470812F2
:104060001600470712180047063E0D00280C1921BC
:10407000435691401921465D62631E225E64001E14
:104080002147045E641921445D661921445D62285C
:10409000021921465D62671F001E225D68731E22A1
:1040A0005E64671F001E2147045D68730A6CE101AE
:1040B0000D73741E2147045E641921445D66192145
:1040C000445D62006CE1016C09000E7673741E2180
:1040D00047045E641921445D661921445D62280429
:1040E000191F4356054167FF011E205E64191F46D4
:1040F0005D66191F445D66191F47045D681E1F44F5
:104100005D6200280467E1011E205D68741E205E68
:1041100064191F465D66191F445D6667E1011E1F35
:1041200047045D68731E1F445D62191F445D66008D
:104130006C09001E1F47045D6877741E1F445D6292
:10414000002806191D455D660034FE2504191B452F
:104150005D620034FD250419194356674167FF016C
:104160001E1A5E6454734167E1011E1A5D68741E75
:104170001A5E641919455D621919465D661919447C
:104180005D66548641636701011E1947045D6873CB
:10419000558541631919445D62191943687956AB15
:1041A000411919445D661919445D62280263312181
:1041B0006434FE25046334FE216534FD250419139F
:1041C0004356E5411913445D6A5D621913455D6A02
:1041D0005D621913465D6A5D626334FD216334FEDE
:1041E00021633125041913445D6A5D621913455D2D
:1041F0006A5D621913465D6A5D626334FD211913BD
:10420000455D621913465D62671F001E145D687389
:104210001E145E64671F001E1347045D68736C41C3
:1042200000741E1347045E641913445D6619134439
:104230005D626334FE2163312504292A0500564658
:10424000420043544742640C564D4202430E5653BB
:1042500042044310565C420643545D42641210000F
:10426000566742081000436834FC21045704764224
:104270007C4282428842670900548B42670D005499
:104280008B42670F00548B42670B0034FB21633471
:10429000FC210257039B42A142A74267110054AA86
:1042A0004267150054AA426717000E55B4426719B9
:1042B0000054B7426711007434FB216334FC2100C1
:1042C000840300CB4267490054CE426741000C840E
:1042D0000300DA4267510054DD426741001E11437A
:1042E00056E94267610054EC42674100747434FB44
:1042F00025186334FB21190F455D6267FF006834A0
:10430000F821730A87A9001443007F58FF6C090045
:1043100040002804008781002343007F80FF6A401B
:10432000002804008729003243007FD8FF6B40003B
:104330002804006940002804292A01007FFCFF0AA4
:104340008C0500494363546143005703524358436B
:104350005E4367810054614367290054614367A944
:10436000001302006834FA21020B6E6C01017434F0
:10437000F925086334F921005581436721005484ED
:104380004367290034F825046334F8210055964327
:1043900067310054994367390034F72504292A030B
:1043A0006334FC216B6C0F000D73766C81007434E8
:1043B000F621673F006C0B000E777334F521673FE1
:1043C000000D7334F521673F006C15000F777334CF
:1043D000F521673F006C0B000F777334F521673FC1
:1043E000000E7334F521673F006C150010777334AD
:1043F000F521673F006C0B0010777334F521673FA0
:10440000000F7334F52100440B4334FD260E008465
:10441000150022446334FB21680B437F020034FC07
:1044200026086334F6210034F42504630B5D207FF5
:10443000FEFF090C7D554B44010D5E003121010941
:104440007F0200140400017A5538446328060036C0
:104450000201213125040047045D6A0A0C2C110277
:104460006E40E04043414D415741AD41B541BE41F1
:104470003B42F2423943734388439E430E442B44EC
:104480004E44020A0C0E10121000121400121800F2
:10449000121C00122000122400122800122C0012FC
:1044A0003000123400123800123C00124000124456
:1044B000001248003E130028282B015644392A01D7
:1044C0002B012A40396401540F4700440B431C223E
:1044D0000A1E07211E08431A432156E344631B2189
:1044E00054EE440056ED44011D2154EE44630B5636
:1044F000FA4403450B40001E05210B1E0621362CF5
:10450000011E0849010E0E4100280C63362E0121C0
:10451000683630012168363201216836340121368F
:1045200036013F000A0C0E10121000363801363AE0
:1045300001363C012B09CA44280C17431A43215663
:10454000464563544D4518431A43210B7A0A565485
:1045500045011B21363E011C49023F001D49002830
:10456000063540013F00683F000A0C364201363CE8
:10457000012B053A45280600440B431B431A4321EF
:104580005687456354A645007FFAFF0C7B56944539
:104590006354A645007F06000C7D56A1456454A6D1
:1045A0004517431A43213644011B49003F001C496B
:1045B0000028083546013F00683F000A0C363C01E0
:1045C0002B047745280616431A432156D2456454D6
:1045D000E64500840700E14517431A43215854E695
:1045E0004517431A43213648011B49003F001C4927
:1045F000002804354A013F00683F000A0C363C01A0
:104600002B04C645280616431A4321561446671D37
:1046100005543B4600840300254617431A43217F77
:10462000FEFF543B4600840500364617431A4321DB
:104630007F0200543B4617431A4321364C011B4965
:10464000003F001C49002804354E013F00683F0030
:104650000A0C363C012B0406462806292A0100567E
:104660006C46015669466628046428040156734660
:10467000652804632804677D016C81005E64677DA2
:10468000006C83005E64666C85005E6454904663D3
:104690006785025D6C558F466787005D686C110009
:1046A0006C89005D687674280267010269365001E2
:1046B000217068365001216E28023552010B7B565D
:1046C000C74635540128023556010B7D56D4463570
:1046D00058012802355A010B6C13086F5D185E10E3
:1046E000365C01365E0126066701020B7268366091
:1046F00001226701020B7169366001226328020002
:1047000056074700432802356201366600250467D4
:1047100007026C07206C07106CC70039520167E56F
:104720000739560167A7205D6667A7105D66673782
:10473000405D666707025D6267FB016C2B005E648B
:104740001F5347646C19406C19086C19046836646F
:10475000012009092B01FF460A3F00393C011302E1
:10476000002B01E8463942012B01BA46092B01A969
:1047700046393A012B017646092B015C463938014E
:104780002B014846392E012B01F3453934012B0109
:10479000B3453930012B0161453932012B010B45FD
:1047A000680E45211FB3476368686868681218007F
:1047B00046200B1FC547636C01706C95036812148B
:1047C00000470820071FD9476701206C11456C0975
:1047D0000069121400470820071FED476701206C8D
:1047E00045116C09006A121400470820071F014890
:1047F0006701806C11456C21006B12140047082082
:10480000071F15486701086C4511696C09001214EF
:1048100000470820073566010E470A21630B21096E
:10482000547948065D6C105D6C680F210A0C0E41CE
:10483000000E210A4456714864691214004705228B
:10484000004312100021121200470A21646A121458
:10485000004705220112100021121200470A210010
:1048600045566C480816005D665471480816005D90
:10487000626759025D6E13080064552348131000E7
:104880008F000200080002000E0016001C00240029
:1048900002002A002E003200380002003E003200E2
:1048A0003200320032003200320032003200380072
:1048B0003200320032003200320044004400020074
:1048C00044003E00020044003E00010001000100DF
:1048D000010001004A003E00010002003E004E00BF
:1048E00056005E0001006C00010001007E008400A3
:1048F0008A00900096009C00A200B0000100010018
:104900000100BE00010001000100010001000100E2
:10491000E000E800F000F8000001010001000100E3
:10492000010001000801140120012C0138010100DF
:10493000010001000100010001000100010001006F
:1049400001000100010001000100440148014C0187
:104950000100500101005401010058010100010053
:10496000010001000100010001000100010001003F
:1049700001000100010001000100010001005C01D3
:104980000100010001006E010100010001000100B1
:10499000010001000100010001000100010001000F
:1049A000010076017A0101007E018E0101009C0167
:1049B0000100010001000100A0010100010001004F
:1049C000A401A8010100AC01B001B401B801BC010F
:1049D000C00101000100C4010100CC01D401DA01D1
:1049E00001000100E2010100EA01FD0200000000F7
:1049F000FD0200000080FC032B696E660001FC02D2
:104A0000696E6600FC032D696E660001FC026E6132
:104A10006E00FC012B00FC012D00FD020000208235
:104A2000FD020000007EFD020000007FFD02002468
:104A30007492FC012E00FC03747275650001FC0386
:104A400066616C736500FC06636861725F6F665F28
:104A5000696E7400FC08696E76616C696420666F2B
:104A6000726D61740001FC025C620001FC025C7406
:104A70000001FC025C6E0001FC025C720001FC02A1
:104A80005C5C0001FC025C270001FC065374726947
:104A90006E672E626C697400FC06537472696E67EF
:104AA0002E7375620001FC104275666665722E6198
:104AB00064643A2063616E6E6F742067726F772052
:104AC0006275666665720001FF03E0150000000074
:104AD000FF03E01501000000FF03E0150A000000DD
:104AE000FF03E01500000080FF03E015FFFFFF7FDC
:104AF000FF05F0150000000000000000FF05F015A4
:104B00000100000000000000FF05F0150A00000091
:104B100000000000FF05F01500000000000000800C
:104B2000FF05F015FFFFFFFFFFFFFF7FFC012500E2
:104B3000FC010001FC012200FC012200FC01270015
:104B4000FC012700FC02255F0001FC057072696E04
:104B500074662E6D6C000003620139031100FC01C4
:104B60002B00FC013000FC07456570726F6D2E77DD
:104B7000726974650001FC06456570726F6D2E7276
:104B800065616400000101000001030000010100F3
:104B90000001030000010100000103000001010009
:104BA000000103000001010000010300FC032B2BA6
:104BB0002E2B0001FC032D2D2E2D0001FD0251B8DE
:104BC0003A82FC0325342E316600FC034E6F6E657D
:104BD0000001FC090133322E350043020A20333232
:104BE0002E3500432000E1CF68FFE2CF69FFD89067
:104BF000023201305625E96E02505721EA6ED890F4
:104C0000063205300324E16E06500420E26ED8908F
:104C10000832073204E0EECFE6FF072EFCD7080685
:104C2000FAE068CFE1FF69CFE2FF010E566F576BE4
:104C3000120056CFE9FF57CFEAFF01E9EE50E9260F
:104C4000D8B0EA2AFF0FE926D8B0EA2A566F576B88
:104C5000D89056375737D88056375737EFA05683F6
:104C60001200D890023201305625E96E02505721C9
:104C7000EA6E06300532D8900432033204E0055063
:104C8000EE6E032EFCD70406FAE0010E566F576B4A
:104C90001200030E566F576B12005731686F563172
:104CA000F56E696F68313F0B76E1F532F52A73E0F6
:104CB00003EC0AF0FC0EE66EF550E66EE1CF56FF0F
:104CC000E2CF57FFFF0FE126D8B0E22AE126D8B0A5
:104CD000E22AE66A000E69A1010EE66E120056CFC6
:104CE000E9FF57CFEAFF01E9D89002320132D890AC
:104CF00002304BE10130EF6448D0010FEE640AD07E
:104D00000150E9260250EA22576BD880EF3457371A
:104D1000566F120001B039D00150E9260250EA2244
:104D200001E8ED5032E1576BD880EF345737566FBA
:104D3000120056CFE9FF57CFEAFF01E9D8900232BF
:104D40000132D890023021E10130EF641ED0010F12
:104D5000EE640BD00150E9260250EA220430033001
:104D6000EF6E010E566F576B120001B00ED001505E
:104D7000E9260250EA2201E8ED5007E10430033051
:104D8000EF6E010E566F576B1200010E566F016EDB
:104D9000576B026AF3D05E51E2620DD0160EE12429
:104DA0000AE36DEC0AF05E51E26205D0160EE124D2
:104DB000D8B0ACEF09F0FC0EE66E070EE66EE1CF60
:104DC00068FFE2CF69FF530EE66E740EE66E720E58
:104DD000E66E690EE66E6E0EE66E670EE66E2E0EDF
:104DE000E66E630EE66E720EE66E650EE66E610EA0
:104DF000E66E740EE66E650EE66E000EE66E17EF5A
:104E000032F0D890573118E1563111E0F56E03ECCD
:104E10000AF0E66AF5CFE6FFE1CF56FFE2CF57FF93
:104E20000150E66E0250E66EF52EFAD71200880E9B
:104E3000566F0F0E576F12005E51E2620DD0140EC6
:104E4000E1240AE36DEC0AF05E51E26205D0140E33
:104E5000E124D8B0ACEF09F0FC0EE66E060EE66E6B
:104E6000E1CF68FFE2CF69FF410EE66E720EE66E9B
:104E7000720EE66E610EE66E790EE66E2E0EE66E30
:104E80006D0EE66E610EE66E6B0EE66E650EE66EFC
:104E9000000EE66E010EE66E17EF32F056CFE9FF18
:104EA00057CFEAFF02E9FE0EEE620AD01DD056CFC0
:104EB000E9FF57CFEAFF02E9FE0EEE6248D0A0D02C
:104EC00056CFE9FF57CFEAFF01E9D890023056E10B
:104ED0000130EE6453D00104E9260250EA22EECFFD
:104EE00056FFEFCF57FF12005E51E2620DD0060E63
:104EF000E1240AE36DEC0AF05E51E26205D0060E91
:104F0000E124D8B0ACEF09F056CFE9FF57CFEAFF64
:104F100001E9025033E10104EE6430D00104E926D6
:104F20000250EA220104E9260250EA22FD0EE66E52
:104F3000020EE66EE1CF56FFE2CF57FFEECFE6FF5F
:104F4000EECFE6FFEECFE6FFEFCFE6FF120056CF43
:104F5000E9FF57CFEAFF01E9D89002300FE10130B5
:104F6000EE640CD00104E9260250EA220350EE6EF2
:104F70000450EF6E010E566F576B12005E51E262E5
:104F80000DD01C0EE1240AE36DEC0AF05E51E262E2
:104F900005D01C0EE124D8B0ACEF09F0FC0EE66E93
:104FA0000A0EE66EE1CF68FFE2CF69FF690EE66E9A
:104FB0006E0EE66E640EE66E650EE66E780EE66EBA
:104FC000200EE66E6F0EE66E750EE66E740EE66EE1
:104FD000200EE66E6F0EE66E660EE66E200EE66E34
:104FE000620EE66E6F0EE66E750EE66E6E0EE66E85
:104FF000640EE66E730EE66E000EE66E17EF32F08C
:1050000003EBE9FF04EBEAFFEECF68FFEECF69FFA9
:10501000EECF6AFFEFCF6BFF56CFE9FF57CFEAFF26
:1050200001E90250ABE10104EE64A8D70104E926CE
:105030000250EA220104E9260250EA2268CFEEFF7C
:1050400069CFEEFF6ACFEEFF6BCFEFFF010E566F19
:10505000576B1200D8805631E96EEA680230013091
:10506000EF6E010E566F576B1200D8805631E96E05
:10507000EA68EF34566F57371200D8805631E96E20
:10508000EA68EF505711EF6E010E566F576B120022
:10509000D8805631E96EEA68571FEF505715EF6E0A
:1050A000010E566F576B1200D8805631E96EEA68D0
:1050B0005751EF14010ED8A4030E566F576B120010
:1050C000120E5661EE0F120F5627120056CFE9FF4F
:1050D00057CFEAFF566B576BEE5079E02D086C9175
:1050E00002E16C81EE50FD080FE1EE506EE07808B1
:1050F0003EE020083CE00A082EE020082CE02D08C5
:1051000014E0200812E01F0F090861E309085FE3BB
:10511000686F56510A0D6851F324566FF4505723A7
:1051200056E6EE5048E0D00FEFD7EE5050E0D00FEB
:10513000E83AE846E8365637573749E6E83656370C
:10514000573745E6E8365637573741E6F80B3FE123
:10515000EE50EDE130D0EE503AE0D00FE832563765
:10516000573735E67F0B33E1EE50F7E124D0EE50B0
:105170002EE0D00F2CE3F60F0AE3F90F28E3FA0F25
:1051800005E3E60F24E3FA0F22E2000F060F0A0FF1
:10519000E83AE836563757371AE6E836563757377B
:1051A00016E6E8365637573712E6E8365637573799
:1051B0000EE6EE50DEE1D880563757376CA112006C
:1051C000561F571F564B572B120056811200010EC7
:1051D000566F576B5E51E2620DD0160EE1240AE362
:1051E0006DEC0AF05E51E26205D0160EE124D8B0F3
:1051F000ACEF09F0FC0EE66E070EE66EE1CF68FF3D
:10520000E2CF69FF690EE66E6E0EE66E740EE66E14
:105210005F0EE66E6F0EE66E660EE66E5F0EE66E73
:10522000730EE66E740EE66E720EE66E690EE66E34
:105230006E0EE66E670EE66E000EE66E000EE66E11
:10524000020EE66EE1CF56FFE2CF57FF050EE66E87
:10525000E66A68CFE6FF69CFE6FFE8EF09F023ECE6
:105260002BF0EE1CE82AE66EEE1CD8B0E82AE66EBB
:10527000EE1CD8B0E82AE66EEF1CD8B0E82AE66E3D
:10528000120048EC2BF0DE50EE24E66EDE50EE20ED
:10529000E66EDE50EE20E66EDF50EF20E66E68CF61
:1052A000D9FF69CFDAFF120048EC2BF0DE50EE5C3C
:1052B000E66EDE50EE58E66EDE50EE58E66EDF50DB
:1052C000EF58E66E68CFD9FF69CFDAFF120001EB25
:1052D000E9FF02EBEAFF02E8EECF6CFFEECF6DFFD5
:1052E000EECF6EFFEF506F6F6E116D116C11D8B471
:1052F000B2EF09F056CFE9FF57CFEAFF02E8EECF51
:1053000068FFEECF69FFEECF6AFFEFCF6BFF5E5114
:10531000E2620DD0080EE1240AE36DEC0AF05E5162
:10532000E26205D0080EE124D8B0ACEF09F0E668DF
:10533000030EE66EE1CF56FFE2CF57FFE00EE66EBA
:10534000150EE66E70916BAF0CD07071681F691FFF
:105350006A1F6B1F682B05E3692B03E36A2B01E3CC
:105360006B2B6FAF0CD070716C1F6D1F6E1F6F1F9A
:105370006C2B05E36D2B03E36E2B01E36F2B716B3D
:10538000726B736B746B636B646B656B666B638161
:10539000D8906C376D376E376F376F516B5D12E396
:1053A0000BE16E516A5D0EE307E16D51695D0AE341
:1053B00003E16C51685D06E3D89063376437653765
:1053C0006637E6D7D8906F336E336D336C336F51D9
:1053D0006B5D1CE30BE16E516A5D18E307E16D51F3
:1053E000695D14E303E16C51685D10E36C51685F23
:1053F0006D51695B6E516A5B6F516B5B63517113E9
:10540000645172136551731366517413D8906633E7
:10541000653364336333D8A0D5D770A10BD0711F27
:10542000721F731F741F712B05E3722B03E3732B21
:1054300001E3742B71CFE6FF72CFE6FF73CFE6FF77
:1054400074CFE6FF120001EBE9FF02EBEAFF02E88E
:10545000EECF6CFFEECF6DFFEECF6EFFEF506F6FB4
:105460006E116D116C11D8B4B2EF09F056CFE9FF8F
:1054700057CFEAFF02E8EECF68FFEECF69FFEECF2D
:105480006AFFEFCF6BFF5E51E2620DD0080EE124A0
:105490000AE36DEC0AF05E51E26205D0080EE124E9
:1054A000D8B0ACEF09F0E668030EE66EE1CF56FF28
:1054B000E2CF57FFE00EE66E150EE66E70916BAF11
:1054C0000CD07071681F691F6A1F6B1F682B05E382
:1054D000692B03E36A2B01E36B2B6FAF0CD0707168
:1054E0006C1F6D1F6E1F6F1F6C2B05E36D2B03E38D
:1054F0006E2B01E36F2B756BD8906C376D376E3761
:105500006F37752B6F516B5D0CE3F6E16E516A5D81
:1055100008E3F2E16D51695D04E3EEE16C51685D11
:10552000EBE2D8906F336E336D336C336F516B5D3C
:1055300014E30BE16E516A5D10E307E16D51695DA3
:105540000CE303E16C51685D08E36C51685F6D51D9
:10555000695B6E516A5B6F516B5B752FE2D770A10F
:105560000BD0681F691F6A1F6B1F682B05E3692B2F
:1055700003E36A2B01E36B2B68CFE6FF69CFE6FFFD
:105580006ACFE6FF6BCFE6FF120048EC2BF0DE504F
:10559000EE14E66EDE50EE14E66EDE50EE14E66EAD
:1055A000DF50EF14E66E68CFD9FF69CFDAFF120043
:1055B00023EC2BF0EECF68FFEECF69FFEECF6AFF52
:1055C000EFCF6BFFD890013207E0D8906B336A338E
:1055D00069336833012EF9D768CFE6FF69CFE6FF5C
:1055E0006ACFE6FF6BCFE6FF120056CF68FF57CFBA
:1055F00069FF5E51E2620DD0080EE1240AE36DEC12
:105600000AF05E51E26205D0080EE124D8B0ACEF9A
:1056100009F0E668030EE66EE1CF56FFE2CF57FFD2
:10562000E00EE66E150EE66E69316831E66E69359C
:1056300005E26931E66EE66AE66A12006931E66EF5
:10564000E668E668120056CF68FF57CF69FF5E51E3
:10565000E2620DD0080EE1240AE36DEC0AF05E511F
:10566000E26205D0080EE124D8B0ACEF09F0E6689C
:10567000030EE66EE1CF56FFE2CF57FFE00EE66E77
:10568000150EE66E68CFE9FF69CFEAFF02E8120067
:1056900056CF68FF57CF69FF5E51E2620DD0080E0A
:1056A000E1240AE36DEC0AF05E51E26205D0080ED7
:1056B000E124D8B0ACEF09F0E668030EE66EE1CF66
:1056C00056FFE2CF57FFE00EE66E150EE66E68CF8E
:1056D000E9FF69CFEAFF02E8D9CF68FFDACF69FFB7
:1056E000015002EBDAFFD96E82E81200ABEC2EF02B
:1056F000EE1CE82AE66EEE1CD8B0E82AE66EEE1C38
:10570000D8B0E82AE66EEE1CD8B0E82AE66EEE1CA9
:10571000D8B0E82AE66EEE1CD8B0E82AE66EEE1C99
:10572000D8B0E82AE66EEF1CD8B0E82AE66E120080
:10573000D0EC2EF0DE50EE24E66EDE50EE20E66E6B
:10574000DE50EE20E66EDE50EE20E66EDE50EE20FD
:10575000E66EDE50EE20E66EDE50EE20E66EDF50A6
:10576000EF20E66E68CFD9FF69CFDAFF1200D0ECE8
:105770002EF0DE50EE5CE66EDE50EE58E66EDE5049
:10578000EE58E66EDE50EE58E66EDE50EE58E66EEF
:10579000DE50EE58E66EDE50EE58E66EDF50EF5803
:1057A000E66E68CFD9FF69CFDAFF120001EBE9FF9F
:1057B00002EBEAFF02E8EE50EE10EE10EE10EE10F3
:1057C000EE10EE10EF10D8B4B2EF09F056CFE9FFAB
:1057D00057CFEAFF02E8EECF68FFEECF69FFEECFCA
:1057E0006AFFEECF6BFFEECF71FFEECF72FFEECF11
:1057F00073FFEFCF74FF5E51E2620DD00C0EE12417
:105800000AE36DEC0AF05E51E26205D00C0EE12471
:10581000D8B0ACEF09F0E668050EE66EE1CF56FFB2
:10582000E2CF57FFF00EE66E150EE66E01EBE9FFD4
:1058300002EBEAFF02E8EECF6CFFEECF6DFFEECF9A
:105840006EFFEECF6FFFEECF63FFEECF64FFEECFC4
:1058500065FFEFCF66FF709174AF18D07071681F4D
:10586000691F6A1F6B1F711F721F731F741F682BC4
:105870000DE3692B0BE36A2B09E36B2B07E3712B19
:1058800005E3722B03E3732B01E3742B66AF18D08F
:1058900070716C1F6D1F6E1F6F1F631F641F651F6C
:1058A000661F6C2B0DE36D2B0BE36E2B09E36F2B47
:1058B00007E3632B05E3642B03E3652B01E3662B0E
:1058C000E66AE66AE66AE66AE66AE66AE66AE76A57
:1058D00047E9F36AF46AF380D8906C376D376E3716
:1058E0006F3763376437653766376651745D22E317
:1058F0001BE16551735D1EE317E16451725D1AE3AC
:1059000013E16351715D16E30FE16F516B5D12E3BB
:105910000BE16E516A5D0EE307E16D51695D0AE3CB
:1059200003E16C51685D06E3D890F336D5E3F3806C
:10593000F42AD2D7D89066336533643363336F3338
:105940006E336D336C336651745D36E31BE1655124
:10595000735D32E317E16451725D2EE313E163512D
:10596000715D2AE30FE16F516B5D26E30BE16E5130
:105970006A5D22E307E16D51695D1EE303E16C514D
:10598000685D1AE36C51685F6D51695B6E516A5BCB
:105990006F516B5B6351715B6451725B6551735BFB
:1059A0006651745BF450E126D8B0E22AF350E71256
:1059B000F450E15ED8A0E206D890F332BBE3F38E58
:1059C000F406F4AEB7D748E870A1120041E9E51E2D
:1059D000E51EE51EE51EE51EE51EE51EE71EE62AA0
:1059E0000EE3E62A0EE3E62A0EE3E62A0EE3E62AB3
:1059F0000EE3E62A0EE3E62A0EE3E62A120047E863
:105A0000120046E8120045E8120044E8120043E89C
:105A1000120042E8120041E8120001EBE9FF02EB3C
:105A2000EAFF02E8EE50EE10EE10EE10EE10EE106F
:105A3000EE10EF10D8B4B2EF09F056CFE9FF57CF10
:105A4000EAFF02E8EECF68FFEECF69FFEECF6AFF14
:105A5000EECF6BFFEECF71FFEECF72FFEECF73FF95
:105A6000EFCF74FF5E51E2620DD00C0EE1240AE329
:105A70006DEC0AF05E51E26205D00C0EE124D8B064
:105A8000ACEF09F0E668050EE66EE1CF56FFE2CF17
:105A900057FFF00EE66E150EE66E01EBE9FF02EB26
:105AA000EAFF02E8EECF6CFFEECF6DFFEECF6EFFA8
:105AB000EECF6FFFEECF63FFEECF64FFEECF65FF5B
:105AC000EFCF66FF709174AF18D07071681F691FB7
:105AD0006A1F6B1F711F721F731F741F682B0DE3EA
:105AE000692B0BE36A2B09E36B2B07E3712B05E3AF
