:020000040000FA
:040000000F010CD010
:040008006DEF0FF099
:080018006DEF0FF000EE00F0A7
:10002000EE6AEE6AEE6AEE6A800EE962F9D70F0EAA
:10003000EA62F6D7060E5E6F0D0E5F6FFB6A090E61
:10004000FA6EF86A10EE00F02FEE53F0800EF66EA6
:100050001C0EF76E06D00900F5500900F5CFDDFF44
:10006000DD6E9A0EF662F7D71C0EF762F4D706D053
:100070000900F5CFE6FF0900F5CFE6FFB60EF66200
:10008000F7D71C0EF762F4D7010E606F586F566FEA
:10009000546F626F5B6F5C6F240EF66E160EF76E18
:1000A00093EF09F00900F5500900566312D0F5509E
:1000B00057630FD00900F5500900F66EF550F76E42
:1000C00012000900F55009005663F4D7F550576344
:1000D000F1D7020EF626D8B0F72A12000900F5CFA4
:1000E00068FF0900800EF5265751800FF55C02E18C
:1000F0005651685DEEE2DED75751800F686F0900F8
:10010000F5CF69FF0900F550800F685D02E1695184
:10011000565DD0E2DED75751800F686F0900F5CFEA
:1001200069FF0900F550800F685D02E16951565D75
:10013000D0E2C0D70900F5CF68FF0900800EF52690
:100140005751800FF55C02E15651685DB3E2C1D7AB
:100150000900F5500900686FF550575DBAE3AAE150
:1001600068515665B6D7A6D70900F5500900686FE3
:10017000F550575D9FE3ADE1685156659BD7A9D710
:1001800091E207EB56FF08EB57FF12009AE209EBEA
:1001900056FF0AEB57FF1200A1E20BEB56FF0CEBE8
:1001A00057FF1200A9E20DEB56FF0EEB57FF1200AE
:1001B000B2E20FEB56FF10EB57FF1200C9E257CF28
:1001C000DDFF56CFDDFF0D0EDA6492D303EB56FF51
:1001D00004EB57FF1200C8E257CFDDFF56CFDDFF1B
:1001E0000D0EDA6485D305EB56FF06EB57FF1200C0
:1001F00050E257CFDDFF56CFDDFF0D0EDA6478D326
:10020000120050E257CFDDFF56CFDDFF0D0EDA644E
:100210006FD312008FE2DACFEAFFD9CFE9FF0900EE
:10022000F5500900E926F550EA22ECCF56FFECCF55
:1002300057FF120057CFDDFF56CFDDFF0D0EDA64FA
:1002400057D3DACFEAFFD9CFE9FF0900F55009000B
:10025000E926F550EA22ECCF56FFECCF57FF12000B
:100260000900F5500900D926F550DA221200DACF3C
:10027000EAFFD9CFE9FF0900F5500900E926F5505A
:10028000EA2256CFECFF57CFECFF010E566F576BAB
:1002900012005751576B025C11E30DE15651016496
:1002A0000DD009D05751576B025C05E307E1565159
:1002B000016401D003D0030E566FC2E8010E566FE1
:1002C000C2E85651566B56815683DC62569357519D
:1002D000DC625693576B12005651566B5681DC62A6
:1002E00056835751DC625683576B12005751800F6B
:1002F000686F576B0250800F685D02E10150565DD8
:10030000DDE2D9D7800E02265751800F576B025C71
:1003100002E15651015CCFE2D1D7800E022657513F
:10032000800F576B025C02E15651015CC7E2C3D7F4
:100330005751800F686F576B0250800F685D02E164
:100340000150565DB8E2BAD70900F55009005627AA
:10035000F5505723120056CFE9FF57CFEAFF0900A7
:10036000F5500900EE26F550EF221200F4E201EB01
:1003700056FF02EB57FF12000150E96E0250EA6E81
:10038000EECF68FFEF50EA6E68CFE9FF5605E92629
:100390005751EA22EECF56FFEECF57FF1200ECE2A4
:1003A00005EB56FF06EB57FF120057CFDDFF56CF88
:1003B000DDFF0D0EDA649CD20900F5CF56FF09006F
:1003C000F5CF57FF01EBE9FF02EBEAFFEECF6BFF42
:1003D000EF506C6FEA6E6BCFE9FF030E686FEFCFE3
:1003E00069FF685169651DD069256A6F6A336A8142
:1003F0006CCFEAFFD8906A35D8B0EA2A6B25E96E4F
:10040000D8B0EA2A01E8ED50575D07E303E1EF5069
:10041000565D03E36ACF68FFE4D7020E6A5D696F39
:10042000E0D76CCFEAFF6891D8906835D8B0EA2A57
:100430006B25E96ED8B0EA2AEECF56FFEFCF57FF13
:100440001200B3E257CFDDFF56CFDDFF0D0EDA64A9
:100450004FD207EB56FF08EB57FF1200B3E257CF1E
:10046000DDFF56CFDDFF0D0EDA6442D209EB56FFF9
:100470000AEB57FF120057CFDDFF56CFDDFF0D0E01
:10048000DA6436D254CFE9FF55CFEAFF02E8EECF67
:1004900056FFEFCF57FF120057CFDDFF56CFDDFFDE
:1004A0000D0EDA6425D254CFE9FF55CFEAFF04E8F8
:1004B000EECF56FFEFCF57FF120057CFDDFF56CFDD
:1004C000DDFF0D0EDA6414D254CFE9FF55CFEAFFF9
:1004D00006E8EECF56FFEFCF57FF120057CFDDFFF4
:1004E00056CFDDFF0D0EDA6403D254CFE9FF55CFAE
:1004F000EAFF08E8EECF56FFEFCF57FF120057CFC5
:10050000DDFF56CFDDFF0D0EDA64F2D154CFE9FFE7
:1005100055CFEAFF0900F550E926D8B0EA2AE926C6
:10052000D8B0EA2AEECF56FFEFCF57FF120056CFD2
:10053000E9FF57CFEAFFEECF56FFEFCF57FF12008C
:1005400056CFE9FF57CFEAFF02E8EECF56FFEFCFD5
:1005500057FF120056CFE9FF57CFEAFF04E8EECF6E
:1005600056FFEFCF57FF120056CFE9FF57CFEAFFF4
:1005700006E8EECF56FFEFCF57FF120057CFDDFF53
:1005800056CFDDFF0D0EDA64B3D10FEE53F0090044
:10059000F5500900E95EF550EA5AEDCF57FFEFCF6D
:1005A00056FF56CFE9FF57CFEAFF0900F550E9267D
:1005B000D8B0EA2AE926D8B0EA2AEECF56FFEFCF24
:1005C00057FF120056CFE9FF57CFEAFFDCCFEEFF0F
:1005D000DCCFEFFF010E566F576B120056CFE9FFCD
:1005E00057CFEAFF02E8DCCFEEFFDCCFEFFF010ED2
:1005F000566F576B120056CFE9FF57CFEAFF04E85A
:10060000DCCFEEFFDCCFEFFF010E566F576B120011
:1006100056CFE9FF57CFEAFF06E8DCCFEEFFDCCF8D
:10062000EFFF010E566F576B120056CFE9FF57CF01
:10063000EAFF0900F550E926D8B0EA2AE926D8B041
:10064000EA2ADCCFEEFFDCCFEFFF010E566F576BCF
:10065000120056CFE9FF57CFEAFF576B02E9EE5081
:10066000FE0A05E0D880EF34566F57371200EFCFFF
:1006700056FF56811200DC045625E96E5751DC20E6
:10068000EA6EEECF56FFEFCF57FF1200DC0456257F
:10069000E96E5751DC20EA6EDCCFEEFFDCCFEFFFD6
:1006A000010E566F576B1200D8900232DC3056257F
:1006B000E96E5751DC20EA6E576BD880EF3457371C
:1006C000566F1200D890023201305625E96E57510C
:1006D0000220EA6E04300330EF6E010E566F576B46
:1006E000C4E857CFDDFF56CFDDFF0D0EDA6400D131
:1006F000010E566F576B120057CFDDFF56CFDDFF4F
:100700000D0EDA64F5D0030E566F576B120057CFFB
:10071000DDFF56CFDDFF0D0EDA64EAD0050E566F11
:10072000576B120057CFDDFF56CFDDFF0D0EDA6499
:10073000DFD0070E566F576B120057CFDDFF56CF35
:10074000DDFF0D0EDA64D4D00900F5CF56FF0900A5
:10075000F5CF57FF1200DC505617DC505717120028
:10076000DC505613DC5057131200DC50561BDC5083
:10077000571B56811200D890013207E05691D8904D
:1007800056375737012EFBD75681C2E8D890013231
:1007900006E0D89057335633012EFBD75681C2E876
:1007A000D890013206E0573557335633012EFBD728
:1007B0005681C2E80B0EFA6E0900F534FA361400C1
:1007C000090EFA6E12000B0EFA6E0900F534FA36B5
:1007D0001400090EFA6EC2E80B0EFA6E0900F53429
:1007E000FA361400090EFA6EC4E80B0EFA6E090010
:1007F000F534FA361400090EFA6EC6E80B0EFA6EDE
:100800000900F534FA361400090EFA6EC8E80B0E2A
:10081000FA6E0900F534FA361400090EFA6E090072
:10082000F550D926D8B0DA2AD926D8B0DA2A12005B
:100830000900F5500900F66EF550F76E12005605E6
:100840005711F6E1020EF626D8B0F72A1200560527
:100850005711EEE0020EF626D8B0F72A120056B174
:100860001BD00900F550F626D8B0F72AF626D8B0E6
:10087000F72A56CFE9FF57CFEAFF02E9EF50F626F5
:10088000D8B0F72AF626D8B0F72A0900F5500900A3
:10089000F5CFF7FFF66E12005651F6265751F722A4
:1008A0000900F5500900F66EF5CFF7FF12000FEEC4
:1008B00053F00900F5500900E95EF550EA5A57CFA8
:1008C000EDFF56CFEDFF120057CFDDFF56CFDDFF16
:1008D0000D0EDA640DD00FEE53F00900F55009004B
:1008E000E95EF550EA5AEDCF57FFEFCF56FF120001
:0408F000CDEF09F04F
:1009000035D515D34CD53CD441D446D44BD450D452
:1009100081D46ED476D452D45ED493D59FD50DD3E2
:1009200019D324D387D49CD4A2D4ACD5BCD5CCD5F0
:10093000DCD5ECD5A0D5B0D5C0D5D0D5E0D56AD121
:100940007ED18BD1AED1D5D100D222D23AD258D2DB
:100950007AD298D2B4D28DD0B1D01BD129D134D192
:1009600042D110D11ED129D137D1B5D7ADD70DD6AF
:1009700005D69DD710D306D307D304D311D330D3D4
:100980004DD36ED393D3D3D5DBD5E4D5EDD509D6EE
:10099000B5D318D623D62FD63BD647D6DBD359D6D8
:1009A0006AD674D681D68ED643D749D750D757D773
:1009B000F8D326D042D046D0E5D2FCD604D70CD707
:1009C00014D71CD724D794D69ED6A8D6B2D6BCD6D8
:1009D00088D692D69CD6A6D6B0D6EED3F4D3F8D38A
:1009E000E8D3E9D3E7D3B7D6BBD6BFD6C4D6CED6E5
:1009F000D7D667D471D47AD485D48FD499D4A4D4DB
:100A00000E0EDA6204D0F80ED924D8A071D7DD6AB0
:100A100062CFDDFF55CFDDFF54CFDDFF61CFDDFFBE
:100A200060CFDDFF0900F5500900F5CFDDFFDD6E79
:100A3000D9CF60FFDACF61FF12000350606F04501E
:100A4000616FC8E860056111D8B49CD260CFD9FF4E
:100A500061CFDAFFDCCFF6FFDCCFF7FFDCCF60FF42
:100A6000DCCF61FFDCCF54FFDCCF55FFDCCF62FF72
:100A7000C1E8090003EC0AF0F70EE66EF550E66EE9
:100A8000686F56CF69FF57CF6AFFE1CF56FFE2CFBD
:100A900057FF0900F5CFE6FF0900F5CFE6FF684FE5
:100AA000120069CFE6FF6ACFE6FF684F1200DCCF85
:100AB000E6FFDCCFE6FF682FFAD712000900F50445
:100AC000686F0900F5CF69FF6829682569256A6F95
:100AD000F56E03EC0AF0F70EE66E6A51E66E56CF3D
:100AE0006AFF57CF6BFFE1CF56FFE2CF57FF0900F8
:100AF000F5CFE6FF0900F5CFE6FFE1CFE9FFE2CF52
:100B0000EAFF68516825E126D8B0E22AE126D8B08C
:100B1000E22A69530CE06ACFE6FF6BCFE6FF690774
:100B200006E0DCCFE6FFDCCFE6FF692FFAD757CF30
:100B3000DDFF56CFDDFF0D0EDA64DAD66853D8B488
:100B400012006C6B6C2BF90EEE6E6C516C25EE6E18
:100B5000E9CF6DFFEACF6EFF0E0EDA6204D0FE0E13
:100B6000D924D8A0C5D66E51EA6EDD6E6D51E96EFE
:100B7000DD6E0900F5CFEEFF0900F5CFEEFF682F1F
:100B8000E1D7120057CFDDFF56CFDDFF0D0EDA643F
:100B9000AFD6FC0E5425566F5551D8A0FF0F576F96
:100BA000120057CFDDFF56CFDDFF0D0EDA64A0D661
:100BB00054CF56FF55CF57FF120057CFDDFF56CF0A
:100BC000DDFF0D0EDA6494D6040E5425566F555190
:100BD000D8B0010F576F120057CFDDFF56CFDDFFA2
:100BE0000D0EDA6485D655CF57FF54CF56FF090056
:100BF000D890F53407E25627D8B0572B5627D8B0EF
:100C0000572B12000008565FD8A05707565FD8A090
:100C1000570712000E0EDA6204D0FA0ED924D8A0BB
:100C200067D6DD6A62CFDDFF55CFDDFF54CFDDFF34
:100C30000900F5500900F5CFDDFFDD6E1200090057
:100C4000F5CF62FF5651E96E546F5751EA6E556FFA
:100C5000EECFF6FFEFCFF7FF12000E0EDA6204D0F0
:100C6000FA0ED924D8A044D686E987EB01F088EBA8
:100C700002F0086A6251076E5451056E5551066EB6
:100C8000F650036EF750046E5651E96E546F57518B
:100C9000EA6E556FEECFF6FFEFCFF7FF010E626FF2
:100CA00012000E0EDA6204D0FA0ED924D8A020D693
:100CB00086E987EB01F088EB02F089EB03F08AEB21
:100CC00004F00A6A6251096E5451076E5551086E5C
:100CD000F650056EF750066E5651E96E546F575137
:100CE000EA6E556FEECFF6FFEFCFF7FF030E626FA0
:100CF00012000E0EDA6204D0FA0ED924D8A0F8D56C
:100D000086E987EB01F088EB02F089EB03F08AEBD0
:100D100004F08BEB05F08CEB06F00C6A62510B6E65
:100D20005451096E55510A6EF650076EF750086E11
:100D30005651E96E546F5751EA6E556FEECFF6FF7C
:100D4000EFCFF7FF050E626F1200D9CFE9FFDACFC0
:100D5000EAFF0900F550D926D8B0DA2A0900D89060
:100D6000F534E926D8B0EA2AF50462276227EDCFE8
:100D7000DDFFEDCFDDFFF52EFAD75651E96E546F4A
:100D80005751EA6E556FEECFF6FFEFCFF7FF120027
:100D9000D9CFE9FFDACFEAFF0900F550D926D8B05C
:100DA000DA2A02E8EDCFDDFFEDCFDDFF5651E96E27
:100DB000546F5751EA6E556FEECFF6FFEFCFF7FF46
:100DC0001200D9CFE9FFDACFEAFF0900F550D926A2
:100DD000D8B0DA2A04E8EDCFDDFFEDCFDDFFEDCFAF
:100DE000DDFFEDCFDDFF5651E96E546F5751EA6ECE
:100DF000556FEECFF6FFEFCFF7FF020E622712001E
:100E0000D9CFE9FFDACFEAFF0900F550D926D8B0EB
:100E1000DA2A06E8EDCFDDFFEDCFDDFFEDCFDDFF18
:100E2000EDCFDDFFEDCFDDFFEDCFDDFF5651E96EFC
:100E3000546F5751EA6E556FEECFF6FFEFCFF7FFC5
:100E4000040E622712000900F550D926D8B0DA2A1C
:100E5000624D0DD0020E625F5651E96E546F5751CC
:100E6000EA6E556FEECFF6FFEFCFF7FF1200DCCF43
:100E7000F6FFDCCFF7FFDCCF54FFDCCF55FFDCCF34
:100E800062FFC1E854CFE9FF55CFEAFF02E8EECF99
:100E900054FFEFCF55FF04E9EE50FE0FD8B4120017
:100EA000686FD89068356227E926D8B0EA2A03E847
:100EB000EDCFDDFFEDCFDDFF682FFAD7120009007F
:100EC000D890F53462612BD06231030FF56E9BDA56
:100ED000F70EE66EF550E66EE1CF56FFE2CF57FF14
:100EE000F650FD0FE66EF750D8A0FF0FE66E54CF18
:100EF000E6FF55CFE6FF020EF55E06E0DCCFE6FF2B
:100F0000DCCFE6FFF52EFAD7DCCFF6FFDCCFF7FF1C
:100F1000DCCF54FFDCCF55FFDCCF62FFC1E8625F5E
:100F20001200010E56B1030E566F576B1200F9E214
:100F300003EB56FF04EB57FF120024E257CFDDFF0F
:100F400056CFDDFF0D0EDA64D3D40BEB56FF0CEB5E
:100F500057FF120057CFDDFF56CFDDFF0D0EDA64CD
:100F6000C7D40DEB56FF0EEB57FF120057CFDDFF36
:100F700056CFDDFF0D0EDA64BBD40FEB56FF10EB3E
:100F800057FF12000300FED757CFDDFF56CFDDFF1E
:100F90000D0EDA64ADD4880E566F0F0E576F120027
:100FA000090031DAF5500900F5CFE6FFE66EFD0FD6
:100FB000686FE15056CFE6FF566FE25057CFE6FF1D
:100FC000576FDCCFE6FFDCCFE6FFDCCFE6FFDCCF00
:100FD000E6FFDCCFE6FFDCCFE6FF682FFAD7120092
:100FE0005E51E2620DD0040EE1240AE36DEC0AF0DA
:100FF0005E51E26205D0040EE124D8B0ACEF09F0F6
:101000000900F5CFE6FF010EE66EE15056CFE6FF90
:10101000566FE25057CFE6FF576F12005E51E26203
:101020000DD0060EE1240AE36DEC0AF05E51E26297
:1010300005D0060EE124D8B0ACEF09F00900F5CFD9
:10104000E6FF020EE66EE15056CFE6FF566FE25025
:1010500057CFE6FF576FDCCFE6FFDCCFE6FF12008D
:101060005E51E2620DD0080EE1240AE36DEC0AF055
:101070005E51E26205D0080EE124D8B0ACEF09F071
:101080000900F5CFE6FF030EE66EE15056CFE6FF0E
:10109000566FE25057CFE6FF576FDCCFE6FFDCCF4D
:1010A000E6FFDCCFE6FFDCCFE6FF12000900ABD99C
:1010B000FE0EE66EF5CFE6FF56CFE9FF57CFEAFF0B
:1010C000E1CF56FFE2CF57FFEECFE6FFEECFE6FFD0
:1010D000EECFE6FFEFCFE6FFF542F54E1200DCCF94
:1010E000E9FFDCCFEAFFEECFE6FFEECFE6FFEECF83
:1010F000E6FFEFCFE6FFF52EF2D712005E51E26277
:101100000DD0060EE1240AE36DEC0AF05E51E262B6
:1011100005D0060EE124D8B0ACEF09F00900F55077
:101120005625E96E000E5721EA6EF550E926D8B033
:10113000EA2AFD0EE66E020EE66EE1CF56FFE2CF22
:1011400057FFEECFE6FFEECFE6FFEECFE6FFEFCFA5
:10115000E6FF1200DECFE9FFDECFEAFFEECF68FF49
:10116000EECF69FFEECF6AFFEFCF6BFF56CFE9FFFF
:1011700057CFEAFF0900F5505625E96E000E5721BA
:10118000EA6EF550E926D8B0EA2A68CFEEFF69CFBB
:10119000EEFF6ACFEEFF6BCFEFFF010E566F576B7E
:1011A000120056055711010ED8B4030E566F576B37
:1011B000120013D079D028D0561F571F030E562780
:1011C000D8B0572B1200DC045627DC5057231200EE
:1011D000DC04565FDC50575B1200D89002320132BB
:1011E000D8905731696F56310102F3CF56FFF4CFD3
:1011F00057FF0202F350572769510102F350572756
:10120000D88056375737C2E80234023201320150D3
:10121000021048E057355731696F5631686F6C914D
:1012200069AF05D0681F691F684B692B6C7102AEEE
:1012300005D0011E021E014A022A6C71566B576BC3
:1012400056816A6B6B6B6A83D89001360236025006
:10125000695D08E303E10150685D04E3D8906A37F3
:101260006B37F2D7D890023201320250695D0CE33D
:1012700003E10150685D08E30150685F0250695B5B
:101280006A5156136B515713D8906B336A336AA166
:10129000E9D76CA1C2E8561F571F030E5627D8B0D6
:1012A000572BC2E8B2EF09F002340232013201508A
:1012B0000210F8E05735573356336C9157AF05D0CD
:1012C000561F571F564B572B6C8102AE04D0011E80
:1012D000021E014A022A6A6BD890013602366A2B36
:1012E0000250575D04E3F8E10150565DF5E2D890F5
:1012F000023201320250575D08E303E10150565DAE
:1013000004E30150565F0250575B6A2FF0D7D88034
:10131000563757376CA1C2E8561F571F030E562782
:10132000D8B0572BC2E80900F53414000900F53491
:1013300014000900F53414000900F5341400090004
:10134000F53414000900F53414000900F5341400D4
:101350000900F5341400E7D75C0E566F0F0E576F77
:10136000E8EF09F05E51E2620DD0040EE1240AE3D9
:101370006DEC0AF05E51E26205D0040EE124D8B0B3
:10138000ACEF09F0E66A010EE66EE1CF56FFE2CF60
:1013900057FF0B0EE66EE66A1BD05E51E2620DD07F
:1013A000040EE1240AE36DEC0AF05E51E26205D01E
:1013B000040EE124D8B0ACEF09F0E66A010EE66E47
:1013C000E1CF56FFE2CF57FF110EE66EE66A00D07E
:1013D00060056111D8B4D6D560CFD9FF61CFDAFFEF
:1013E000DCCFF6FFDCCFF7FFDCCF60FFDCCF61FFA7
:1013F000DCCF54FFDCCF55FFDCCF62FF81E8090E64
:10140000FA6EFC6A90D75E51E26009D0FF0FE2628B
:101410001200E150F52406E2F52406E21200E15044
:10142000F52405E2F52403E2020F01E2120055D88B
:101430005E51E26009D0FF0FE2621200E150F52434
:1014400006E2F52406E21200E150F52405E2F52457
:1014500003E2020FD8A01200ACEF09F05651FE0BC8
:1014600019E0F56E03EC0AF0FE0EE66E07D0573178
:10147000563110E0F56E03EC0AF0E66AF550E66EC0
:10148000E1CF56FFE2CF57FF010EE66EE66AF52E7A
:10149000FCD71200880E566F0F0E576F1200E1CF67
:1014A00068FFE2CF69FF56CFE1FF57CFE2FF01EBC4
:1014B000E9FF02EBEAFF02E942E9EECFE6FFEE5078
:1014C00007E041E8EECFE6FFEECFE6FFE82EFAD7E1
:1014D00068CFE1FF69CFE2FF1200E16A5F51FA0FC6
:1014E000E26E5F515ECF5FFF5E6FD950636FE96E52
:1014F000DA50646FEA6E01E801D02BD8540EE9622D
:10150000FCD70F0EEA62F9D724D823D822D8E96A8B
:101510005E51FA0FEA6E10D0FB0EEE6408D0EE506A
:10152000E926D8B0EA2AE926D8B0EA2A05D0EECFD3
:1015300065FF0FD8652FFDD7E950E162EDD7EA507E
:10154000E262EAD763CFD9FF64CFDAFF764B772B1D
:101550001200EE50E8B040D0D96EED50DA6E5F5D0B
:101560003AE3F90F38E282E9F90E006214D0015033
:10157000676FD95ED8A0DA06D95ED8A0DA060BD894
:10158000675102E9EE26D8B0EF2A01E9EE26D8B07D
:10159000EF2A01E81200015005E10250EE6E0350FF
:1015A000EE6E1200DECFE6FFDF50DE6AE66E666F9B
:1015B000E150DFCFE6FFEE6EDE6EE250DFCFE6FFFA
:1015C000EE6EDE6E660709E0DECFE6FFDECFE6FFF9
:0C15D000662FFAD71200EE52EE52120005
:1016000073EF0EF05BEF0FF03DEF0FF050EF0FF0C8
:1016100048EF0FF067EF0FF05BEF0EF095EF0EF075
:1016200070EF0FF0540917292A01018715003416AD
:1016300000553E166761000C6E0B1A532804676153
:10164000006C15000D726E0B1A536715000C710BB0
:101650007FFEFF322608008701006616008615000F
:1016600066166454A7160088EDFF76160086C9003A
:1016700076166554A716008839FF86160086D107AE
:1016800086166654A716008831F898160086214EF3
:10169000981667090054A7160088E1B1A416670BD5
:1016A0000054A716670D000A5D000A2C01012816D8
:1016B00003870100C016030D7FFEFF0C22540117A3
:1016C0003500000E7956F316675B00680D536763AB
:1016D00000690D53676D006A0D536767006B0D530A
:1016E0006771006C09000D536769006C0B000D53A6
:1016F000540117675B00680D53036D0D7FFEFF0CEF
:1017000022012808006A40005B2B010417391400ED
:101710006701803900002B01561639040054A61BBE
:1017200000360200210A47120B47110C47100D47E3
:101730000F0E470E0F470D10470C11470B121000EC
:10174000470A1212004709121400470812160047F0
:101750000712180047063E0D002804192143567E43
:10176000171921465D02631E225E04001E214704F4
:101770005E041921445D061921445D0228021921E5
:10178000465D02671F001E225D08731E225E04670D
:101790001F001E2147045D08730A6CE1010D73747C
:1017A0001E2147045E041921445D061921445D028F
:1017B000006CE1016C09000E7673741E2147045E13
:1017C000041921445D061921445D022804191F43B0
:1017D00056F21767FF011E205E04191F465D0619A9
:1017E0001F445D06191F47045D081E1F445D02006B
:1017F000280467E1011E205D08741E205E04191F85
:10180000465D06191F445D0667E1011E1F47045D22
:1018100008731E1F445D02191F445D06006C090019
:101820001E1F47045D0877741E1F445D02002806D2
:10183000191D455D060034FE2504191B455D020097
:1018400034FD250419194356541867FF011E1A5E0A
:101850000454601867E1011E1A5D08741E1A5E04C4
:101860001919455D021919465D061919445D06549A
:101870007318636701011E1947045D0873557218D8
:10188000631919445D021919436879569818191992
:10189000445D061919445D0228026331216434FE57
:1018A00025046334FE216534FD250419134356D203
:1018B000181913445D0A5D021913455D0A5D02198A
:1018C00013465D0A5D026334FD216334FE216331FA
:1018D00025041913445D0A5D021913455D0A5D0272
:1018E0001913465D0A5D026334FD211913455D023B
:1018F0001913465D02671F001E145D08731E145EF7
:1019000004671F001E1347045D08736C4100741EBA
:101910001347045E041913445D061913445D026302
:1019200034FE2163312504292A050056331900436A
:10193000543419640C563A1902430E5640190443A4
:10194000105649190643544A196412100056541986
:10195000081000436834FC21045704631969196FA7
:10196000197519670900547819670D0054781967BB
:101970000F00547819670B0034FB216334FC2102FB
:10198000570388198E199419671100549719671510
:10199000005497196717000E55A11967190054A430
:1019A000196711007434FB216334FC2100840300A7
:1019B000B81967490054BB196741000C840300C77C
:1019C0001967510054CA196741001E114356D619B0
:1019D00067610054D919674100747434FB2518639A
:1019E00034FB21190F455D0267FF006834F821734D
:1019F0000A87A900011A007F58FF6C0900400028DF
:101A00000400878100101A007F80FF6A40002804CC
:101A1000008729001F1A007FD8FF6B4000280400B0
:101A20006940002804292A01007FFCFF0A8C050078
:101A3000361A63544E1A0057033F1A451A4B1A6759
:101A40008100544E1A672900544E1A67A9001302E8
:101A5000006834FA21020B6E6C01017434F9250818
:101A60006334F92100556E1A67210054711A6729F1
:101A70000034F825046334F8210055831A673100D7
:101A800054861A67390034F72504292A036334FC85
:101A9000216B6C0F000D73766C81007434F6216736
:101AA0003F006C0B000E777334F521673F000D7318
:101AB00034F521673F006C15000F777334F521670B
:101AC0003F006C0B000F777334F521673F000E73F6
:101AD00034F521673F006C150010777334F52167EA
:101AE0003F006C0B0010777334F521673F000F73D4
:101AF00034F52100440B4334FD260E008415000FFD
:101B00001B6334FB21680B437F020034FC2608630F
:101B100034F6210034F42504630B5D0C7FFEFF09CD
:101B20000C7D55381B010D5E0E312101097F02002D
:101B3000140400017A55251B632806003604002191
:101B40003125040047045D0A0A0C2C11025B17CDF5
:101B50001730183A1844189A18A218AB182819DF29
:101B600019261A601A751A8B1AFB1A181B3B1B02CE
:101B70000A0C0E10121000121400121800121C0091
:101B8000122000122400122800122C001230001221
:101B90003400123800123C00124000124400124877
:101BA000003E130028282B01431B3902002B012083
:101BB0001739160054021C3506004336080043212D
:101BC00056C71B6454D11B350A0043360800432115
:101BD000580A56DB1B350C0054DE1B350E00361040
:101BE0000036060049013F00360A0049000C40005B
:101BF00028060056FA1B004328023512003614004E
:101C00002504636C05206C07086C0510690A0C0E2E
:101C1000101210003E0500130A0036160021092B91
:101C200001F21B0A3F003908001302003518003F7B
:101C300000390600633F00390A002B01B71B0A1365
:101C400002006CA7205D0667A7105D066737405D40
:101C500006630C45211F781C636868686868121465
:101C60000046200B54781C630C4321630B21440C69
:101C7000470A2167E9035D106455671C1304008F50
:101C80000100010001000100010001000200080044
:101C90000E001200010001001A00FC024F4E00016C
:101CA000FC024F46460000010100FC034E6F6E65CA
:101CB00000010001030056CFE9FF57CFEAFF01E919
:101CC000EE50E926D8B0EA2AFF0FE926D8B0EA2A72
:101CD000566F576BD89056375737D8805637573787
:101CE000EFA0568312005731686F5631F56E696F59
:101CF00068313F0B4AE1F532F52A47E003EC0AF080
:101D0000FC0EE66EF550E66EE1CF56FFE2CF57FFD0
:101D1000FF0FE126D8B0E22AE126D8B0E22AE66A2F
:101D2000000E69A1010EE66E120056CFE9FF57CFF3
:101D3000EAFF01E9D89002320132D89002301FE167
:101D40000130EF641CD0010FEE640AD00150E92687
:101D50000250EA22576BD880EF345737566F120083
:101D600001B00DD00150E9260250EA2201E8ED5001
:101D700006E1576BD880EF345737566F1200010ECB
:101D8000566F016E576B026A36D05E51E2620DD01B
:101D9000160EE1240AE36DEC0AF05E51E26205D012
:101DA000160EE124D8B0ACEF09F0FC0EE66E070E7B
:101DB000E66EE1CF68FFE2CF69FF530EE66E740E68
:101DC000E66E720EE66E690EE66E6E0EE66E670EDB
:101DD000E66E2E0EE66E630EE66E720EE66E650E13
:101DE000E66E610EE66E740EE66E650EE66E000E31
:101DF000E66E89EF0FF05E51E2620DD01C0EE12419
:101E00000AE36DEC0AF05E51E26205D01C0EE1249B
:101E1000D8B0ACEF09F0FC0EE66E0A0EE66EE1CF2C
:101E200068FFE2CF69FF690EE66E6E0EE66E640E25
:101E3000E66E650EE66E780EE66E200EE66E6F0EAE
:101E4000E66E750EE66E740EE66E200EE66E6F0E92
:101E5000E66E660EE66E200EE66E620EE66E6F0EA3
:101E6000E66E750EE66E6E0EE66E640EE66E730E30
:101E7000E66E000EE66E89EF0FF0D8805631E96EFF
:101E8000EA6802300130EF6E010E566F576B120098
:101E9000D8805631E96EEA68EF34566F5737120032
:101EA000D8805631E96EEA68EF505711EF6E010E97
:101EB000566F576B1200D8805631E96EEA68571F8B
:101EC000EF505715EF6E010E566F576B1200120E42
:101ED0005661EE0F120F56271200110093EF09F012
:101EE000573516E2573356335651571111E0572BD9
:101EF000EA0E686F0D0E696F682FFED7692FFCD749
:101F0000FA0E686F0D0E696F562F572B572FF4D7A7
:101F10001200000EE66E020EE66EE1CF56FFE2CF33
:101F200057FF070EE66EE66A68CFE6FF69CFE6FF69
:041F3000E8EF09F0DD
:020000040030CA
:0E000000FF09181EFF01C0FF0FC00FE00F40E8
:00000001FF
