:020000040000FA
:040000000F010CD010
:0400080081EF10F084
:0800180081EF10F000EE00F092
:10002000EE6AEE6AEE6AEE6A800EE962F9D70F0EAA
:10003000EA62F6D7050E5E6F0B0E5F6FFB6A090E64
:10004000FA6EF86A10EE00F02FEE53F0120EF66E14
:100050001E0EF76E06D00900F5500900F5CFDDFF42
:10006000DD6E360EF662F7D71E0EF762F4D706D0B5
:100070000900F5CFE6FF0900F5CFE6FF7A0EF6623C
:10008000F7D71E0EF762F4D7010E606F586F566FE8
:10009000546F626F5B6F5C6F2C0EF66E160EF76E10
:1000A00093EF09F00900F5500900566312D0F5509E
:1000B00057630FD00900F5500900F66EF550F76E42
:1000C00012000900F55009005663F4D7F550576344
:1000D000F1D7020EF626D8B0F72A12000900F5CFA4
:1000E00068FF0900800EF5265751800FF55C02E18C
:1000F0005651685DEEE2DED75751800F686F0900F8
:10010000F5CF69FF0900F550800F685D02E1695184
:10011000565DD0E2DED75751800F686F0900F5CFEA
:1001200069FF0900F550800F685D02E16951565D75
:10013000D0E2C0D70900F5CF68FF0900800EF52690
:100140005751800FF55C02E15651685DB3E2C1D7AB
:100150000900F5500900686FF550575DBAE3AAE150
:1001600068515665B6D7A6D70900F5500900686FE3
:10017000F550575D9FE3ADE1685156659BD7A9D710
:1001800091E207EB56FF08EB57FF12009AE209EBEA
:1001900056FF0AEB57FF1200A1E20BEB56FF0CEBE8
:1001A00057FF1200A9E20DEB56FF0EEB57FF1200AE
:1001B000B2E20FEB56FF10EB57FF1200C9E257CF28
:1001C000DDFF56CFDDFF0B0EDA6492D303EB56FF53
:1001D00004EB57FF1200C8E257CFDDFF56CFDDFF1B
:1001E0000B0EDA6485D305EB56FF06EB57FF1200C2
:1001F00050E257CFDDFF56CFDDFF0B0EDA6478D328
:10020000120050E257CFDDFF56CFDDFF0B0EDA6450
:100210006FD312008FE2DACFEAFFD9CFE9FF0900EE
:10022000F5500900E926F550EA22ECCF56FFECCF55
:1002300057FF120057CFDDFF56CFDDFF0B0EDA64FC
:1002400057D3DACFEAFFD9CFE9FF0900F55009000B
:10025000E926F550EA22ECCF56FFECCF57FF12000B
:100260000900F5500900D926F550DA221200DACF3C
:10027000EAFFD9CFE9FF0900F5500900E926F5505A
:10028000EA2256CFECFF57CFECFF010E566F576BAB
:1002900012005751576B025C11E30DE15651016496
:1002A0000DD009D05751576B025C05E307E1565159
:1002B000016401D003D0030E566FC2E8010E566FE1
:1002C000C2E85651566B56815683DC62569357519D
:1002D000DC625693576B12005651566B5681DC62A6
:1002E00056835751DC625683576B12005751800F6B
:1002F000686F576B0250800F685D02E10150565DD8
:10030000DDE2D9D7800E02265751800F576B025C71
:1003100002E15651015CCFE2D1D7800E022657513F
:10032000800F576B025C02E15651015CC7E2C3D7F4
:100330005751800F686F576B0250800F685D02E164
:100340000150565DB8E2BAD70900F55009005627AA
:10035000F5505723120056CFE9FF57CFEAFF0900A7
:10036000F5500900EE26F550EF221200F4E201EB01
:1003700056FF02EB57FF12000150E96E0250EA6E81
:10038000EECF68FFEF50EA6E68CFE9FF5605E92629
:100390005751EA22EECF56FFEECF57FF1200ECE2A4
:1003A00005EB56FF06EB57FF120057CFDDFF56CF88
:1003B000DDFF0B0EDA649CD20900F5CF56FF090071
:1003C000F5CF57FF01EBE9FF02EBEAFFEECF6BFF42
:1003D000EF506C6FEA6E6BCFE9FF030E686FEFCFE3
:1003E00069FF685169651DD069256A6F6A336A8142
:1003F0006CCFEAFFD8906A35D8B0EA2A6B25E96E4F
:10040000D8B0EA2A01E8ED50575D07E303E1EF5069
:10041000565D03E36ACF68FFE4D7020E6A5D696F39
:10042000E0D76CCFEAFF6891D8906835D8B0EA2A57
:100430006B25E96ED8B0EA2AEECF56FFEFCF57FF13
:100440001200B3E257CFDDFF56CFDDFF0B0EDA64AB
:100450004FD207EB56FF08EB57FF1200B3E257CF1E
:10046000DDFF56CFDDFF0B0EDA6442D209EB56FFFB
:100470000AEB57FF120057CFDDFF56CFDDFF0B0E03
:10048000DA6436D254CFE9FF55CFEAFF02E8EECF67
:1004900056FFEFCF57FF120057CFDDFF56CFDDFFDE
:1004A0000B0EDA6425D254CFE9FF55CFEAFF04E8FA
:1004B000EECF56FFEFCF57FF120057CFDDFF56CFDD
:1004C000DDFF0B0EDA6414D254CFE9FF55CFEAFFFB
:1004D00006E8EECF56FFEFCF57FF120057CFDDFFF4
:1004E00056CFDDFF0B0EDA6403D254CFE9FF55CFB0
:1004F000EAFF08E8EECF56FFEFCF57FF120057CFC5
:10050000DDFF56CFDDFF0B0EDA64F2D154CFE9FFE9
:1005100055CFEAFF0900F550E926D8B0EA2AE926C6
:10052000D8B0EA2AEECF56FFEFCF57FF120056CFD2
:10053000E9FF57CFEAFFEECF56FFEFCF57FF12008C
:1005400056CFE9FF57CFEAFF02E8EECF56FFEFCFD5
:1005500057FF120056CFE9FF57CFEAFF04E8EECF6E
:1005600056FFEFCF57FF120056CFE9FF57CFEAFFF4
:1005700006E8EECF56FFEFCF57FF120057CFDDFF53
:1005800056CFDDFF0B0EDA64B3D10FEE53F0090046
:10059000F5500900E95EF550EA5AEDCF57FFEFCF6D
:1005A00056FF56CFE9FF57CFEAFF0900F550E9267D
:1005B000D8B0EA2AE926D8B0EA2AEECF56FFEFCF24
:1005C00057FF120056CFE9FF57CFEAFFDCCFEEFF0F
:1005D000DCCFEFFF010E566F576B120056CFE9FFCD
:1005E00057CFEAFF02E8DCCFEEFFDCCFEFFF010ED2
:1005F000566F576B120056CFE9FF57CFEAFF04E85A
:10060000DCCFEEFFDCCFEFFF010E566F576B120011
:1006100056CFE9FF57CFEAFF06E8DCCFEEFFDCCF8D
:10062000EFFF010E566F576B120056CFE9FF57CF01
:10063000EAFF0900F550E926D8B0EA2AE926D8B041
:10064000EA2ADCCFEEFFDCCFEFFF010E566F576BCF
:10065000120056CFE9FF57CFEAFF576B02E9EE5081
:10066000FE0A05E0D880EF34566F57371200EFCFFF
:1006700056FF56811200DC045625E96E5751DC20E6
:10068000EA6EEECF56FFEFCF57FF1200DC0456257F
:10069000E96E5751DC20EA6EDCCFEEFFDCCFEFFFD6
:1006A000010E566F576B1200D8900232DC3056257F
:1006B000E96E5751DC20EA6E576BD880EF3457371C
:1006C000566F1200D890023201305625E96E57510C
:1006D0000220EA6E04300330EF6E010E566F576B46
:1006E000C4E857CFDDFF56CFDDFF0B0EDA6400D133
:1006F000010E566F576B120057CFDDFF56CFDDFF4F
:100700000B0EDA64F5D0030E566F576B120057CFFD
:10071000DDFF56CFDDFF0B0EDA64EAD0050E566F13
:10072000576B120057CFDDFF56CFDDFF0B0EDA649B
:10073000DFD0070E566F576B120057CFDDFF56CF35
:10074000DDFF0B0EDA64D4D00900F5CF56FF0900A7
:10075000F5CF57FF1200DC505617DC505717120028
:10076000DC505613DC5057131200DC50561BDC5083
:10077000571B56811200D890013207E05691D8904D
:1007800056375737012EFBD75681C2E8D890013231
:1007900006E0D89057335633012EFBD75681C2E876
:1007A000D890013206E0573557335633012EFBD728
:1007B0005681C2E80B0EFA6E0900F534FA361400C1
:1007C000090EFA6E12000B0EFA6E0900F534FA36B5
:1007D0001400090EFA6EC2E80B0EFA6E0900F53429
:1007E000FA361400090EFA6EC4E80B0EFA6E090010
:1007F000F534FA361400090EFA6EC6E80B0EFA6EDE
:100800000900F534FA361400090EFA6EC8E80B0E2A
:10081000FA6E0900F534FA361400090EFA6E090072
:10082000F550D926D8B0DA2AD926D8B0DA2A12005B
:100830000900F5500900F66EF550F76E12005605E6
:100840005711F6E1020EF626D8B0F72A1200560527
:100850005711EEE0020EF626D8B0F72A120056B174
:100860001BD00900F550F626D8B0F72AF626D8B0E6
:10087000F72A56CFE9FF57CFEAFF02E9EF50F626F5
:10088000D8B0F72AF626D8B0F72A0900F5500900A3
:10089000F5CFF7FFF66E12005651F6265751F722A4
:1008A0000900F5500900F66EF5CFF7FF12000FEEC4
:1008B00053F00900F5500900E95EF550EA5A57CFA8
:1008C000EDFF56CFEDFF120057CFDDFF56CFDDFF16
:1008D0000B0EDA640DD00FEE53F00900F55009004D
:1008E000E95EF550EA5AEDCF57FFEFCF56FF120001
:0408F000CDEF09F04F
:1009000035D515D34CD53CD441D446D44BD450D452
:1009100081D46ED476D452D45ED493D59FD50DD3E2
:1009200019D324D387D49CD4A2D4ACD5BCD5CCD5F0
:10093000DCD5ECD5A0D5B0D5C0D5D0D5E0D56AD121
:100940007ED18BD1AED1D5D100D222D23AD258D2DB
:100950007AD298D2B4D28DD0B1D01BD129D134D192
:1009600042D110D11ED129D137D1B5D7ADD70DD6AF
:1009700005D69DD710D306D307D304D311D330D3D4
:100980004DD36ED393D3D3D5DBD5E4D5EDD509D6EE
:10099000B5D318D623D62FD63BD647D6DBD359D6D8
:1009A0006AD674D681D68ED643D749D750D757D773
:1009B000F8D326D042D046D0E5D2FCD604D70CD707
:1009C00014D71CD724D794D69ED6A8D6B2D6BCD6D8
:1009D00088D692D69CD6A6D6B0D6EED3F4D3F8D38A
:1009E000E8D3E9D3E7D3B7D6BBD6BFD6C4D6CED6E5
:1009F000D7D667D471D47AD485D48FD499D4A4D4DB
:100A00000C0EDA6204D0F80ED924D8A071D7DD6AB2
:100A100062CFDDFF55CFDDFF54CFDDFF61CFDDFFBE
:100A200060CFDDFF0900F5500900F5CFDDFFDD6E79
:100A3000D9CF60FFDACF61FF12000350606F04501E
:100A4000616FC8E860056111D8B49CD260CFD9FF4E
:100A500061CFDAFFDCCFF6FFDCCFF7FFDCCF60FF42
:100A6000DCCF61FFDCCF54FFDCCF55FFDCCF62FF72
:100A7000C1E8090003EC0AF0F70EE66EF550E66EE9
:100A8000686F56CF69FF57CF6AFFE1CF56FFE2CFBD
:100A900057FF0900F5CFE6FF0900F5CFE6FF684FE5
:100AA000120069CFE6FF6ACFE6FF684F1200DCCF85
:100AB000E6FFDCCFE6FF682FFAD712000900F50445
:100AC000686F0900F5CF69FF6829682569256A6F95
:100AD000F56E03EC0AF0F70EE66E6A51E66E56CF3D
:100AE0006AFF57CF6BFFE1CF56FFE2CF57FF0900F8
:100AF000F5CFE6FF0900F5CFE6FFE1CFE9FFE2CF52
:100B0000EAFF68516825E126D8B0E22AE126D8B08C
:100B1000E22A69530CE06ACFE6FF6BCFE6FF690774
:100B200006E0DCCFE6FFDCCFE6FF692FFAD757CF30
:100B3000DDFF56CFDDFF0B0EDA64DAD66853D8B48A
:100B400012006C6B6C2BF90EEE6E6C516C25EE6E18
:100B5000E9CF6DFFEACF6EFF0C0EDA6204D0FE0E15
:100B6000D924D8A0C5D66E51EA6EDD6E6D51E96EFE
:100B7000DD6E0900F5CFEEFF0900F5CFEEFF682F1F
:100B8000E1D7120057CFDDFF56CFDDFF0B0EDA6441
:100B9000AFD6FC0E5425566F5551D8A0FF0F576F96
:100BA000120057CFDDFF56CFDDFF0B0EDA64A0D663
:100BB00054CF56FF55CF57FF120057CFDDFF56CF0A
:100BC000DDFF0B0EDA6494D6040E5425566F555192
:100BD000D8B0010F576F120057CFDDFF56CFDDFFA2
:100BE0000B0EDA6485D655CF57FF54CF56FF090058
:100BF000D890F53407E25627D8B0572B5627D8B0EF
:100C0000572B12000008565FD8A05707565FD8A090
:100C1000570712000C0EDA6204D0FA0ED924D8A0BD
:100C200067D6DD6A62CFDDFF55CFDDFF54CFDDFF34
:100C30000900F5500900F5CFDDFFDD6E1200090057
:100C4000F5CF62FF5651E96E546F5751EA6E556FFA
:100C5000EECFF6FFEFCFF7FF12000C0EDA6204D0F2
:100C6000FA0ED924D8A044D686E987EB01F088EBA8
:100C700002F0086A6251076E5451056E5551066EB6
:100C8000F650036EF750046E5651E96E546F57518B
:100C9000EA6E556FEECFF6FFEFCFF7FF010E626FF2
:100CA00012000C0EDA6204D0FA0ED924D8A020D695
:100CB00086E987EB01F088EB02F089EB03F08AEB21
:100CC00004F00A6A6251096E5451076E5551086E5C
:100CD000F650056EF750066E5651E96E546F575137
:100CE000EA6E556FEECFF6FFEFCFF7FF030E626FA0
:100CF00012000C0EDA6204D0FA0ED924D8A0F8D56E
:100D000086E987EB01F088EB02F089EB03F08AEBD0
:100D100004F08BEB05F08CEB06F00C6A62510B6E65
:100D20005451096E55510A6EF650076EF750086E11
:100D30005651E96E546F5751EA6E556FEECFF6FF7C
:100D4000EFCFF7FF050E626F1200D9CFE9FFDACFC0
:100D5000EAFF0900F550D926D8B0DA2A0900D89060
:100D6000F534E926D8B0EA2AF50462276227EDCFE8
:100D7000DDFFEDCFDDFFF52EFAD75651E96E546F4A
:100D80005751EA6E556FEECFF6FFEFCFF7FF120027
:100D9000D9CFE9FFDACFEAFF0900F550D926D8B05C
:100DA000DA2A02E8EDCFDDFFEDCFDDFF5651E96E27
:100DB000546F5751EA6E556FEECFF6FFEFCFF7FF46
:100DC0001200D9CFE9FFDACFEAFF0900F550D926A2
:100DD000D8B0DA2A04E8EDCFDDFFEDCFDDFFEDCFAF
:100DE000DDFFEDCFDDFF5651E96E546F5751EA6ECE
:100DF000556FEECFF6FFEFCFF7FF020E622712001E
:100E0000D9CFE9FFDACFEAFF0900F550D926D8B0EB
:100E1000DA2A06E8EDCFDDFFEDCFDDFFEDCFDDFF18
:100E2000EDCFDDFFEDCFDDFFEDCFDDFF5651E96EFC
:100E3000546F5751EA6E556FEECFF6FFEFCFF7FFC5
:100E4000040E622712000900F550D926D8B0DA2A1C
:100E5000624D0DD0020E625F5651E96E546F5751CC
:100E6000EA6E556FEECFF6FFEFCFF7FF1200DCCF43
:100E7000F6FFDCCFF7FFDCCF54FFDCCF55FFDCCF34
:100E800062FFC1E854CFE9FF55CFEAFF02E8EECF99
:100E900054FFEFCF55FF04E9EE50FE0FD8B4120017
:100EA000686FD89068356227E926D8B0EA2A03E847
:100EB000EDCFDDFFEDCFDDFF682FFAD7120009007F
:100EC000D890F53462612BD06231030FF56E9BDA56
:100ED000F70EE66EF550E66EE1CF56FFE2CF57FF14
:100EE000F650FD0FE66EF750D8A0FF0FE66E54CF18
:100EF000E6FF55CFE6FF020EF55E06E0DCCFE6FF2B
:100F0000DCCFE6FFF52EFAD7DCCFF6FFDCCFF7FF1C
:100F1000DCCF54FFDCCF55FFDCCF62FFC1E8625F5E
:100F20001200010E56B1030E566F576B1200F9E214
:100F300003EB56FF04EB57FF120024E257CFDDFF0F
:100F400056CFDDFF0B0EDA64D3D40BEB56FF0CEB60
:100F500057FF120057CFDDFF56CFDDFF0B0EDA64CF
:100F6000C7D40DEB56FF0EEB57FF120057CFDDFF36
:100F700056CFDDFF0B0EDA64BBD40FEB56FF10EB40
:100F800057FF12000300FED757CFDDFF56CFDDFF1E
:100F90000B0EDA64ADD4880E566F0F0E576F120029
:100FA000090031DAF5500900F5CFE6FFE66EFD0FD6
:100FB000686FE15056CFE6FF566FE25057CFE6FF1D
:100FC000576FDCCFE6FFDCCFE6FFDCCFE6FFDCCF00
:100FD000E6FFDCCFE6FFDCCFE6FF682FFAD7120092
:100FE0005E51E2620DD0040EE1240AE36DEC0AF0DA
:100FF0005E51E26205D0040EE124D8B0ACEF09F0F6
:101000000900F5CFE6FF010EE66EE15056CFE6FF90
:10101000566FE25057CFE6FF576F12005E51E26203
:101020000DD0060EE1240AE36DEC0AF05E51E26297
:1010300005D0060EE124D8B0ACEF09F00900F5CFD9
:10104000E6FF020EE66EE15056CFE6FF566FE25025
:1010500057CFE6FF576FDCCFE6FFDCCFE6FF12008D
:101060005E51E2620DD0080EE1240AE36DEC0AF055
:101070005E51E26205D0080EE124D8B0ACEF09F071
:101080000900F5CFE6FF030EE66EE15056CFE6FF0E
:10109000566FE25057CFE6FF576FDCCFE6FFDCCF4D
:1010A000E6FFDCCFE6FFDCCFE6FF12000900ABD99C
:1010B000FE0EE66EF5CFE6FF56CFE9FF57CFEAFF0B
:1010C000E1CF56FFE2CF57FFEECFE6FFEECFE6FFD0
:1010D000EECFE6FFEFCFE6FFF542F54E1200DCCF94
:1010E000E9FFDCCFEAFFEECFE6FFEECFE6FFEECF83
:1010F000E6FFEFCFE6FFF52EF2D712005E51E26277
:101100000DD0060EE1240AE36DEC0AF05E51E262B6
:1011100005D0060EE124D8B0ACEF09F00900F55077
:101120005625E96E000E5721EA6EF550E926D8B033
:10113000EA2AFD0EE66E020EE66EE1CF56FFE2CF22
:1011400057FFEECFE6FFEECFE6FFEECFE6FFEFCFA5
:10115000E6FF1200DECFE9FFDECFEAFFEECF68FF49
:10116000EECF69FFEECF6AFFEFCF6BFF56CFE9FFFF
:1011700057CFEAFF0900F5505625E96E000E5721BA
:10118000EA6EF550E926D8B0EA2A68CFEEFF69CFBB
:10119000EEFF6ACFEEFF6BCFEFFF010E566F576B7E
:1011A000120056055711010ED8B4030E566F576B37
:1011B000120013D079D028D0561F571F030E562780
:1011C000D8B0572B1200DC045627DC5057231200EE
:1011D000DC04565FDC50575B1200D89002320132BB
:1011E000D8905731696F56310102F3CF56FFF4CFD3
:1011F00057FF0202F350572769510102F350572756
:10120000D88056375737C2E80234023201320150D3
:10121000021048E057355731696F5631686F6C914D
:1012200069AF05D0681F691F684B692B6C7102AEEE
:1012300005D0011E021E014A022A6C71566B576BC3
:1012400056816A6B6B6B6A83D89001360236025006
:10125000695D08E303E10150685D04E3D8906A37F3
:101260006B37F2D7D890023201320250695D0CE33D
:1012700003E10150685D08E30150685F0250695B5B
:101280006A5156136B515713D8906B336A336AA166
:10129000E9D76CA1C2E8561F571F030E5627D8B0D6
:1012A000572BC2E8B2EF09F002340232013201508A
:1012B0000210F8E05735573356336C9157AF05D0CD
:1012C000561F571F564B572B6C8102AE04D0011E80
:1012D000021E014A022A6A6BD890013602366A2B36
:1012E0000250575D04E3F8E10150565DF5E2D890F5
:1012F000023201320250575D08E303E10150565DAE
:1013000004E30150565F0250575B6A2FF0D7D88034
:10131000563757376CA1C2E8561F571F030E562782
:10132000D8B0572BC2E80900F53414000900F53491
:1013300014000900F53414000900F5341400090004
:10134000F53414000900F53414000900F5341400D4
:101350000900F5341400E7D75C0E566F0F0E576F77
:10136000E8EF09F05E51E2620DD0040EE1240AE3D9
:101370006DEC0AF05E51E26205D0040EE124D8B0B3
:10138000ACEF09F0E66A010EE66EE1CF56FFE2CF60
:1013900057FF0B0EE66EE66A1BD05E51E2620DD07F
:1013A000040EE1240AE36DEC0AF05E51E26205D01E
:1013B000040EE124D8B0ACEF09F0E66A010EE66E47
:1013C000E1CF56FFE2CF57FF110EE66EE66A00D07E
:1013D00060056111D8B4D6D560CFD9FF61CFDAFFEF
:1013E000DCCFF6FFDCCFF7FFDCCF60FFDCCF61FFA7
:1013F000DCCF54FFDCCF55FFDCCF62FF81E8090E64
:10140000FA6EFC6A90D75E51E26009D0FF0FE2628B
:101410001200E150F52406E2F52406E21200E15044
:10142000F52405E2F52403E2020F01E2120055D88B
:101430005E51E26009D0FF0FE2621200E150F52434
:1014400006E2F52406E21200E150F52405E2F52457
:1014500003E2020FD8A01200ACEF09F05651FE0BC8
:1014600019E0F56E03EC0AF0FE0EE66E07D0573178
:10147000563110E0F56E03EC0AF0E66AF550E66EC0
:10148000E1CF56FFE2CF57FF010EE66EE66AF52E7A
:10149000FCD71200880E566F0F0E576F1200E1CF67
:1014A00068FFE2CF69FF56CFE1FF57CFE2FF01EBC4
:1014B000E9FF02EBEAFF02E942E9EECFE6FFEE5078
:1014C00007E041E8EECFE6FFEECFE6FFE82EFAD7E1
:1014D00068CFE1FF69CFE2FF1200E16A5F51FB0FC5
:1014E000E26E5F515ECF5FFF5E6FD950636FE96E52
:1014F000DA50646FEA6E01E801D02BD8540EE9622D
:10150000FCD70F0EEA62F9D724D823D822D8E96A8B
:101510005E51FB0FEA6E10D0FB0EEE6408D0EE5069
:10152000E926D8B0EA2AE926D8B0EA2A05D0EECFD3
:1015300065FF0FD8652FFDD7E950E162EDD7EA507E
:10154000E262EAD763CFD9FF64CFDAFF764B772B1D
:101550001200EE50E8B040D0D96EED50DA6E5F5D0B
:101560003AE3FA0F38E282E9F90E006214D0015032
:10157000676FD95ED8A0DA06D95ED8A0DA060BD894
:10158000675102E9EE26D8B0EF2A01E9EE26D8B07D
:10159000EF2A01E81200015005E10250EE6E0350FF
:1015A000EE6E1200DECFE6FFDF50DE6AE66E666F9B
:1015B000E150DFCFE6FFEE6EDE6EE250DFCFE6FFFA
:1015C000EE6EDE6E660709E0DECFE6FFDECFE6FFF9
:0C15D000662FFAD71200EE52EE52120005
:101600007BEF0FF063EF0FF03DEF0FF063EF10F0A3
:1016100045EF10F058EF10F050EF10F07BEF10F0A6
:101620009DEF0FF06FEF10F084EF10F05432172998
:101630002A01018715003C16005546166761000C0B
:101640006E0B1A5328046761006C15000D726E0B47
:101650001A536715000C710B7FFEFF3226080087B6
:1016600001006E16008615006E166454AF160088D1
:10167000EDFF7E160086C9007E166554AF16008801
:1016800039FF8E160086D1078E166654AF16008875
:1016900031F8A0160086214EA01667090054AF1637
:1016A0000088E1B1AC16670B0054AF16670D000A55
:1016B0005D000A2C0101301603870100C816030DD6
:1016C0007FFEFF0C225409173500000E7956FB16D9
:1016D000675B00680D53676300690D53676D006AAF
:1016E0000D536767006B0D536771006C09000D5354
:1016F0006769006C0B000D53540917675B00680D98
:1017000053036D0D7FFEFF0C22012808292A0100DA
:101710005D020C5D020A0C6E5D000C680C681161C4
:1017200004010D0C68121000610400280A006A40D0
:10173000005B2B012D17391C006701803900002B3D
:10174000010D173922002B015E1639040054E01BED
:10175000292A04040E0E0E0E3E0500360200210A50
:1017600047120B47110C47100D470F0E470E0F473E
:101770000D10470C11470B121000470A12120047B8
:1017800009121400470812160047071218004706EE
:101790003E0D00280C19214356B8171921465D0645
:1017A000631E225E08001E2147045E081921445D65
:1017B0000A1921445D0628021921465D06671F00AB
:1017C0001E225D0C731E225E08671F001E21470447
:1017D0005D0C730A6CE1010D73741E2147045E08F1
:1017E0001921445D0A1921445D06006CE1016C0970
:1017F000000E7673741E2147045E081921445D0AA9
:101800001921445D062804191F43562C1867FF014F
:101810001E205E08191F465D0A191F445D0A191F24
:1018200047045D0C1E1F445D0600280467E1011E8D
:10183000205D0C741E205E08191F465D0A191F44A6
:101840005D0A67E1011E1F47045D0C731E1F445DA6
:1018500006191F445D0A006C09001E1F47045D0C39
:1018600077741E1F445D06002806191D455D0A0099
:1018700034FE2504191B455D060034FD25041919A5
:1018800043568E1867FF011E1A5E08549A1867E1C6
:10189000011E1A5D0C741E1A5E081919455D0619A1
:1018A00019465D0A1919445D0A54AD1863670101B0
:1018B0001E1947045D0C7355AC18631919445D0675
:1018C000191943687956D2181919445D0A1919442F
:1018D0005D0628026331216434FE25046334FE2151
:1018E0006534FD2504191343560C191913445D0E74
:1018F0005D061913455D0E5D061913465D0E5D0606
:101900006334FD216334FE21633125041913445DE2
:101910000E5D061913455D0E5D061913465D0E5DDD
:10192000066334FD211913455D061913465D0667EC
:101930001F001E145D0C731E145E08671F001E132B
:1019400047045D0C736C4100741E1347045E081954
:1019500013445D0A1913445D066334FE2163312587
:1019600004292A0500566D190043546E19640C565B
:10197000741902430E567A1904431056831906430C
:1019800054841964121000568E19081000436834EC
:10199000FC210457049D19A319A919AF196709005F
:1019A00054B219670D0054B219670F0054B2196789
:1019B0000B0034FB216334FC21025703C219C81900
:1019C000CE1967110054D11967150054D119671742
:1019D000000E55DB1967190054DE196711007434C5
:1019E000FB216334FC2100840300F2196749005491
:1019F000F5196741000C840300011A675100540473
:101A00001A6741001E114356101A67610054131AD9
:101A1000674100747434FB25186334FB21190F45AA
:101A20005D0667FF006834F821730A87A9003B1A36
:101A3000007F58FF6C090040002804008781004A9D
:101A40001A007F80FF6A4000280400872900591A85
:101A5000007FD8FF6B40002804006940002804295B
:101A60002A01007FFCFF0A8C0500701A6354881A53
:101A7000005703791A7F1A851A67810054881A67FC
:101A8000290054881A67A9001302006834FA210259
:101A90000B6E6C01017434F925086334F92100558B
:101AA000A81A67210054AB1A67290034F82504638B
:101AB00034F8210055BD1A67310054C01A67390047
:101AC00034F72504292A036334FC216B6C0F000DC5
:101AD00073766C81007434F621673F006C0B000E46
:101AE000777334F521673F000D7334F521673F00AC
:101AF0006C15000F777334F521673F006C0B000FF6
:101B0000777334F521673F000E7334F521673F008A
:101B10006C150010777334F521673F006C0B0010D3
:101B2000777334F521673F000F7334F52100440BC0
:101B30004334FD260E00841500491B6334FB2168E5
:101B40000B437F020034FC26086334F6210034F492
:101B50002504630B5D027FFEFF090C7D55721B019E
:101B60000D5E10312101097F0200140400017A5535
:101B70005F1B63280600360400213125040047045A
:101B80005D0E0A0C2C1102951707186A1874187E3E
:101B900018D418DC18E5186219191A601A9A1AAFC5
:101BA0001AC51A351B521B751B020A0C0E10121097
:101BB00000121400121800121C001220001224003F
:101BC000122800122C0012300012340012380012B9
:101BD0003C001240001244001248003E1300282826
:101BE0002B017D1B3902002B015117391E00543582
:101BF0001D00450A8403000A1C1906431B43216C7F
:101C000015006941001C2154361C00840500211C6C
:101C10001906431B43216C0B006A41001D215436F9
:101C20001C00840700331C1906431B432168400035
:101C300054361C3506000A441E05431B43215645F5
:101C40001C6354511C034356501C67150054511C0F
:101C5000631E05431B4321565E1C63546A1C0444E7
:101C600056691C670B00546A1C631E05431B432105
:101C700056771C63548B1C04880100811C63548BB1
:101C80001C000C1E06431B43216E6E3608001E0509
:101C900049003F001E0649031A470B21000E10435E
:101CA0004100280E63360A002168360A0021360CEE
:101CB000003F00683F000A0C0E10360E0036100080
:101CC0002B07F11B280A00450B440A0C7E56D51C35
:101CD000024354D61C630A880100E21C010D6F54B4
:101CE000E31C020A0C4000280A2B01C61C28020033
:101CF0008C0500FE1C3512006C0F0040005B005785
:101D000003071D111D1B1D351400361000470A2541
:101D100004351600361000470A2504351800361021
:101D200000470A250400562D1D00432802351A00DD
:101D3000361C00250467A7205D0A67A7105D0A67A7
:101D400037405D0A1F571D646C19406C19086C19E7
:101D50000468361E0020090939100000130200092A
:101D60002B01251D0A3F00390E001302002B01EF45
:101D70001C092B01E91C390A002B01A41C680D4524
:101D8000211F901D63686868686812160046200B62
:101D9000630B210954091E6707025D126C07205D61
:101DA000126C07105D126C03045D126C03085D1267
:101DB0000E56B81D6454C91D0356C01D6554C91D77
:101DC0000256C81D6654C91D630A0C0E410011213C
:101DD00069691218004705223520000B45360400BA
:101DE0002136220022121600470A21646A121800C6
:101DF0004705220043121400210044121600470B2D
:101E00002167D1075D14130E006455971D13080058
:101E10008F000100010001000200080001000C0019
:101E20000100010022002A002E0034003A000100C7
:101E30000100420001000002010001000001010058
:101E400000010300FC08636F666665655F7075726C
:101E5000652E6D6C00010003100019000500FC01E7
:101E60002E00FC02430A0001FC02540A0001FC039C
:101E70004E6F6E650001FC016300E1CF68FFE2CFA9
:101E800069FFD890023201305625E96E0250572181
:101E9000EA6ED890063205300324E16E0650042025
:101EA000E26ED8900832073204E0EECFE6FF072E4C
:101EB000FCD70806FAE068CFE1FF69CFE2FF010E28
:101EC000566F576B120056CFE9FF57CFEAFF01E973
:101ED000EE50E926D8B0EA2AFF0FE926D8B0EA2A60
:101EE000566F576BD89056375737D8805637573775
:101EF000EFA0568312005731686F5631F56E696F47
:101F000068313F0B4AE1F532F52A47E003EC0AF06D
:101F1000FC0EE66EF550E66EE1CF56FFE2CF57FFBE
:101F2000FF0FE126D8B0E22AE126D8B0E22AE66A1D
:101F3000000E69A1010EE66E120056CFE9FF57CFE1
:101F4000EAFF01E9D89002320132D89002301FE155
:101F50000130EF641CD0010FEE640AD00150E92675
:101F60000250EA22576BD880EF345737566F120071
:101F700001B00DD00150E9260250EA2201E8ED50EF
:101F800006E1576BD880EF345737566F1200010EB9
:101F9000566F016E576B026A36D05E51E2620DD009
:101FA000160EE1240AE36DEC0AF05E51E26205D000
:101FB000160EE124D8B0ACEF09F0FC0EE66E070E69
:101FC000E66EE1CF68FFE2CF69FF530EE66E740E56
:101FD000E66E720EE66E690EE66E6E0EE66E670EC9
:101FE000E66E2E0EE66E630EE66E720EE66E650E01
:101FF000E66E610EE66E740EE66E650EE66E000E1F
:10200000E66E9DEF10F05E51E2620DD01C0EE124F1
:102010000AE36DEC0AF05E51E26205D01C0EE12489
:10202000D8B0ACEF09F0FC0EE66E0A0EE66EE1CF1A
:1020300068FFE2CF69FF690EE66E6E0EE66E640E13
:10204000E66E650EE66E780EE66E200EE66E6F0E9C
:10205000E66E750EE66E740EE66E200EE66E6F0E80
:10206000E66E660EE66E200EE66E620EE66E6F0E91
:10207000E66E750EE66E6E0EE66E640EE66E730E1E
:10208000E66E000EE66E9DEF10F0D8805631E96ED8
:10209000EA6802300130EF6E010E566F576B120086
:1020A000D8805631E96EEA68EF34566F5737120020
:1020B000D8805631E96EEA68EF505711EF6E010E85
:1020C000566F576B1200D8805631E96EEA68571F79
:1020D000EF505715EF6E010E566F576B1200D880F8
:1020E0005631E96EEA685751EF14010ED8A4030E79
:1020F000566F576B1200120E5661EE0F120F5627D5
:102100001200110093EF09F0573516E2573356339A
:102110005651571111E0572BEA0E686F0D0E696F7B
:10212000682FFED7692FFCD7FA0E686F0D0E696F06
:10213000562F572B572FF4D71200000EE66E020EC3
:10214000E66EE1CF56FFE2CF57FF070EE66EE66A76
:0C21500068CFE6FF69CFE6FFE8EF09F07A
:020000040030CA
:0E000000FF08181EFF01C0FF00C000E00F4007
:00000001FF
