:020000040000FA
:040000000F010CD010
:0400080043EF31F0A1
:0800180043EF31F000EE00F0AF
:10002000EE6AEE6AEE6AEE6A800EE962F9D70F0EAA
:10003000EA62F6D7050E5E6F0B0E5F6FFB6A090E64
:10004000FA6EF86A10EE00F02FEE53F06A0EF66EBC
:10005000470EF76E06D00900F5500900F5CFDDFF19
:10006000DD6EB00EF662F7D7480EF762F4D706D011
:100070000900F5CFE6FF0900F5CFE6FF760EF66240
:10008000F7D74A0EF762F4D7010E606F586F566FBC
:10009000546F626F5B6F5C6FD40EF66E160EF76E68
:1000A00093EF09F00900F5500900566312D0F5509E
:1000B00057630FD00900F5500900F66EF550F76E42
:1000C00012000900F55009005663F4D7F550576344
:1000D000F1D7020EF626D8B0F72A12000900F5CFA4
:1000E00068FF0900800EF5265751800FF55C02E18C
:1000F0005651685DEEE2DED75751800F686F0900F8
:10010000F5CF69FF0900F550800F685D02E1695184
:10011000565DD0E2DED75751800F686F0900F5CFEA
:1001200069FF0900F550800F685D02E16951565D75
:10013000D0E2C0D70900F5CF68FF0900800EF52690
:100140005751800FF55C02E15651685DB3E2C1D7AB
:100150000900F5500900686FF550575DBAE3AAE150
:1001600068515665B6D7A6D70900F5500900686FE3
:10017000F550575D9FE3ADE1685156659BD7A9D710
:1001800091E207EB56FF08EB57FF12009AE209EBEA
:1001900056FF0AEB57FF1200A1E20BEB56FF0CEBE8
:1001A00057FF1200A9E20DEB56FF0EEB57FF1200AE
:1001B000B2E20FEB56FF10EB57FF1200C9E257CF28
:1001C000DDFF56CFDDFF0B0EDA6492D303EB56FF53
:1001D00004EB57FF1200C8E257CFDDFF56CFDDFF1B
:1001E0000B0EDA6485D305EB56FF06EB57FF1200C2
:1001F00050E257CFDDFF56CFDDFF0B0EDA6478D328
:10020000120050E257CFDDFF56CFDDFF0B0EDA6450
:100210006FD312008FE2DACFEAFFD9CFE9FF0900EE
:10022000F5500900E926F550EA22ECCF56FFECCF55
:1002300057FF120057CFDDFF56CFDDFF0B0EDA64FC
:1002400057D3DACFEAFFD9CFE9FF0900F55009000B
:10025000E926F550EA22ECCF56FFECCF57FF12000B
:100260000900F5500900D926F550DA221200DACF3C
:10027000EAFFD9CFE9FF0900F5500900E926F5505A
:10028000EA2256CFECFF57CFECFF010E566F576BAB
:1002900012005751576B025C11E30DE15651016496
:1002A0000DD009D05751576B025C05E307E1565159
:1002B000016401D003D0030E566FC2E8010E566FE1
:1002C000C2E85651566B56815683DC62569357519D
:1002D000DC625693576B12005651566B5681DC62A6
:1002E00056835751DC625683576B12005751800F6B
:1002F000686F576B0250800F685D02E10150565DD8
:10030000DDE2D9D7800E02265751800F576B025C71
:1003100002E15651015CCFE2D1D7800E022657513F
:10032000800F576B025C02E15651015CC7E2C3D7F4
:100330005751800F686F576B0250800F685D02E164
:100340000150565DB8E2BAD70900F55009005627AA
:10035000F5505723120056CFE9FF57CFEAFF0900A7
:10036000F5500900EE26F550EF221200F4E201EB01
:1003700056FF02EB57FF12000150E96E0250EA6E81
:10038000EECF68FFEF50EA6E68CFE9FF5605E92629
:100390005751EA22EECF56FFEECF57FF1200ECE2A4
:1003A00005EB56FF06EB57FF120057CFDDFF56CF88
:1003B000DDFF0B0EDA649CD20900F5CF56FF090071
:1003C000F5CF57FF01EBE9FF02EBEAFFEECF6BFF42
:1003D000EF506C6FEA6E6BCFE9FF030E686FEFCFE3
:1003E00069FF685169651DD069256A6F6A336A8142
:1003F0006CCFEAFFD8906A35D8B0EA2A6B25E96E4F
:10040000D8B0EA2A01E8ED50575D07E303E1EF5069
:10041000565D03E36ACF68FFE4D7020E6A5D696F39
:10042000E0D76CCFEAFF6891D8906835D8B0EA2A57
:100430006B25E96ED8B0EA2AEECF56FFEFCF57FF13
:100440001200B3E257CFDDFF56CFDDFF0B0EDA64AB
:100450004FD207EB56FF08EB57FF1200B3E257CF1E
:10046000DDFF56CFDDFF0B0EDA6442D209EB56FFFB
:100470000AEB57FF120057CFDDFF56CFDDFF0B0E03
:10048000DA6436D254CFE9FF55CFEAFF02E8EECF67
:1004900056FFEFCF57FF120057CFDDFF56CFDDFFDE
:1004A0000B0EDA6425D254CFE9FF55CFEAFF04E8FA
:1004B000EECF56FFEFCF57FF120057CFDDFF56CFDD
:1004C000DDFF0B0EDA6414D254CFE9FF55CFEAFFFB
:1004D00006E8EECF56FFEFCF57FF120057CFDDFFF4
:1004E00056CFDDFF0B0EDA6403D254CFE9FF55CFB0
:1004F000EAFF08E8EECF56FFEFCF57FF120057CFC5
:10050000DDFF56CFDDFF0B0EDA64F2D154CFE9FFE9
:1005100055CFEAFF0900F550E926D8B0EA2AE926C6
:10052000D8B0EA2AEECF56FFEFCF57FF120056CFD2
:10053000E9FF57CFEAFFEECF56FFEFCF57FF12008C
:1005400056CFE9FF57CFEAFF02E8EECF56FFEFCFD5
:1005500057FF120056CFE9FF57CFEAFF04E8EECF6E
:1005600056FFEFCF57FF120056CFE9FF57CFEAFFF4
:1005700006E8EECF56FFEFCF57FF120057CFDDFF53
:1005800056CFDDFF0B0EDA64B3D10FEE53F0090046
:10059000F5500900E95EF550EA5AEDCF57FFEFCF6D
:1005A00056FF56CFE9FF57CFEAFF0900F550E9267D
:1005B000D8B0EA2AE926D8B0EA2AEECF56FFEFCF24
:1005C00057FF120056CFE9FF57CFEAFFDCCFEEFF0F
:1005D000DCCFEFFF010E566F576B120056CFE9FFCD
:1005E00057CFEAFF02E8DCCFEEFFDCCFEFFF010ED2
:1005F000566F576B120056CFE9FF57CFEAFF04E85A
:10060000DCCFEEFFDCCFEFFF010E566F576B120011
:1006100056CFE9FF57CFEAFF06E8DCCFEEFFDCCF8D
:10062000EFFF010E566F576B120056CFE9FF57CF01
:10063000EAFF0900F550E926D8B0EA2AE926D8B041
:10064000EA2ADCCFEEFFDCCFEFFF010E566F576BCF
:10065000120056CFE9FF57CFEAFF576B02E9EE5081
:10066000FE0A05E0D880EF34566F57371200EFCFFF
:1006700056FF56811200DC045625E96E5751DC20E6
:10068000EA6EEECF56FFEFCF57FF1200DC0456257F
:10069000E96E5751DC20EA6EDCCFEEFFDCCFEFFFD6
:1006A000010E566F576B1200D8900232DC3056257F
:1006B000E96E5751DC20EA6E576BD880EF3457371C
:1006C000566F1200D890023201305625E96E57510C
:1006D0000220EA6E04300330EF6E010E566F576B46
:1006E000C4E857CFDDFF56CFDDFF0B0EDA6400D133
:1006F000010E566F576B120057CFDDFF56CFDDFF4F
:100700000B0EDA64F5D0030E566F576B120057CFFD
:10071000DDFF56CFDDFF0B0EDA64EAD0050E566F13
:10072000576B120057CFDDFF56CFDDFF0B0EDA649B
:10073000DFD0070E566F576B120057CFDDFF56CF35
:10074000DDFF0B0EDA64D4D00900F5CF56FF0900A7
:10075000F5CF57FF1200DC505617DC505717120028
:10076000DC505613DC5057131200DC50561BDC5083
:10077000571B56811200D890013207E05691D8904D
:1007800056375737012EFBD75681C2E8D890013231
:1007900006E0D89057335633012EFBD75681C2E876
:1007A000D890013206E0573557335633012EFBD728
:1007B0005681C2E80B0EFA6E0900F534FA361400C1
:1007C000090EFA6E12000B0EFA6E0900F534FA36B5
:1007D0001400090EFA6EC2E80B0EFA6E0900F53429
:1007E000FA361400090EFA6EC4E80B0EFA6E090010
:1007F000F534FA361400090EFA6EC6E80B0EFA6EDE
:100800000900F534FA361400090EFA6EC8E80B0E2A
:10081000FA6E0900F534FA361400090EFA6E090072
:10082000F550D926D8B0DA2AD926D8B0DA2A12005B
:100830000900F5500900F66EF550F76E12005605E6
:100840005711F6E1020EF626D8B0F72A1200560527
:100850005711EEE0020EF626D8B0F72A120056B174
:100860001BD00900F550F626D8B0F72AF626D8B0E6
:10087000F72A56CFE9FF57CFEAFF02E9EF50F626F5
:10088000D8B0F72AF626D8B0F72A0900F5500900A3
:10089000F5CFF7FFF66E12005651F6265751F722A4
:1008A0000900F5500900F66EF5CFF7FF12000FEEC4
:1008B00053F00900F5500900E95EF550EA5A57CFA8
:1008C000EDFF56CFEDFF120057CFDDFF56CFDDFF16
:1008D0000B0EDA640DD00FEE53F00900F55009004D
:1008E000E95EF550EA5AEDCF57FFEFCF56FF120001
:0408F000CDEF09F04F
:1009000035D515D34CD53CD441D446D44BD450D452
:1009100081D46ED476D452D45ED493D59FD50DD3E2
:1009200019D324D387D49CD4A2D4ACD5BCD5CCD5F0
:10093000DCD5ECD5A0D5B0D5C0D5D0D5E0D56AD121
:100940007ED18BD1AED1D5D100D222D23AD258D2DB
:100950007AD298D2B4D28DD0B1D01BD129D134D192
:1009600042D110D11ED129D137D1B5D7ADD70DD6AF
:1009700005D69DD710D306D307D304D311D330D3D4
:100980004DD36ED393D3D3D5DBD5E4D5EDD509D6EE
:10099000B5D318D623D62FD63BD647D6DBD359D6D8
:1009A0006AD674D681D68ED643D749D750D757D773
:1009B000F8D326D042D046D0E5D2FCD604D70CD707
:1009C00014D71CD724D794D69ED6A8D6B2D6BCD6D8
:1009D00088D692D69CD6A6D6B0D6EED3F4D3F8D38A
:1009E000E8D3E9D3E7D3B7D6BBD6BFD6C4D6CED6E5
:1009F000D7D667D471D47AD485D48FD499D4A4D4DB
:100A00000C0EDA6204D0F80ED924D8A071D7DD6AB2
:100A100062CFDDFF55CFDDFF54CFDDFF61CFDDFFBE
:100A200060CFDDFF0900F5500900F5CFDDFFDD6E79
:100A3000D9CF60FFDACF61FF12000350606F04501E
:100A4000616FC8E860056111D8B49CD260CFD9FF4E
:100A500061CFDAFFDCCFF6FFDCCFF7FFDCCF60FF42
:100A6000DCCF61FFDCCF54FFDCCF55FFDCCF62FF72
:100A7000C1E8090003EC0AF0F70EE66EF550E66EE9
:100A8000686F56CF69FF57CF6AFFE1CF56FFE2CFBD
:100A900057FF0900F5CFE6FF0900F5CFE6FF684FE5
:100AA000120069CFE6FF6ACFE6FF684F1200DCCF85
:100AB000E6FFDCCFE6FF682FFAD712000900F50445
:100AC000686F0900F5CF69FF6829682569256A6F95
:100AD000F56E03EC0AF0F70EE66E6A51E66E56CF3D
:100AE0006AFF57CF6BFFE1CF56FFE2CF57FF0900F8
:100AF000F5CFE6FF0900F5CFE6FFE1CFE9FFE2CF52
:100B0000EAFF68516825E126D8B0E22AE126D8B08C
:100B1000E22A69530CE06ACFE6FF6BCFE6FF690774
:100B200006E0DCCFE6FFDCCFE6FF692FFAD757CF30
:100B3000DDFF56CFDDFF0B0EDA64DAD66853D8B48A
:100B400012006C6B6C2BF90EEE6E6C516C25EE6E18
:100B5000E9CF6DFFEACF6EFF0C0EDA6204D0FE0E15
:100B6000D924D8A0C5D66E51EA6EDD6E6D51E96EFE
:100B7000DD6E0900F5CFEEFF0900F5CFEEFF682F1F
:100B8000E1D7120057CFDDFF56CFDDFF0B0EDA6441
:100B9000AFD6FC0E5425566F5551D8A0FF0F576F96
:100BA000120057CFDDFF56CFDDFF0B0EDA64A0D663
:100BB00054CF56FF55CF57FF120057CFDDFF56CF0A
:100BC000DDFF0B0EDA6494D6040E5425566F555192
:100BD000D8B0010F576F120057CFDDFF56CFDDFFA2
:100BE0000B0EDA6485D655CF57FF54CF56FF090058
:100BF000D890F53407E25627D8B0572B5627D8B0EF
:100C0000572B12000008565FD8A05707565FD8A090
:100C1000570712000C0EDA6204D0FA0ED924D8A0BD
:100C200067D6DD6A62CFDDFF55CFDDFF54CFDDFF34
:100C30000900F5500900F5CFDDFFDD6E1200090057
:100C4000F5CF62FF5651E96E546F5751EA6E556FFA
:100C5000EECFF6FFEFCFF7FF12000C0EDA6204D0F2
:100C6000FA0ED924D8A044D686E987EB01F088EBA8
:100C700002F0086A6251076E5451056E5551066EB6
:100C8000F650036EF750046E5651E96E546F57518B
:100C9000EA6E556FEECFF6FFEFCFF7FF010E626FF2
:100CA00012000C0EDA6204D0FA0ED924D8A020D695
:100CB00086E987EB01F088EB02F089EB03F08AEB21
:100CC00004F00A6A6251096E5451076E5551086E5C
:100CD000F650056EF750066E5651E96E546F575137
:100CE000EA6E556FEECFF6FFEFCFF7FF030E626FA0
:100CF00012000C0EDA6204D0FA0ED924D8A0F8D56E
:100D000086E987EB01F088EB02F089EB03F08AEBD0
:100D100004F08BEB05F08CEB06F00C6A62510B6E65
:100D20005451096E55510A6EF650076EF750086E11
:100D30005651E96E546F5751EA6E556FEECFF6FF7C
:100D4000EFCFF7FF050E626F1200D9CFE9FFDACFC0
:100D5000EAFF0900F550D926D8B0DA2A0900D89060
:100D6000F534E926D8B0EA2AF50462276227EDCFE8
:100D7000DDFFEDCFDDFFF52EFAD75651E96E546F4A
:100D80005751EA6E556FEECFF6FFEFCFF7FF120027
:100D9000D9CFE9FFDACFEAFF0900F550D926D8B05C
:100DA000DA2A02E8EDCFDDFFEDCFDDFF5651E96E27
:100DB000546F5751EA6E556FEECFF6FFEFCFF7FF46
:100DC0001200D9CFE9FFDACFEAFF0900F550D926A2
:100DD000D8B0DA2A04E8EDCFDDFFEDCFDDFFEDCFAF
:100DE000DDFFEDCFDDFF5651E96E546F5751EA6ECE
:100DF000556FEECFF6FFEFCFF7FF020E622712001E
:100E0000D9CFE9FFDACFEAFF0900F550D926D8B0EB
:100E1000DA2A06E8EDCFDDFFEDCFDDFFEDCFDDFF18
:100E2000EDCFDDFFEDCFDDFFEDCFDDFF5651E96EFC
:100E3000546F5751EA6E556FEECFF6FFEFCFF7FFC5
:100E4000040E622712000900F550D926D8B0DA2A1C
:100E5000624D0DD0020E625F5651E96E546F5751CC
:100E6000EA6E556FEECFF6FFEFCFF7FF1200DCCF43
:100E7000F6FFDCCFF7FFDCCF54FFDCCF55FFDCCF34
:100E800062FFC1E854CFE9FF55CFEAFF02E8EECF99
:100E900054FFEFCF55FF04E9EE50FE0FD8B4120017
:100EA000686FD89068356227E926D8B0EA2A03E847
:100EB000EDCFDDFFEDCFDDFF682FFAD7120009007F
:100EC000D890F53462612BD06231030FF56E9BDA56
:100ED000F70EE66EF550E66EE1CF56FFE2CF57FF14
:100EE000F650FD0FE66EF750D8A0FF0FE66E54CF18
:100EF000E6FF55CFE6FF020EF55E06E0DCCFE6FF2B
:100F0000DCCFE6FFF52EFAD7DCCFF6FFDCCFF7FF1C
:100F1000DCCF54FFDCCF55FFDCCF62FFC1E8625F5E
:100F20001200010E56B1030E566F576B1200F9E214
:100F300003EB56FF04EB57FF120024E257CFDDFF0F
:100F400056CFDDFF0B0EDA64D3D40BEB56FF0CEB60
:100F500057FF120057CFDDFF56CFDDFF0B0EDA64CF
:100F6000C7D40DEB56FF0EEB57FF120057CFDDFF36
:100F700056CFDDFF0B0EDA64BBD40FEB56FF10EB40
:100F800057FF12000300FED757CFDDFF56CFDDFF1E
:100F90000B0EDA64ADD4880E566F0F0E576F120029
:100FA000090031DAF5500900F5CFE6FFE66EFD0FD6
:100FB000686FE15056CFE6FF566FE25057CFE6FF1D
:100FC000576FDCCFE6FFDCCFE6FFDCCFE6FFDCCF00
:100FD000E6FFDCCFE6FFDCCFE6FF682FFAD7120092
:100FE0005E51E2620DD0040EE1240AE36DEC0AF0DA
:100FF0005E51E26205D0040EE124D8B0ACEF09F0F6
:101000000900F5CFE6FF010EE66EE15056CFE6FF90
:10101000566FE25057CFE6FF576F12005E51E26203
:101020000DD0060EE1240AE36DEC0AF05E51E26297
:1010300005D0060EE124D8B0ACEF09F00900F5CFD9
:10104000E6FF020EE66EE15056CFE6FF566FE25025
:1010500057CFE6FF576FDCCFE6FFDCCFE6FF12008D
:101060005E51E2620DD0080EE1240AE36DEC0AF055
:101070005E51E26205D0080EE124D8B0ACEF09F071
:101080000900F5CFE6FF030EE66EE15056CFE6FF0E
:10109000566FE25057CFE6FF576FDCCFE6FFDCCF4D
:1010A000E6FFDCCFE6FFDCCFE6FF12000900ABD99C
:1010B000FE0EE66EF5CFE6FF56CFE9FF57CFEAFF0B
:1010C000E1CF56FFE2CF57FFEECFE6FFEECFE6FFD0
:1010D000EECFE6FFEFCFE6FFF542F54E1200DCCF94
:1010E000E9FFDCCFEAFFEECFE6FFEECFE6FFEECF83
:1010F000E6FFEFCFE6FFF52EF2D712005E51E26277
:101100000DD0060EE1240AE36DEC0AF05E51E262B6
:1011100005D0060EE124D8B0ACEF09F00900F55077
:101120005625E96E000E5721EA6EF550E926D8B033
:10113000EA2AFD0EE66E020EE66EE1CF56FFE2CF22
:1011400057FFEECFE6FFEECFE6FFEECFE6FFEFCFA5
:10115000E6FF1200DECFE9FFDECFEAFFEECF68FF49
:10116000EECF69FFEECF6AFFEFCF6BFF56CFE9FFFF
:1011700057CFEAFF0900F5505625E96E000E5721BA
:10118000EA6EF550E926D8B0EA2A68CFEEFF69CFBB
:10119000EEFF6ACFEEFF6BCFEFFF010E566F576B7E
:1011A000120056055711010ED8B4030E566F576B37
:1011B000120013D079D028D0561F571F030E562780
:1011C000D8B0572B1200DC045627DC5057231200EE
:1011D000DC04565FDC50575B1200D89002320132BB
:1011E000D8905731696F56310102F3CF56FFF4CFD3
:1011F00057FF0202F350572769510102F350572756
:10120000D88056375737C2E80234023201320150D3
:10121000021048E057355731696F5631686F6C914D
:1012200069AF05D0681F691F684B692B6C7102AEEE
:1012300005D0011E021E014A022A6C71566B576BC3
:1012400056816A6B6B6B6A83D89001360236025006
:10125000695D08E303E10150685D04E3D8906A37F3
:101260006B37F2D7D890023201320250695D0CE33D
:1012700003E10150685D08E30150685F0250695B5B
:101280006A5156136B515713D8906B336A336AA166
:10129000E9D76CA1C2E8561F571F030E5627D8B0D6
:1012A000572BC2E8B2EF09F002340232013201508A
:1012B0000210F8E05735573356336C9157AF05D0CD
:1012C000561F571F564B572B6C8102AE04D0011E80
:1012D000021E014A022A6A6BD890013602366A2B36
:1012E0000250575D04E3F8E10150565DF5E2D890F5
:1012F000023201320250575D08E303E10150565DAE
:1013000004E30150565F0250575B6A2FF0D7D88034
:10131000563757376CA1C2E8561F571F030E562782
:10132000D8B0572BC2E80900F53414000900F53491
:1013300014000900F53414000900F5341400090004
:10134000F53414000900F53414000900F5341400D4
:101350000900F5341400E7D75C0E566F0F0E576F77
:10136000E8EF09F05E51E2620DD0040EE1240AE3D9
:101370006DEC0AF05E51E26205D0040EE124D8B0B3
:10138000ACEF09F0E66A010EE66EE1CF56FFE2CF60
:1013900057FF0B0EE66EE66A1BD05E51E2620DD07F
:1013A000040EE1240AE36DEC0AF05E51E26205D01E
:1013B000040EE124D8B0ACEF09F0E66A010EE66E47
:1013C000E1CF56FFE2CF57FF110EE66EE66A00D07E
:1013D00060056111D8B4D6D560CFD9FF61CFDAFFEF
:1013E000DCCFF6FFDCCFF7FFDCCF60FFDCCF61FFA7
:1013F000DCCF54FFDCCF55FFDCCF62FF81E8090E64
:10140000FA6EFC6A90D75E51E26009D0FF0FE2628B
:101410001200E150F52406E2F52406E21200E15044
:10142000F52405E2F52403E2020F01E2120055D88B
:101430005E51E26009D0FF0FE2621200E150F52434
:1014400006E2F52406E21200E150F52405E2F52457
:1014500003E2020FD8A01200ACEF09F05651FE0BC8
:1014600019E0F56E03EC0AF0FE0EE66E07D0573178
:10147000563110E0F56E03EC0AF0E66AF550E66EC0
:10148000E1CF56FFE2CF57FF010EE66EE66AF52E7A
:10149000FCD71200880E566F0F0E576F1200E1CF67
:1014A00068FFE2CF69FF56CFE1FF57CFE2FF01EBC4
:1014B000E9FF02EBEAFF02E942E9EECFE6FFEE5078
:1014C00007E041E8EECFE6FFEECFE6FFE82EFAD7E1
:1014D00068CFE1FF69CFE2FF1200E16A5F51FB0FC5
:1014E000E26E5F515ECF5FFF5E6FD950636FE96E52
:1014F000DA50646FEA6E01E801D02BD8540EE9622D
:10150000FCD70F0EEA62F9D724D823D822D8E96A8B
:101510005E51FB0FEA6E10D0FB0EEE6408D0EE5069
:10152000E926D8B0EA2AE926D8B0EA2A05D0EECFD3
:1015300065FF0FD8652FFDD7E950E162EDD7EA507E
:10154000E262EAD763CFD9FF64CFDAFF764B772B1D
:101550001200EE50E8B040D0D96EED50DA6E5F5D0B
:101560003AE3FA0F38E282E9F90E006214D0015032
:10157000676FD95ED8A0DA06D95ED8A0DA060BD894
:10158000675102E9EE26D8B0EF2A01E9EE26D8B07D
:10159000EF2A01E81200015005E10250EE6E0350FF
:1015A000EE6E1200DECFE6FFDF50DE6AE66E666F9B
:1015B000E150DFCFE6FFEE6EDE6EE250DFCFE6FFFA
:1015C000EE6EDE6E660709E0DECFE6FFDECFE6FFF9
:0C15D000662FFAD71200EE52EE52120005
:1015E000F34E8CEF30F0F34E46EF2EF0C2EF07F0E3
:1015F000F34EB8EF30F0F34E46EF2EF0C2EF07F0A7
:10160000B7EF25F057EF2EF0F7EF31F053EF2EF054
:101610005DEF2EF096EF31F061EF2EF0F1EF31F04B
:10162000FAEF31F0DEEF31F095EF25F0E1EF25F044
:10163000BCEF31F0F4EF31F05BEF2EF070EF31F0F2
:1016400061EF25F03BEF25F079EF25F091EF25F0E4
:1016500059EF2EF046EF2EF06BEF29F0AFEF28F0A8
:101660005FEF2EF051EF2EF077EF28F09CEF28F08F
:1016700046EF2EF055EF2CF01EEF2BF0BEEF2AF0C8
:10168000FFEF2AF096EF26F049EF26F09FEF26F0C5
:10169000AEEF27F055EF2EF06DEF2DF08CEF2DF023
:1016A000BDEF2DF0E0EF2AF00DEF2AF020EF2AF049
:1016B0003DEF2AF089EF28F090EF27F072EF27F046
:1016C00085EF27F07DEF27F0A8EF27F09CEF27F0BC
:1016D00046EF31F054531F292A0319220B7956E59E
:1016E00016631E1B21001E205E000A7F76FF0A8CF7
:1016F0004500BF17007F34000A8C1D000417130437
:101700000054E51700570F251730173617411730CB
:1017100017B917B917B917B917B917B917B917B949
:1017200017B917B917066910107F02003224160482
:1017300013040054E517641010107F0200322416C1
:101740000419220E7F020079565017631E1B2510C4
:10175000037F02001E205E000A7F76FF0A8C450090
:101760008817007F2A008C1300711713020054B4ED
:10177000170810001210000D7FA0FF1212001212A5
:10178000007F040033241C05007FFAFF8C3900B170
:10179000171922107F04007A569F17631E1B210120
:1017A0001212001212006C0D001214003402241CDC
:1017B00005130200631E1B251213040054EA1700D0
:1017C0007FFAFF8C3900E21719227FFEFF0D7A564F
:1017D000D617631E1B210110106C0D00113402245A
:1017E0001605130200631E1B250C040E0C6C15005D
:1017F00010706E7FA0FF0E7F020032241204292A8F
:101800000419200B79560C18631E1921001E1E5E48
:10181000000A8775003218008791002918007F366A
:10182000FF8B05007D1854821800868B00821854A7
:101830007D1800875D005318008761007D18050F33
:101840000C106C1500706E7FA0FF0F0F7F0200322E
:10185000241605008757007D18007FAAFF570365EF
:10186000187D18711805690F0F0F7F0200322416BA
:1018700005640F0F0F0F7F020032241605631E1937
:10188000250E19207FFEFF0C7A569018631E192131
:10189000001010101033241605292A043500001EEC
:1018A0001D5E0256D418191D3602001E1D5E045E10
:1018B0000656D4183504001E1D5E0856CE18025672
:1018C000C818350600547B19350800547B19350AB1
:1018D00000547B19191D1E1D5E0256E318350C00BD
:1018E000547B19191D5D0A0F8791002219057F3657
:1018F000FF0A8C0500FD181302005451190057030C
:1019000006190E191619630E0D3323541C19030CF6
:10191000340522541C19630E0D340923130200549C
:10192000551905878B005119057F76FF5703341928
:101930003C194819640D0C3323545519021E1D34EB
:1019400005221E1B21545519640D0C3409235455CE
:1019500019631E1721360E001E1D5E0C56711904E8
:10196000566D19003610001E18225478190054784C
:1019700019003612001E18221304000A0F0D340B32
:101980002712292A02016D3614001E18223616006D
:101990005E043618000C5E0656A819675700680FDB
:1019A0000F68103403241406351A000C5E0C56BA66
:1019B00019630E0E0E0E33241205640E0E361C0033
:1019C0000F5E040E3402241205292A04000C5E0E58
:1019D000361E000D5E0856EA19057F02000F0F360D
:1019E0002000105E100F32241605005D120A8615C5
:1019F00000001A6757001111110E103402241A0644
:101A0000067F02001010362200115E1010322418DA
:101A100005292A04000C5E0E0A5D120A8703002DB8
:101A20001A675B001111110E1033241A06067F028B
:101A3000001010362400115E041032241805292AE3
:101A4000050255491A64544D1A027F04000A7F08A2
:101A5000005D140D8601005D1A63546A1A03881331
:101A600000691A671300546A1A030A7F6000680D40
:101A70005F1605687A567F1A675D00690D5F160666
:101A800056891A678B00548C1A67CB000D0D5F16B0
:101A90000810000D7F02000D5F1667150012100080
:101AA000717F60000D7F04000D5F16671500121036
:101AB00000727F60000D7F06000D5F163526000B5B
:101AC0005D180F5E1A5E04100E6F0E7FFEFF090C8C
:101AD0007D55161B025D120A860100E11A6354EE61
:101AE0001A00881300ED1A67130054EE1A000A7FDB
:101AF00060000E1210005F163528000B5D18105E96
:101B00001A5E0414080013040001097F0200140483
:101B100000017A55D41A63130400022814292A01FB
:101B2000016D362A001E1022362C005E040B5E0E5C
:101B3000690B33220D0B7F02006E5D140B7FFEFFDD
:101B40000B0E3402236C5D000D0D5F161F5C1B082D
:101B50001000107F020010103403200701280C2908
:101B60002A01352E000B5E1C56761B005D12861571
:101B700000761B012804017F02003630000C5E1045
:101B8000322608292A0202558E1B00549B1B027F15
:101B9000FEFF0C3632000D5E1032230A5D120A86FB
:101BA0000100A81B6354B51B00881300B41B671306
:101BB0000054B51B000A7F600010105F163534001A
:101BC0000B5D180E5E1A5E04280C292A0303687B3D
:101BD000560D1C005D120A860100E01B6354ED1BCC
:101BE00000881300EC1B67130054ED1B000A7F6094
:101BF000000F0F5F16057FFEFF0F7F02000F3636C6
:101C0000000E5D18115E1A5E04322414042808299F
:101C10002A023538000B5E0855561C353A005D1E09
:101C20000B5E1C55561C353C000B5E08563D1C35A2
:101C30003E003640005E100B5E1C55561C354200BF
:101C40000B5E1C56751C3544003646005E105D1E4A
:101C50000B5E0856751C020C0C34F8230A5D206CD0
:101C600009000B7FF8FF0D1E07230B7FF6FF0D33D6
:101C7000221E06260E010B34FC220A5D200A7FFE7E
:101C8000FF0C33260E292A01010B5E000A87630030
:101C9000A21C00867500AF1C027F0200680D1E05A5
:101CA000270C00845D00AF1C02680D1E05270C0286
:101CB0007FFEFF0C32260A292A02025D200A0C7CD4
:101CC00056C61C032808015D140D56E31C01680C60
:101CD0006812100061226741000C0E6F0D0D602428
:101CE00054F81C6741000C0E6F680D6024010C0E47
:101CF0006F0C68121000612200280A292A01005D79
:101D0000200A0D0D364800364A00364C00364E008B
:101D10003650002C0E08D816FF179A188319CA19C6
:101D2000121A3F1A1E1B601B841BCB1B101C861C27
:101D3000B81C081C00687955441D631220005E0021
:101D40006C4B007A564C1D633650002163686869FD
:101D5000122200242A04170B7E56631D3552001BE5
:101D60001A2606001B5E000A875900851D00876140
:101D7000007C1D00877500941D16280400835B00FD
:101D8000941D16280400834100941D00865700947A
:101D90001D162804017F0200322506005D200A0C72
:101DA000364E002C0103561D630B2508292A01011C
:101DB00055B81D355400280401840300C11D0028B6
:101DC00004640C7355D31D640C770B32220A0B5E2E
:101DD000042806640C770B32220A0B0D5E045E04A5
:101DE0002806292A012C0100AD1D3556000D795613
:101DF000F71D355800280602860100091E026D0CE9
:101E00000C22365A005E102806020C0C260A292ADB
:101E100001018715001B1E0055251E6761000C6E11
:101E20000B1A5328046761006C15000D726E0B1AB3
:101E3000536715000C710B7FFEFF322608008701E7
:101E4000004D1E008615004D1E64548E1E0088ED48
:101E5000FF5D1E0086C9005D1E65548E1E00883918
:101E6000FF6D1E0086D1076D1E66548E1E008831E0
:101E7000F87F1E0086214E7F1E670900548E1E00CB
:101E800088E1B18B1E670B00548E1E670D000A5D42
:101E9000140A2C01010F1E03870100A71E030D7FEA
:101EA000FEFF0C2254E81E3556000E7956DA1E67E6
:101EB0005B00680D53676300690D53676D006A0D21
:101EC000536767006B0D536771006C09000D536712
:101ED00069006C0B000D5354E81E675B00680D53DE
:101EE000036D0D7FFEFF0C220128080056F41E35FD
:101EF0005C002802355E00280200870100051F00F3
:101F000088FF010D1F35600036620025040028029D
:101F1000292A02025D140D680C0F0F6122002808A7
:101F2000292A01005D200C5D200A0C6E5D140C68EE
:101F30000C68116122010D0C68121000612200284A
:101F40000A3564003666002504006B40005B006AB9
:101F500040005B2B014E1F3966002B01491F39627F
:101F6000002B01411F3950006701803956002B01B9
:101F7000211F394E002B01111F394C002B01F91E76
:101F80003912012B01EB1E39DC002B013D1E3902F9
:101F9000012B01E31D394A002B019B1D3948002B01
:101FA00001FC1C39DA0054C41F292A010056BA1F4B
:101FB000010B4340000B44322608012804630B3612
:101FC000680026062C0100AA1F003968002B01BDFD
:101FD0001F390601546D2000834F0021200083B972
:101FE000001C2000861D00262000570E26202620DB
:101FF00026202620262026202620262008200D20E8
:102000001220262026201720356A002802356C0071
:102010002802356E0028023570002802357200282B
:10202000023574002802005D26563620645D140BCC
:10203000680C53002804006C09005D146CB900683A
:102040000C5367C9000C716C61006E690C53671505
:10205000006C15000D71726C61006E6A0C5367158F
:10206000000C726C61006E6B0C530028062B01D7BC
:102070001F39D60054A32263680C5D207FFEFF0940
:102080000C7D55D820010E520A871D009D2000832B
:102090004500C2200084B900B22054C22000871736
:1020A00000AC2000861B00C22054B2200086110024
:1020B000C220005D2656BC206454C320670900542A
:1020C000C320651302000D6E14040001097F020095
:1020D000140400017A55852063130400015D200B70
:1020E0007956E720012804005D1468140200630D8E
:1020F0005D207FFEFF090C7D552522010F520A7FCE
:10210000BCFF0A8B75002B21007FFEFF8C71002520
:102110002167B900101053057F0200140A00011056
:10212000105354B42113020054BA210087D9FF3749
:102130002113020054BA21007F4400570E5921593F
:10214000215921592159215921592159215F21759D
:10215000218B2159215921A12113020054BA216751
:10216000B900101053057F0200140A0067C5001063
:10217000105354B42167B900101053057F020014A6
:102180000A0067E90010105354B42167B900101019
:1021900053057F0200140A0067DD0010105354B489
:1021A0002167B900101053057F0200140A0067E58B
:1021B00000101053130200540E22005D2656C72152
:1021C000000F0F53540E22006CB900101053057FFE
:1021D0000200140A0067C9000B716C61006E1010D8
:1021E00053057F0200140A006715006C15000C717E
:1021F000726C61006E101053057F0200140A0067B4
:1022000015000B726C61006E101053130200130264
:1022100000037F020014060001097F02001404007D
:10222000017A55FB2063130400002806292A0404C0
:102230008701005522018701005522040B5D206FA4
:102240000C7D555522038701005522040D5D206F3A
:102250000E7D565D22357600366200250C040E0E8A
:102260000E0E6122280A292A02018701007F22021C
:102270008701007F22020B5D206F0C7D568722357F
:1022800078003662002508025D140D680C0F0F619E
:1022900022002808292A01005D140C0C680D602416
:1022A0000028062B01952239D2002B0167223982A2
:1022B000002B012D22397C002B01772039CE0067BD
:1022C000FB03397E0054A323292A01015D200A0C57
:1022D000446E0C450B7D56DF22010D367A00221F1D
:1022E000F022041044114368121400367C002009C7
:1022F000000D4A2808292A0100440B450B7E560789
:1023000023640C367A0022020B0D435F16007F0215
:10231000000C4A2806292A0100450A0954252300F1
:102320006A70140000000E0E446E7D551F23357E2A
:10233000000B7D565123357E000E0E446E7C564AAE
:1023400023357E001400005451233580003666008A
:1023500021005D14091F66230644680F68121400EB
:1023600043367C002009000E49010E4B280A630BFE
:102370004A28020044680C4336820027080086037E
:102380000087236454882300367E000B7D569623F5
:10239000357E00549723000A5D140A0C680D3E0434
:1023A0000028082B017D2339BE002B01732339BA85
:1023B000002B016E2339BC002B011623397A002B28
:1023C00001F62239B2002B01C92239B0005474241D
:1023D000292A01150C5E2856E8236761000C5D2A46
:1023E0006E0B1B5F160028046761001A0D5E2C5DE2
:1023F0002A6E0B1B5F16150C5E2E0B7FFEFF32261E
:10240000086717005D140A3684002C0102D12335B9
:1024100086000D5E30562A24026C15000C220A6CD0
:1024200017006F0B0E368200270E3588000D5E32C6
:10243000564E24358A006C15000C226C71006C1508
:10244000000E5F16675B00680E5F16022808025DCB
:10245000346C15000C227FFEFF6C5B000B0E5F16C8
:10246000006C17006F0B0E368200270E358C000BA8
:102470005E362802358E00398600359000398C0092
:102480003592003984002B016C24391C01359400ED
:10249000398800359600398A002B010124391E0144
:1024A000544725292A01150C5E2856BB2467610074
:1024B0000C5D386E0B1B5F160028046761001A0D57
:1024C0005E3A5D386E0B1B5F16150C5E3C0B7FFE93
:1024D000FF3226086729005D140A3698002C010295
:1024E000A424359A000D5E3056FD24026C27000CA2
:1024F000220A6C29006F0B0E368200270E359C00D5
:102500000D5E32562125359E006C27000C226C7121
:10251000006C27000E5F16675B00680E5F160228CE
:1025200008025D3E6C27000C227FFEFF6C5B000BF7
:102530000E5F16006C29006F0B0E368200270E35D9
:10254000A0000B5E40280235A200399A0035A40095
:1025500039A00035A6003998002B013F2539140118
:1025600035A800399C0035AA00399E002B01D424DF
:1025700039160154B63E00280200092B0176253693
:10258000AC002606006328020036AE0021092B01AC
:10259000842536B00036B20036B4006936B6002461
:1025A0000E06292A010136B800210B25060036BA8D
:1025B00000210B36BC0021002804005D206A700A4F
:1025C00036BE002506292A0119170C7E56D5251975
:1025D000121E142506011E15520A834B00ED25001C
:1025E0001E121E0F22027F02000C32260A30053412
:1025F00004340334023311111E161E151E0D241847
:1026000009292A02011E101E0E22020B31260A2958
:102610002A03190A56232602680D221E0E1E0C22BA
:10262000542826021E0E0D22030B34FE260C292AE6
:10263000021908564126630C211E0C1E0A2254451D
:1026400026190C0C21020B34FD260A292A01190A2D
:102650001E0921010B34FC2608161C1A2606292AFD
:1026600002000C1B211A44221E0C0D0D0D1134FB0F
:102670002B0459261E09241004292A03025D200A6E
:102680000F0F0E321E081E071E061E051D1C1B1AEC
:102690002C060DC625022610262F264C265F266303
:1026A00012120011261A292A06060C210A101010EF
:1026B0000F36C00036C20036C4002C01087A2663EB
:1026C00036C40043211210000C221212000B36C631
:1026D000002618292A01011C1B0D1A240C04292A82
:1026E00002010B332B04D4260D0C0C1E121E0F24DA
:1026F0001004292A0119050B1B220C1E060C400090
:102700001E050E1A221D1C240E04292A03031E1066
:10271000520A7FC0FF0A8C33002127130200547D28
:102720002700571A58275E275E2758275E275E27FF
:102730005E275E275E275E27642758275E27582777
:1027400058275E275827582758275827582758278B
:102750005827582758275827130200548527130253
:1027600000547D27040E0E321E171E0E2B07F32673
:10277000107F02000F0C1E101E0D241604040E0EF6
:102780000E33241204047F02000E0E0E32241204B3
:10279000292A03031E0E520A86F900F02800577CEE
:1027A000F028F028F028F028F028F028F028F02869
:1027B000F028F028F028F028F028F028F028F02859
:1027C000F028F028F028F028F028F028F028F02849
:1027D000F028F028F028F028F028F028F028F02839
:1027E000F0289828F028F028F028A128F028F028D0
:1027F000F22AAD28F028F028AD28F028F028F0289B
:10280000F028F028F028F028F028F028F028F02808
:10281000F028F028F028F028F028F028F028F028F8
:10282000F028F028D6294C29F028AC29AC29AC296D
:10283000F028F028F028F028ED29F0288129F02848
:10284000F028F028F028F828F028F028F028F028C0
:102850008129F028F028F028F028F028F028F02826
:10286000F028B928D6294C298129AC29AC29AC29D2
:10287000F0288129F028F028ED29F028ED29812978
:10288000F028F028F028F828DD288129F028F02801
:102890008129F028F028F22A047F02000D1E132659
:1028A0000E047F020036C8000E1E102710047F029F
:1028B0000036CA000E1E102710020C1E15220D0D28
:1028C0001E0D221D45210A681E1522117F02000BD4
:1028D0000E0E1210001E0C221E11241804020C1ED3
:1028E00015220F7F02000B0F0F1E0C221E12271243
:1028F000000F1E0E1E052710020C1E15220B84E76A
:1029000000072900541A2935CC000B36CE00213699
:102910004E002236D000364E00221E0F7F020011DC
:102920007956282900543E2900091F3B2908120026
:102930001216001E0F1E0E1E0720071E0622117FF4
:1029400002000B11111E0C221E102716020C1E1560
:10295000220B84C7006029006936D20022547329F3
:1029600035D4000B36D60021364E002236D800363C
:102970004E0022107F02000B10101E0C221E10278A
:1029800014020C1E15220A091F9C2908100012149B
:10299000001E0F1E0E1212001E0820091A22107FA0
:1029A00002000B10101E0C221E102714020C1E1504
:1029B000220A091FC4290810001214001E0F1E0E3F
:1029C0001E07200736DA0022107F02000B10101EAF
:1029D0000C221E102714020C1E15220F7F02000B62
:1029E00036DC00210F0F1E0C221E102712047F025E
:1029F000001E0E520A7F50FF0A8C4100042A130267
:102A00000054522A005721492A4F2A4F2A4F2A4F51
:102A10002A4F2A4F2A4F2A4F2A4F2A4F2A4F2A49F4
:102A20002A4F2A4F2A4F2A4F2A492A4F2A4F2A4FE4
:102A30002A4F2A4F2A492A4F2A4F2A4F2A4F2A4FD4
:102A40002A492A4F2A4F2A492A130200547D2A1361
:102A50000200030D1E15220A091F6D2A081200121A
:102A600016001E0F1E0E6CDD001E0820091A221112
:102A70007F02000B11111E0C221E102716057F026B
:102A8000000C7F28FF0A8C0500912A13020054C90C
:102A90002A0057039A2AB82ABE2A050F1E15220AB1
:102AA000091FB02A081600111E0F1E0E1E07200750
:102AB0001B2213020054C32A13020054C92A63368E
:102AC00050002113020054E42A040E1E15220A09A4
:102AD0001FDF2A081400101E0F1E0E1E0720071CE1
:102AE000221302000B7F02000B11111E0C221E107C
:102AF0002716020C1E15220F7F02000A1E0E0E1E44
:102B000009230D84F700162B000D1E0A2111111E3A
:102B10000C221E102716000D11111E0C221E142748
:102B200016292A01010B1A221B5E422804292A08B1
:102B30000136DE002B03222B0A121400121400129D
:102B4000140012140012140012140012100036DEC9
:102B50000036E00036E20036E40036E60036E800F3
:102B600036EA0036EC0036EE0036C40036F00036A9
:102B7000F20036F4002C0315DF260B279127077F80
:102B80000200681210000F2720292A010056942BFA
:102B900000432804012804292A010056A12B0128FA
:102BA000040136C400452506292A01011B520A8763
:102BB0006100CB2B00867500E82B027F02000B7FA3
:102BC000A0FF0D6C1500706E32260A00844900E8E3
:102BD0002B0155DB2B633650002508027F02000CC9
:102BE0001A46213F001C260A18681C260A292A03B7
:102BF000030B520A7FA0FF8C1300012C04680E26E1
:102C00000E040D0D36C4002C0104A92B057F020013
:102C10000C7FA0FF0C2610292A05636C0D005E4472
:102C20000B680C5F4602690C5F46036A0C5F460442
:102C30006B0C5F46056C09000C5F46066C0B000CC4
:102C40005F46001B1A2612292A04636C0B005E449F
:102C50000B680C5F4602690C5F46036A0C5F460412
:102C60006B0C5F46056C09000C5F46001B1A2610B2
:102C7000292A03636C09005E440B680C5F460269F5
:102C80000C5F46036A0C5F46046B0C5F46001B1A20
:102C9000260E292A02636B5E440B680C5F460269AC
:102CA0000C5F46036A0C5F46001B1A260C292A019A
:102CB000636A5E440B680C5F4602690C5F46001B4A
:102CC0001A260A63695E440B680C5F46001B1A26CD
:102CD00008170B40001B7F02001A2606292A010153
:102CE0000B1A6F7FFEFF1B5F462804292A01180B71
:102CF0007E56062D631D5E440C0B1D2B03DD2C1A26
:102D000022001C1B260A010B322B04D12C2804297B
:102D10002A010136C200210A8C0D002D2D000D0D57
:102D200036F6002C0104EC2C63680C260C005707C7
:102D30003E2D432D4B2D532D5B2D632D6B2D3A0DC9
:102D40000D260A020C2B03C32C2806020C2B03AE03
:102D50002C2806020C2B03932C2806020C2B037143
:102D60002C2806020C2B03482C2806020C2B0318D7
:102D70002C2806292A010156932D01440C430B5699
:102D80008E2D000D1A22010D7F020032260C000D3F
:102D90001A260C2804292A01002C0101742D02682E
:102DA0000C260A0036F800210A432804292A0100CB
:102DB0007F02002804292A02026C53007A56C52D8E
:102DC000026CFB007A56CC2D020B1A22017F020006
:102DD0002806292A010184C300DF2D6554E02D64F3
:102DE0000C6CE5007956EF2D15457F02001A4B015A
:102DF00056FB2D001A446E1A4A2806001A436E1A12
:102E000049280663686841000A2B02D32D0A2B0269
:102E1000B62D092B01AD2D0A0C1036FA002303281C
:102E20000A292A020056332E35FC001A36B0002239
:102E3000543B2E674B001A36B20022020C1B260AA6
:102E4000292A01011A36B20022007F02002804005C
:102E50005D200A36BE00210A2B02412E0A0C2B03EC
:102E6000222E0B0B1036FA00230236BA00250C294D
:102E70002A01190B0C7D567F2E19081E0625060106
:102E80001E08520A877500972E0084BF00E32E02A9
:102E90007F02006932260A00874100E32E007FC0CE
:102EA000FF571AE82EE32EE32EE82EE32EE32EE35F
:102EB0002EE32EE32EE32ED72EE82EE32EE82EF07F
:102EC0002EE32EF02EF02EF02EF02EF02EF02EF01F
:102ED0002EF02EF02EF02E67D3000D0D1E09230CC0
:102EE00032260A020C33260A027F02000C32260A1E
:102EF000027F02000C32260A177FFCFF0B7B560B69
:102F00002F001A5E000B1B223225042802292A01F9
:102F100019090C7D561C2F19061D2506011E065287
:102F20000A86FD00503000577E50305030503050EF
:102F30003050305030503050305030503050305091
:102F40003050305030503050305030503050305081
:102F50003050305030503050305030503050305071
:102F6000305030503050305030503057305030505A
:102F700030503057305030503025301E31503050A6
:102F8000305730503050305030503050305030503A
:102F90003050305030503050305030503050305031
:102FA00030503050305030503050305030813066DA
:102FB0003050307830783078305030503050305099
:102FC00030913050306F3050305030503050305D94
:102FD0003050305030503050306F30503050305DC5
:102FE00030503050305030503050308A3081306660
:102FF000306F3078307830783050306F305030501B
:10300000309130503091306F30503050308A305DD8
:10301000308A306F30503050306F30503050302E5A
:103020003050301E31000D0D1E0723332508000DD2
:103030000D1E07230A1E060D1E05230A1E081E0666
:103040002C0103F82E020B21017FFEFF0F32261008
:10305000000D1E061C270C027F0200280667E700F1
:103060000D0D1E07270C67C7000D0D1E07270C67E7
:10307000D3000D0D1E07270C67CD000D0D1E072771
:103080000C6785000D0D1E07270C000D0D1E072770
:103090000C027F02001E090B7D56A53067D3000E7F
:1030A0000E1E07270E001E065E000A7F50FF0A8CC8
:1030B0004100BA30130200540831005721FF300597
:1030C0003105310531053105310531053105310550
:1030D0003105310531FF300531053105310531FF4D
:1030E0003005310531053105310531FF3005310538
:1030F00031053105310531FF3005310531FF301320
:10310000020054113113020067D3000F0F1E07276E
:103110001067D3000D10101E07231E08260E000D89
:103120000D1E07270C19070B7B564731001D5E004B
:10313000844B004031007F02006834FE22322504B7
:10314000007F0200322504002802292A02005D20A7
:103150007FFEFF0A0E0E0E36E60036FE0036EE004B
:103160002C0307702E0E2F2531630B2163280E00D0
:1031700036EE0036FE00360001270819060B7E5693
:10318000873119051C2504001E055E000A834B00CB
:103190009931017F0200322506017F0200332506A6
:1031A000180B7E56AA31171A2504001C5E000A7FF0
:1031B000B0FF0A8C0300E331007F5AFF0A8C050040
:1031C000C83113040054F331005703D131D731DD36
:1031D0003113040054FA3113040054F33113040082
:1031E0005409320056ED3113020054093213020023
:1031F00054FA31017F0200312506017F02000B1EC7
:1032000005220A7F020031250819070B795616326C
:10321000017F02002804001E061C1B270A292A0120
:10322000008451002C32675300542F3267FB000A90
:103230000D321D1C1B1A2C02077B31A031040C25FA
:103240000C292A04035D200A0F0E0E2C01041E32E5
:10325000060F0C2612292A041F6432071111113699
:10326000EA0020070B839D0073320183DD00733277
:1032700000280C67EB000B5D207FFEFF0C5F160043
:10328000280C292A01160B7C56C632001A520A83D2
:103290005500A232001D36B20022020C7F0200321D
:1032A000260A0256BD320243360201211D36B00005
:1032B00022017F02001C210D440B32260C35040133
:1032C0006C150040005B2804001A520A876100E177
:1032D0003200877500DA32162804017F0200322599
:1032E0000600834900EA32162804017F0200280400
:1032F000001A520A7FA0FF8C1300FF32012804013C
:103300001A2C0102C832027F02000B2508292A0369
:10331000002B02F0320C7F02000B210A0F6F7F148A
:103320000036BE00216C4B000B36B20022000D119E
:10333000102C0104833207360601210D0C220136C0
:10334000BA002512292A0100360801210C5D2068E7
:103350000E0D440E436C4100360A01241206292A40
:1033600005050C79566E3304556E3303280C050C95
:103370007C567C33050F0F3682002712000C36D2A4
:1033800000220D569C331FB333081200680F12162B
:1033900000121600367C00200954B3331FB33308E3
:1033A0001200121400116F0F121600121600367C54
:1033B00000200900280E292A01155D200C7E56C721
:1033C00033006840002804011A520A876300EB3377
:1033D00000867500F933010D1A5D206F7FFEFF0E28
:1033E0001A368200235D484000280600845B00F9FD
:1033F00033027F02006932260A027F02000C322665
:103400000A002C0101B733591134646810225A287C
:10341000046A0B437956223467E700680E360C01C4
:10342000270C005B00633650002504292A02020C99
:103430000C36C400470521360C01270C292A02004E
:103440000102633650002508005D20680C360E012D
:103450002708292A02020C0C368200270C007FFE66
:10346000FF3610012504292A01010B6E36100125B3
:1034700006008701007A34002802633650002504D4
:10348000292A03001A5E000A7FC0FF0A8C330097C6
:103490003413020054013500571ACE34D434D434D6
:1034A000CE34D434D434D434D434D434D434D434E2
:1034B000DA34D434E534D434D434F034FB34FB344B
:1034C000FB34FB34FB34FB34FB34FB34FB3413029E
:1034D0000054053513020054013505690F0F7F02B2
:1034E0000032241404050F690F7F020032241404F3
:1034F000640F0F0F7F0200322414041302005410D3
:1035000035031C250C040E0E0E7F0200322412041B
:10351000031C210C1B6F7FFCFF0D1A368200235DFC
:10352000480B5D200B0B7B56AC3507568635055591
:1035300086356761000C36D20022680E5E000A8371
:103540005700643500835B0060351F5D3505101240
:1035500010006F1068121600367C00200901281434
:1035600000546535000A680E5F161F8335067FFE1E
:10357000FF111212006F7F02001169121800367CD1
:103580000020090228166741000C36D2002210568E
:10359000963563549935010D6F091FA935050E1035
:1035A00068121600367C0020090128140228102910
:1035B0002A01359A000C5E4A56CE35011B43210B79
:1035C0001A5F16011B44210B7FFEFF322608006C98
:1035D00027006F0B7F02001A368200270A150B5E48
:1035E0004C5D380A861500F335006C61006E3612AA
:1035F000012506006C83006E7FECFF361201250664
:103600006709000B5E4E2802150B5E4C5D380A867A
:1036100015001E36006C61006E3612012506006C26
:10362000C3006E7FECFF36120125066709000B5EB2
:103630004E2802359C000B5E3256413667710028D9
:1036400002359A000B5E28566536671500369800DD
:103650000C5D3E5E3A5D386C21006F726C61006EED
:1036600036120125043598000B5E3A5D386C610016
:103670006E3612012504359C000B5E3256893635B4
:103680009800369E005E3C2802359A000B5E285654
:10369000AA36670B005D50369E005E3C3698000CE3
:1036A000361401215E3C5E5228023598000B5E3CC8
:1036B0002802150B5E4C5D386C61006E36120125D8
:1036C00004660B5E4E280219057FFEFF1C5E000A91
:1036D0007F68FF0A8C05000E37007FD0FF0A8C152B
:1036E00000E936130400541D3700570B0237083722
:1036F00008370837083702370837083702370837DE
:10370000023713040054C037130400541D370083DC
:1037100003001A3713020054C037130200359A0011
:103720001D5E325629371628040087DF008B3700CC
:1037300086F300A837007F22FF570A4F37A837A823
:1037400037A837A837A8376637A837A83774376738
:103750000F005D50092B01C1360B2B02B236400021
:1037600013020054AD372B017636092B0133364056
:103770000054AD37671F005D50092B012B360B2B12
:10378000020836400013020054AD370084B100A88F
:1037900037671F005D50092B0100360B2B02DD350A
:1037A000400013020054AD3763365000216C2900ED
:1037B0005D140B0B2C0102B035186C27000C260E83
:1037C0000156D837359A001D5E3056D83718361650
:1037D00001211A364E002608183616012506292A18
:1037E00001005D200A0D0D361801361A012B06C79F
:1037F000360A0C0E2C01038134636868690E2412AA
:1038000004292A03001A5E000A7FC0FF0A8C3300D5
:10381000183813020054823800571A4F385538555B
:10382000384F385538553855385538553855385536
:10383000385B38553866385538553871387C387C9F
:10384000387C387C387C387C387C387C387C381341
:10385000020054863813020054823805690F0F7F26
:10386000020032241404050F690F7F020032241471
:1038700004640F0F0F7F020032241404130200545B
:103880009138031C250C040E0E0E7F020032241208
:1038900004031C210C1B6F7FFCFF0D1A36820023D2
:1038A0005D480B5D200B0B7B562D390756073905FC
:1038B0005507396761000C36D20022680E5E000A97
:1038C000835700E53800835B00E1381FDE380510C0
:1038D0001210006F1068121600367C0020090128B3
:1038E000140054E638000A680E5F161F0439067F7C
:1038F000FEFF111212006F7F0200116912180036CC
:103900007C0020090228166741000C36D2002210E4
:1039100056173963541A39010D6F091F2A39050EDC
:103920001068121600367C002009012814022810A5
:10393000292A013586000C5E4A564F39011B432166
:103940000B1A5F16011B44210B7FFEFF3226080075
:103950006C15006F0B7F02001A368200270A150BC8
:103960005E545D2A0A8615007439006C61006E365B
:1039700012012506006C83006E7FECFF36120125D4
:10398000066709000B5E562802150B5E545D2A0A75
:103990008615009F39006C61006E36120125060005
:1039A0006CC3006E7FECFF36120125066709000B21
:1039B0005E5628023588000B5E3256C239677100A8
:1039C00028023586000B5E2856E6396715003684D6
:1039D000000C5D345E2C5D2A6C21006F726C6100FE
:1039E0006E36120125043584000B5E2C5D2A6C6155
:1039F000006E36120125043588000B5E32560A3AF5
:103A0000358400368A005E2E28023586000B5E283B
:103A1000562B3A670B005D58368A005E2E368400BE
:103A20000C361C01215E2E5E5A28023584000B5E86
:103A30002E2802150B5E545D2A6C61006E36120151
:103A40002504660B5E56280219057FFEFF1C5E00EA
:103A50000A7F68FF0A8C05008F3A007FD0FF0A8C2E
:103A600015006A3A130400549E3A00570B833A89B2
:103A70003A893A893A893A833A893A893A833A893A
:103A80003A833A13040054413B130400549E3A0015
:103A90008303009B3A13020054413B130200358616
:103AA000001D5E3256AA3A1628040087DF000C3B40
:103AB0000086F300293B007F22FF570AD03A293BBA
:103AC000293B293B293B293BE73A293B293BF53A4E
:103AD000670F005D58092B01423A0B2B02333A4025
:103AE00000130200542E3B2B01F739092B01B43986
:103AF0004000542E3B671F005D58092B01AC390B69
:103B00002B0289394000130200542E3B0084B1007F
:103B1000293B671F005D58092B0181390B2B025E81
:103B2000394000130200542E3B63365000216C17BD
:103B3000005D140B0B2C01023139186C15000C269A
:103B40000E0156593B3586001D5E3056593B1836DE
:103B50001E01211A364E00260818361E0125062998
:103B60002A01005D200A0D0D361801361A012B06B8
:103B7000483A0A0C0E2C01030238636868690E2467
:103B80001204292A03001A5E000A7FC0FF0A8C3340
:103B900000993B13020054033C00571AD03BD63B1C
:103BA000D63BD03BD63BD63BD63BD63BD63BD63B93
:103BB000D63BDC3BD63BE73BD63BD63BF23BFD3B23
:103BC000FD3BFD3BFD3BFD3BFD3BFD3BFD3BFD3B35
:103BD00013020054073C13020054033C05690F0F05
:103BE0007F020032241404050F690F7F0200322483
:103BF0001404640F0F0F7F02003224140413020018
:103C000054123C031C250C040E0E0E7F02003224BD
:103C10001204031C210C1B6F7FFEFF0D1A3682005D
:103C2000235D480B5D200B0B7B56AE3C0756883C52
:103C30000555883C6761000C36D20022680E5E0094
:103C40000A835700663C00835B00623C1F5F3C05B3
:103C5000101210006F1068121600367C0020090147
:103C600028140054673C000A680E5F161F853C0646
:103C70007FFEFF111212006F7F02001169121800FF
:103C8000367C0020090228166741000C36D200223B
:103C90001056983C63549B3C010D6F091FAB3C05CB
:103CA0000E1068121600367C002009012814022824
:103CB00010292A010156CB3C011B43210B1A5F1628
:103CC000011B44210B7FFEFF322608006C15006F9C
:103CD0000B7F02001A368200270A671F000B730A47
:103CE000861500EF3C006C61006E3612012506005F
:103CF0006C83006E7FECFF36120125066709000B0E
:103D0000772802671F000B730A861500183D006CA8
:103D100061006E3612012506006CC3006E7FECFF59
:103D200036120125066709000B7728023556000B6D
:103D30007956393D676900280200860100563D67C3
:103D400015006C15000C6D726C25006F726C6100B3
:103D50006E36120125046715000B726C61006E3619
:103D6000120125043556000B7956713D67CD0C289C
:103D70000200860100853D6715000B7FFEFF716C18
:103D800099196E28026715000B712802670F000B46
:103D9000736C61006E3612012504660B77280219D8
:103DA000057FFEFF1C5E000A7F68FF0A8C0500E6A7
:103DB0003D007FD0FF0A8C1500C13D13040054F56F
:103DC0003D00570BDA3DE03DE03DE03DE03DDA3DB2
:103DD000E03DE03DDA3DE03DDA3D13040054783E3D
:103DE00013040054F53D00830300F23D1302005418
:103DF000783E1302001855FC3D1628040087DF00AA
:103E00004C3E0086F300603E007F22FF570A223EB0
:103E1000603E603E603E603E603E303E603E603EE2
:103E20003E3E2B019A3D092B018C3D400054653EDE
:103E30002B01643D092B012C3D400054653E2B01B4
:103E4000253D092B01033D400054653E0084B1002F
:103E5000603E2B01FC3C092B01DA3C400054653EDE
:103E600063365000216C17005D140B0B2C0102B25D
:103E70003C186C15000C260E01568D3E188701006B
:103E80008D3E18360201211A364E002608183602D9
:103E9000012506292A01005D200A0D0D361801367C
:103EA0001A012B069F3D0A0C0E2C0103833B63680D
:103EB00068690E241204352001391A0135220139AE
:103EC00018012B01943E39F4002B01603B39F200BC
:103ED0002B01DF3739F0002B017134093910010053
:103EE000130200092B016734690B21092B015D3492
:103EF000092B01533409390E0100130200092B016B
:103F000048340A0C0E101210001214003E0600393C
:103F1000C400130C002B013D34390C012B012C344F
:103F200039EE002B01243439FE002B01013439080D
:103F3000012B015F33390A012B01453339EC002B8A
:103F4000010E3339EA002B01563239E8002B0142C9
:103F5000323900012B016F3139E6002B014B313929
:103F6000FA002B014F2E39E4002B01032E39F80003
:103F70002B01A32D39C2002B01962D39F6002B0100
:103F8000102D39C6002B01EE2B39E2002B01982BA6
:103F900039E0002B018A2B39DE002B012E2B39C092
:103FA000002B01A72639B6002B01BA2539B4002B06
:103FB00001AD2539B8002B01A32539AE002B0188AE
:103FC0002539AC002B017925393E01545E44292A5C
:103FD00004040E0E0E0E3E0500362401210A47127F
:103FE0000B47110C47100D470F0E470E0F470D10D2
:103FF000470C11470B121000470A12120047091212
:1040000014004708121600470712180047063E0D15
:1040100000280C1921435636401921465D5C631E69
:10402000225E5E001E2147045E5E1921445D601918
:1040300021445D5C28021921465D5C671F001E2239
:104040005D62731E225E5E671F001E2147045D6273
:10405000730A6CE1010D73741E2147045E5E192121
:10406000445D601921445D5C006CE1016C09000E47
:104070007673741E2147045E5E1921445D60192128
:10408000445D5C2804191F4356AA4067FF011E20A7
:104090005E5E191F465D60191F445D60191F47046D
:1040A0005D621E1F445D5C00280467E1011E205D07
:1040B00062741E205E5E191F465D60191F445D60BC
:1040C00067E1011E1F47045D62731E1F445D5C199A
:1040D0001F445D60006C09001E1F47045D62777419
:1040E0001E1F445D5C002806191D455D600034FEFE
:1040F0002504191B455D5C0034FD25041919435640
:104100000C4167FF011E1A5E5E54184167E1011EF3
:104110001A5D62741E1A5E5E1919455D5C191946B6
:104120005D601919445D60542B41636701011E19DC
:1041300047045D6273552A41631919445D5C19197E
:104140004368795650411919445D601919445D5C02
:1041500028026331216434FE25046334FE21653472
:10416000FD2504191343568A411913445D645D5CAF
:104170001913455D645D5C1913465D645D5C6334D1
:10418000FD216334FE21633125041913445D645D10
:104190005C1913455D645D5C1913465D645D5C6389
:1041A00034FD211913455D5C1913465D5C671F00E2
:1041B0001E145D62731E145E5E671F001E134704AB
:1041C0005D62736C4100741E1347045E5E191344F4
:1041D0005D601913445D5C6334FE2163312504295D
:1041E0002A050056EB41004354EC41640C56F24161
:1041F00002430E56F841044310560142064354024E
:104200004264121000560C42081000436834FC212E
:104210000457041B42214227422D426709005430B3
:1042200042670D00543042670F00543042670B0064
:1042300034FB216334FC21025703404246424C4286
:10424000671100544F42671500544F426717000E24
:10425000555942671900545C426711007434FB21C0
:104260006334FC21008403007042674900547342A8
:104270006741000C8403007F42675100548242670B
:1042800041001E1143568E426761005491426741BE
:1042900000747434FB25186334FB21190F455D5CF1
:1042A00067FF006834F821730A87A900B942007FCC
:1042B00058FF6C09004000280400878100C84200B4
:1042C0007F80FF6A4000280400872900D742007FD2
:1042D000D8FF6B40002804006940002804292A0107
:1042E000007FFCFF0A8C0500EE4263540643005732
:1042F00003F742FD420343678100540643672900E8
:1043000054064367A9001302006834FA21020B6EB9
:104310006C01017434F925086334F92100552643F2
:1043200067210054294367290034F825046334F8D1
:104330002100553B43673100543E4367390034F751
:104340002504292A036334FC216B6C0F000D73765E
:104350006C81007434F621673F006C0B000E77739C
:1043600034F521673F000D7334F521673F006C156C
:10437000000F777334F521673F006C0B000F7773E4
:1043800034F521673F000E7334F521673F006C154B
:104390000010777334F521673F006C0B00107773C2
:1043A00034F521673F000F7334F52100440B43348B
:1043B000FD260E00841500C7436334FB21680B43C0
:1043C0007F020034FC26086334F6210034F425040F
:1043D000630B5D207FFEFF090C7D55F043010D5EF0
:1043E00000312101097F0200140400017A55DD43E8
:1043F00063280600360201213125040047045D646C
:104400000A0C2C110213408540E840F240FC405257
:10441000415A416341E0419742DE4218432D4343F4
:1044200043B343D043F343020A0C0E1012100012A0
:104430001400121800121C0012200012240012286E
:1044400000122C00123000123400123800123C000E
:104450001240001244001248003E130028282B018D
:10446000FB433924012B01CF3F3942015429460037
:10447000460B450C440D430B0B40001B211C431AFB
:1044800043215689440354A444008405009B4419E5
:1044900005431A43217F060054A4441905431A43D7
:1044A000217F02001C431A432156B0440454CB44DC
:1044B00001840300C2441905431A43217FFAFF54C3
:1044C000CB441905431A43217FFEFF1C431A4321A5
:1044D00056D7440554ED440356DF440054ED4404DC
:1044E00056E7440154ED441905431A43211C431A6D
:1044F000432156F9440654FA44001C431A432156FA
:10450000064564542945007FFAFF1212007B5615B8
:104510004563542945007F06001212007D5624454C
:104520006454294518431A43213626011C49003F8B
:10453000001D49013F001E0549001214000D4100F5
:1045400028166336280121362A013F00683F00689B
:104550003F000A0C0E10362C012B066F44280A006F
:10456000440B431B431A4321566F4563549845003F
:10457000567B4501557B4564549845005587450158
:1045800056874565549845005693450156934566B0
:1045900054984517431A4321362E011B49003F000A
:1045A0001C490028083530013F00683F000A0C36DE
:1045B0002C012B045F452806677D016C81005E5E3F
:1045C000677D006C83005E5E666C85005E5E54D223
:1045D00045636785025D6655D1456787005D626CFE
:1045E00011006C89005D62767428023532010B7B04
:1045F00056F84535340128023536010B7D560546FF
:104600003538012802353A010B6C13086F5D185ECE
:1046100010363C01363E012606005621460043284E
:1046200002354001366600250467C700393201674C
:104630001D056CE5073936016707026C07206C071A
:10464000106CA7205D6067A7105D606737405D60F4
:104650006707025D5C67FB016C2B005E5E1F7046A6
:10466000646C19406C19086C190468364201200901
:10467000680B45211F8346636868686868121200EA
:1046800046200B1F9346636C01706C9503681147BD
:104690000820071FA5466701206C11456C090069B9
:1046A00011470820071FB7466701206C45116C09A8
:1046B000006A11470820071FC9466701806C114531
:1046C0006C21006B11470820071FDB466701086C4F
:1046D0004511696C090011470820073544010B4753
:1046E0000A212B0119460A3F00392C011302002B25
:1046F00001EB45092B01B845092B01A545392801D6
:104700002B014245680B2109546147065D66105D27
:1047100066680F210A1218000D0F3E04000E216971
:1047200069121400470522004312100021121200E2
:10473000470A21646A12140047052200441210003F
:1047400021121200470A2100455654470816005D01
:10475000605459470816005D5C6759025D6813088C
:104760000064550B471312008F000200080002007E
:104770000E0016001C00240002002A002E00320049
:10478000380002003E0032003200320032003200B7
:104790003200320032003800320032003200320083
:1047A000320044004400020044003E000200440085
:1047B0003E00010001000100010001004A003E002E
:1047C000010002003E004E0056005E0001006C0039
:1047D000010001007E0084008A00900096009C0089
:1047E000A200B000010001000100BE0001000100B4
:1047F0000100010001000100E000E800F000F80005
:104800000001010001000100010001000801140184
:1048100020012C013801010001000100010001000C
:104820000100010001000100010001000100010080
:104830000100440148014C010100500101005401F4
:104840000100580101000100010001000100010008
:104850000100010001000100010001000100010050
:104860000100010001005C010100010001006E0176
:104870000100010001000100010001000100010030
:104880000100010001000100010076017A01010030
:104890007E0101008201010086018A0101008E0172
:1048A000010096019E01A4010100AC010100B401C8
:1048B000FD0200000000FD0200000080FC032B69E7
:1048C0006E660001FC02696E6600FC032D696E666F
:1048D0000001FC026E616E00FC012B00FC012D004A
:1048E000FD0200002082FD020000007EFD020000AB
:1048F000007FFD0200247492FC012E00FC03747200
:1049000075650001FC0366616C736500FC066368F5
:1049100061725F6F665F696E7400FC08696E766134
:104920006C696420666F726D61740001FC025C62E8
:104930000001FC025C740001FC025C6E0001FC02E0
:104940005C720001FC025C5C0001FC025C2700015F
:10495000FC06537472696E672E626C697400FC0603
:10496000537472696E672E7375620001FC10427594
:10497000666665722E6164643A2063616E6E6F7460
:104980002067726F77206275666665720001FF03AB
:10499000E01500000000FF03E01501000000FF0328
:1049A000E0150A000000FF03E01500000080FF038F
:1049B000E015FFFFFF7FFF05F0150000000000007D
:1049C0000000FF05F0150100000000000000FF05D9
:1049D000F0150A00000000000000FF05F0150000BF
:1049E000000000000080FF05F015FFFFFFFFFFFF44
:1049F000FF7FFC012500FC010001FC012200FC01FD
:104A00002200FC012700FC012700FC02255F0001B9
:104A1000FC057072696E74662E6D6C000003620195
:104A200039031100FC012B00FC01300000010100E2
:104A3000000103000001010000010300FC032B2B17
:104A40002E2B0001FC032D2D2E2D0001FD0251B84F
:104A50003A82FC0325342E316600FC034E6F6E65EE
:104A60000001FC090133322E350043020A203332A3
:104A70002E3500432000E1CF68FFE2CF69FFD890D8
:104A8000023201305625E96E02505721EA6ED89065
:104A9000063205300324E16E06500420E26ED89001
:104AA0000832073204E0EECFE6FF072EFCD70806F7
:104AB000FAE068CFE1FF69CFE2FF010E566F576B56
:104AC000120056CFE9FF57CFEAFF01E9EE50E92681
:104AD000D8B0EA2AFF0FE926D8B0EA2A566F576BFA
:104AE000D89056375737D88056375737EFA0568368
:104AF0001200D890023201305625E96E025057213B
:104B0000EA6E06300532D8900432033204E00550D4
:104B1000EE6E032EFCD70406FAE0010E566F576BBB
:104B20001200030E566F576B12005731686F5631E3
:104B3000F56E696F68313F0B76E1F532F52A73E067
:104B400003EC0AF0FC0EE66EF550E66EE1CF56FF80
:104B5000E2CF57FFFF0FE126D8B0E22AE126D8B016
:104B6000E22AE66A000E69A1010EE66E120056CF37
:104B7000E9FF57CFEAFF01E9D89002320132D8901D
:104B800002304BE10130EF6448D0010FEE640AD0EF
:104B90000150E9260250EA22576BD880EF3457378C
:104BA000566F120001B039D00150E9260250EA22B6
:104BB00001E8ED5032E1576BD880EF345737566F2C
:104BC000120056CFE9FF57CFEAFF01E9D890023231
:104BD0000132D890023021E10130EF641ED0010F84
:104BE000EE640BD00150E9260250EA220430033073
:104BF000EF6E010E566F576B120001B00ED00150D0
:104C0000E9260250EA2201E8ED5007E104300330C2
:104C1000EF6E010E566F576B1200010E566F016E4C
:104C2000576B026AF3D05E51E2620DD0160EE1249A
:104C30000AE36DEC0AF05E51E26205D0160EE12443
:104C4000D8B0ACEF09F0FC0EE66E070EE66EE1CFD1
:104C500068FFE2CF69FF530EE66E740EE66E720EC9
:104C6000E66E690EE66E6E0EE66E670EE66E2E0E50
:104C7000E66E630EE66E720EE66E650EE66E610E11
:104C8000E66E740EE66E650EE66E000EE66E5FEF83
:104C900031F0D890573118E1563111E0F56E03EC40
:104CA0000AF0E66AF5CFE6FFE1CF56FFE2CF57FF05
:104CB0000150E66E0250E66EF52EFAD71200880E0D
:104CC000566F0F0E576F12005E51E2620DD0140E38
:104CD000E1240AE36DEC0AF05E51E26205D0140EA5
:104CE000E124D8B0ACEF09F0FC0EE66E060EE66EDD
:104CF000E1CF68FFE2CF69FF410EE66E720EE66E0D
:104D0000720EE66E610EE66E790EE66E2E0EE66EA1
:104D10006D0EE66E610EE66E6B0EE66E650EE66E6D
:104D2000000EE66E010EE66E5FEF31F056CFE9FF42
:104D300057CFEAFF02E9FE0EEE620AD01DD056CF31
:104D4000E9FF57CFEAFF02E9FE0EEE6248D0A0D09D
:104D500056CFE9FF57CFEAFF01E9D890023056E17C
:104D60000130EE6453D00104E9260250EA22EECF6E
:104D700056FFEFCF57FF12005E51E2620DD0060ED4
:104D8000E1240AE36DEC0AF05E51E26205D0060E02
:104D9000E124D8B0ACEF09F056CFE9FF57CFEAFFD6
:104DA00001E9025033E10104EE6430D00104E92648
:104DB0000250EA220104E9260250EA22FD0EE66EC4
:104DC000020EE66EE1CF56FFE2CF57FFEECFE6FFD1
:104DD000EECFE6FFEECFE6FFEFCFE6FF120056CFB5
:104DE000E9FF57CFEAFF01E9D89002300FE1013027
:104DF000EE640CD00104E9260250EA220350EE6E64
:104E00000450EF6E010E566F576B12005E51E26256
:104E10000DD01C0EE1240AE36DEC0AF05E51E26253
:104E200005D01C0EE124D8B0ACEF09F0FC0EE66E04
:104E30000A0EE66EE1CF68FFE2CF69FF690EE66E0B
:104E40006E0EE66E640EE66E650EE66E780EE66E2B
:104E5000200EE66E6F0EE66E750EE66E740EE66E52
:104E6000200EE66E6F0EE66E660EE66E200EE66EA5
:104E7000620EE66E6F0EE66E750EE66E6E0EE66EF6
:104E8000640EE66E730EE66E000EE66E5FEF31F0B6
:104E900003EBE9FF04EBEAFFEECF68FFEECF69FF1B
:104EA000EECF6AFFEFCF6BFF56CFE9FF57CFEAFF98
:104EB00001E90250ABE10104EE64A8D70104E92640
:104EC0000250EA220104E9260250EA2268CFEEFFEE
:104ED00069CFEEFF6ACFEEFF6BCFEFFF010E566F8B
:104EE000576B1200D8805631E96EEA680230013003
:104EF000EF6E010E566F576B1200D8805631E96E77
:104F0000EA68EF34566F57371200D8805631E96E91
:104F1000EA68EF505711EF6E010E566F576B120093
:104F2000D8805631E96EEA68571FEF505715EF6E7B
:104F3000010E566F576B1200D8805631E96EEA6841
:104F40005751EF14010ED8A4030E566F576B120081
:104F5000120E5661EE0F120F5627120056CFE9FFC0
:104F600057CFEAFF566B576BEE5079E02D086C91E6
:104F700002E16C81EE50FD080FE1EE506EE0780822
:104F80003EE020083CE00A082EE020082CE02D0836
:104F900014E0200812E01F0F090861E309085FE32D
:104FA000686F56510A0D6851F324566FF450572319
:104FB00056E6EE5048E0D00FEFD7EE5050E0D00F5D
:104FC000E83AE846E8365637573749E6E83656377E
:104FD000573745E6E8365637573741E6F80B3FE195
:104FE000EE50EDE130D0EE503AE0D00FE8325637D7
:104FF000573735E67F0B33E1EE50F7E124D0EE5022
:105000002EE0D00F2CE3F60F0AE3F90F28E3FA0F96
:1050100005E3E60F24E3FA0F22E2000F060F0A0F62
:10502000E83AE836563757371AE6E83656375737EC
:1050300016E6E8365637573712E6E836563757370A
:105040000EE6EE50DEE1D880563757376CA11200DD
:10505000561F571F564B572B120056811200010E38
:10506000566F576B5E51E2620DD0160EE1240AE3D3
:105070006DEC0AF05E51E26205D0160EE124D8B064
:10508000ACEF09F0FC0EE66E070EE66EE1CF68FFAE
:10509000E2CF69FF690EE66E6E0EE66E740EE66E86
:1050A0005F0EE66E6F0EE66E660EE66E5F0EE66EE5
:1050B000730EE66E740EE66E720EE66E690EE66EA6
:1050C0006E0EE66E670EE66E000EE66E000EE66E83
:1050D000020EE66EE1CF56FFE2CF57FF050EE66EF9
:1050E000E66A68CFE6FF69CFE6FFE8EF09F06BEC10
:1050F0002AF0EE1CE82AE66EEE1CD8B0E82AE66E2E
:10510000EE1CD8B0E82AE66EEF1CD8B0E82AE66EAE
:10511000120090EC2AF0DE50EE24E66EDE50EE2017
:10512000E66EDE50EE20E66EDF50EF20E66E68CFD2
:10513000D9FF69CFDAFF120090EC2AF0DE50EE5C66
:10514000E66EDE50EE58E66EDE50EE58E66EDF504C
:10515000EF58E66E68CFD9FF69CFDAFF120001EB96
:10516000E9FF02EBEAFF02E8EECF6CFFEECF6DFF46
:10517000EECF6EFFEF506F6F6E116D116C11D8B4E2
:10518000B2EF09F056CFE9FF57CFEAFF02E8EECFC2
:1051900068FFEECF69FFEECF6AFFEFCF6BFF5E5186
:1051A000E2620DD0080EE1240AE36DEC0AF05E51D4
:1051B000E26205D0080EE124D8B0ACEF09F0E66851
:1051C000030EE66EE1CF56FFE2CF57FFE00EE66E2C
:1051D000150EE66E70916BAF0CD07071681F691F71
:1051E0006A1F6B1F682B05E3692B03E36A2B01E33E
:1051F0006B2B6FAF0CD070716C1F6D1F6E1F6F1F0C
:105200006C2B05E36D2B03E36E2B01E36F2B716BAE
:10521000726B736B746B636B646B656B666B6381D2
:10522000D8906C376D376E376F376F516B5D12E307
:105230000BE16E516A5D0EE307E16D51695D0AE3B2
:1052400003E16C51685D06E3D890633764376537D6
:105250006637E6D7D8906F336E336D336C336F514A
:105260006B5D1CE30BE16E516A5D18E307E16D5164
:10527000695D14E303E16C51685D10E36C51685F94
:105280006D51695B6E516A5B6F516B5B635171135A
:10529000645172136551731366517413D890663359
:1052A000653364336333D8A0D5D770A10BD0711F99
:1052B000721F731F741F712B05E3722B03E3732B93
:1052C00001E3742B71CFE6FF72CFE6FF73CFE6FFE9
:1052D00074CFE6FF120001EBE9FF02EBEAFF02E800
:1052E000EECF6CFFEECF6DFFEECF6EFFEF506F6F26
:1052F0006E116D116C11D8B4B2EF09F056CFE9FF01
:1053000057CFEAFF02E8EECF68FFEECF69FFEECF9E
:105310006AFFEFCF6BFF5E51E2620DD0080EE12411
:105320000AE36DEC0AF05E51E26205D0080EE1245A
:10533000D8B0ACEF09F0E668030EE66EE1CF56FF99
:10534000E2CF57FFE00EE66E150EE66E70916BAF82
:105350000CD07071681F691F6A1F6B1F682B05E3F3
:10536000692B03E36A2B01E36B2B6FAF0CD07071D9
:105370006C1F6D1F6E1F6F1F6C2B05E36D2B03E3FE
:105380006E2B01E36F2B756BD8906C376D376E37D2
:105390006F37752B6F516B5D0CE3F6E16E516A5DF3
:1053A00008E3F2E16D51695D04E3EEE16C51685D83
:1053B000EBE2D8906F336E336D336C336F516B5DAE
:1053C00014E30BE16E516A5D10E307E16D51695D15
:1053D0000CE303E16C51685D08E36C51685F6D514B
:1053E000695B6E516A5B6F516B5B752FE2D770A181
:1053F0000BD0681F691F6A1F6B1F682B05E3692BA1
:1054000003E36A2B01E36B2B68CFE6FF69CFE6FF6E
:105410006ACFE6FF6BCFE6FF120090EC2AF0DE5079
:10542000EE14E66EDE50EE14E66EDE50EE14E66E1E
:10543000DF50EF14E66E68CFD9FF69CFDAFF1200B4
:105440006BEC2AF0EECF68FFEECF69FFEECF6AFF7C
:10545000EFCF6BFFD890013207E0D8906B336A33FF
:1054600069336833012EF9D768CFE6FF69CFE6FFCD
:105470006ACFE6FF6BCFE6FF120056CF68FF57CF2B
:1054800069FF5E51E2620DD0080EE1240AE36DEC83
:105490000AF05E51E26205D0080EE124D8B0ACEF0C
:1054A00009F0E668030EE66EE1CF56FFE2CF57FF44
:1054B000E00EE66E150EE66E69316831E66E69350E
:1054C00005E26931E66EE66AE66A12006931E66E67
:1054D000E668E668120056CF68FF57CF69FF5E5155
:1054E000E2620DD0080EE1240AE36DEC0AF05E5191
:1054F000E26205D0080EE124D8B0ACEF09F0E6680E
:10550000030EE66EE1CF56FFE2CF57FFE00EE66EE8
:10551000150EE66E68CFE9FF69CFEAFF02E81200D8
:1055200056CF68FF57CF69FF5E51E2620DD0080E7B
:10553000E1240AE36DEC0AF05E51E26205D0080E48
:10554000E124D8B0ACEF09F0E668030EE66EE1CFD7
:1055500056FFE2CF57FFE00EE66E150EE66E68CFFF
:10556000E9FF69CFEAFF02E8D9CF68FFDACF69FF28
:10557000015002EBDAFFD96E82E81200F3EC2DF055
:10558000EE1CE82AE66EEE1CD8B0E82AE66EEE1CA9
:10559000D8B0E82AE66EEE1CD8B0E82AE66EEE1C1B
:1055A000D8B0E82AE66EEE1CD8B0E82AE66EEE1C0B
:1055B000D8B0E82AE66EEF1CD8B0E82AE66E1200F2
:1055C00018EC2EF0DE50EE24E66EDE50EE20E66E95
:1055D000DE50EE20E66EDE50EE20E66EDE50EE206F
:1055E000E66EDE50EE20E66EDE50EE20E66EDF5018
:1055F000EF20E66E68CFD9FF69CFDAFF120018EC12
:105600002EF0DE50EE5CE66EDE50EE58E66EDE50BA
:10561000EE58E66EDE50EE58E66EDE50EE58E66E60
:10562000DE50EE58E66EDE50EE58E66EDF50EF5874
:10563000E66E68CFD9FF69CFDAFF120001EBE9FF10
:1056400002EBEAFF02E8EE50EE10EE10EE10EE1064
:10565000EE10EE10EF10D8B4B2EF09F056CFE9FF1C
:1056600057CFEAFF02E8EECF68FFEECF69FFEECF3B
:105670006AFFEECF6BFFEECF71FFEECF72FFEECF82
:1056800073FFEFCF74FF5E51E2620DD00C0EE12488
:105690000AE36DEC0AF05E51E26205D00C0EE124E3
:1056A000D8B0ACEF09F0E668050EE66EE1CF56FF24
:1056B000E2CF57FFF00EE66E150EE66E01EBE9FF46
:1056C00002EBEAFF02E8EECF6CFFEECF6DFFEECF0C
:1056D0006EFFEECF6FFFEECF63FFEECF64FFEECF36
:1056E00065FFEFCF66FF709174AF18D07071681FBF
:1056F000691F6A1F6B1F711F721F731F741F682B36
:105700000DE3692B0BE36A2B09E36B2B07E3712B8A
:1057100005E3722B03E3732B01E3742B66AF18D000
:1057200070716C1F6D1F6E1F6F1F631F641F651FDD
:10573000661F6C2B0DE36D2B0BE36E2B09E36F2BB8
:1057400007E3632B05E3642B03E3652B01E3662B7F
:10575000E66AE66AE66AE66AE66AE66AE66AE76AC8
:1057600047E9F36AF46AF380D8906C376D376E3787
:105770006F3763376437653766376651745D22E388
:105780001BE16551735D1EE317E16451725D1AE31D
:1057900013E16351715D16E30FE16F516B5D12E32D
:1057A0000BE16E516A5D0EE307E16D51695D0AE33D
:1057B00003E16C51685D06E3D890F336D5E3F380DE
:1057C000F42AD2D7D89066336533643363336F33AA
:1057D0006E336D336C336651745D36E31BE1655196
:1057E000735D32E317E16451725D2EE313E163519F
:1057F000715D2AE30FE16F516B5D26E30BE16E51A2
:105800006A5D22E307E16D51695D1EE303E16C51BE
:10581000685D1AE36C51685F6D51695B6E516A5B3C
:105820006F516B5B6351715B6451725B6551735B6C
:105830006651745BF450E126D8B0E22AF350E712C7
:10584000F450E15ED8A0E206D890F332BBE3F38EC9
:10585000F406F4AEB7D748E870A1120041E9E51E9E
:10586000E51EE51EE51EE51EE51EE51EE71EE62A11
:105870000EE3E62A0EE3E62A0EE3E62A0EE3E62A24
:105880000EE3E62A0EE3E62A0EE3E62A120047E8D4
:10589000120046E8120045E8120044E8120043E80E
:1058A000120042E8120041E8120001EBE9FF02EBAE
:1058B000EAFF02E8EE50EE10EE10EE10EE10EE10E1
:1058C000EE10EF10D8B4B2EF09F056CFE9FF57CF82
:1058D000EAFF02E8EECF68FFEECF69FFEECF6AFF86
:1058E000EECF6BFFEECF71FFEECF72FFEECF73FF07
:1058F000EFCF74FF5E51E2620DD00C0EE1240AE39B
:105900006DEC0AF05E51E26205D00C0EE124D8B0D5
:10591000ACEF09F0E668050EE66EE1CF56FFE2CF88
:1059200057FFF00EE66E150EE66E01EBE9FF02EB97
:10593000EAFF02E8EECF6CFFEECF6DFFEECF6EFF19
:10594000EECF6FFFEECF63FFEECF64FFEECF65FFCC
:10595000EFCF66FF709174AF18D07071681F691F28
:105960006A1F6B1F711F721F731F741F682B0DE35B
:10597000692B0BE36A2B09E36B2B07E3712B05E320
:10598000722B03E3732B01E3742B66AF18D0707195
:105990006C1F6D1F6E1F6F1F631F641F651F661FC7
:1059A0006C2B0DE36D2B0BE36E2B09E36F2B07E3E1
:1059B000632B05E3642B03E3652B01E3662B756B17
:1059C000D8906C376D376E376F376337643765370C
:1059D0006637752B6651745D1CE3F2E16551735DAA
:1059E00018E3EEE16451725D14E3EAE16351715D25
:1059F00010E3E6E16F516B5D0CE3E2E16E516A5D2D
:105A000008E3DEE16D51695D04E3DAE16C51685D44
:105A1000D7E2D89066336533643363336F336E33C4
:105A20006D336C336651745D2CE31BE16551735D1E
:105A300028E317E16451725D24E313E16351715D62
:105A400020E30FE16F516B5D1CE30BE16E516A5D6A
:105A500018E307E16D51695D14E303E16C51685D82
:105A600010E36C51685F6D51695B6E516A5B6F51F9
:105A70006B5B6351715B6451725B6551735B665123
:105A8000745B752FC6D770A117D0681F691F6A1F76
:105A90006B1F711F721F731F741F682B0DE3692B1F
:105AA0000BE36A2B09E36B2B07E3712B05E3722BE6
:105AB00003E3732B01E3742B68CFE6FF69CFE6FFA6
:105AC0006ACFE6FF6BCFE6FF71CFE6FF72CFE6FF4E
:105AD00073CFE6FF74CFE6FF120018EC2EF0DE5015
:105AE000EE14E66EDE50EE14E66EDE50EE14E66E58
